{
  "_format": "hh-sol-artifact-1",
  "contractName": "Auction",
  "sourceName": "src/contracts/Auction.sol",
  "abi": [
    {
      "inputs": [],
      "stateMutability": "nonpayable",
      "type": "constructor"
    },
    {
      "anonymous": false,
      "inputs": [
        {
          "indexed": true,
          "internalType": "uint256",
          "name": "id",
          "type": "uint256"
        },
        {
          "indexed": true,
          "internalType": "address",
          "name": "nftContract",
          "type": "address"
        },
        {
          "indexed": true,
          "internalType": "uint256",
          "name": "tokenId",
          "type": "uint256"
        },
        {
          "indexed": false,
          "internalType": "address",
          "name": "seller",
          "type": "address"
        },
        {
          "indexed": false,
          "internalType": "address",
          "name": "owner",
          "type": "address"
        },
        {
          "indexed": false,
          "internalType": "uint256",
          "name": "price",
          "type": "uint256"
        },
        {
          "indexed": false,
          "internalType": "bool",
          "name": "sold",
          "type": "bool"
        }
      ],
      "name": "AuctionItemCreated",
      "type": "event"
    },
    {
      "inputs": [
        {
          "internalType": "address",
          "name": "nftContract",
          "type": "address"
        },
        {
          "internalType": "uint256",
          "name": "id",
          "type": "uint256"
        }
      ],
      "name": "buyAuctionedItem",
      "outputs": [],
      "stateMutability": "payable",
      "type": "function"
    },
    {
      "inputs": [
        {
          "internalType": "uint256",
          "name": "tokenId",
          "type": "uint256"
        },
        {
          "internalType": "uint256",
          "name": "price",
          "type": "uint256"
        }
      ],
      "name": "changePrice",
      "outputs": [],
      "stateMutability": "nonpayable",
      "type": "function"
    },
    {
      "inputs": [
        {
          "internalType": "address",
          "name": "nftContract",
          "type": "address"
        },
        {
          "internalType": "uint256",
          "name": "tokenId",
          "type": "uint256"
        },
        {
          "internalType": "uint256",
          "name": "price",
          "type": "uint256"
        }
      ],
      "name": "createAuction",
      "outputs": [],
      "stateMutability": "payable",
      "type": "function"
    },
    {
      "inputs": [],
      "name": "getAllAuctions",
      "outputs": [
        {
          "components": [
            {
              "internalType": "uint256",
              "name": "id",
              "type": "uint256"
            },
            {
              "internalType": "address",
              "name": "nftContract",
              "type": "address"
            },
            {
              "internalType": "uint256",
              "name": "tokenId",
              "type": "uint256"
            },
            {
              "internalType": "address",
              "name": "seller",
              "type": "address"
            },
            {
              "internalType": "address",
              "name": "owner",
              "type": "address"
            },
            {
              "internalType": "uint256",
              "name": "price",
              "type": "uint256"
            },
            {
              "internalType": "bool",
              "name": "sold",
              "type": "bool"
            },
            {
              "internalType": "uint256",
              "name": "duration",
              "type": "uint256"
            }
          ],
          "internalType": "struct Auction.AuctionStruct[]",
          "name": "Auctions",
          "type": "tuple[]"
        }
      ],
      "stateMutability": "view",
      "type": "function"
    },
    {
      "inputs": [
        {
          "internalType": "uint256",
          "name": "id",
          "type": "uint256"
        }
      ],
      "name": "getAuction",
      "outputs": [
        {
          "components": [
            {
              "internalType": "uint256",
              "name": "id",
              "type": "uint256"
            },
            {
              "internalType": "address",
              "name": "nftContract",
              "type": "address"
            },
            {
              "internalType": "uint256",
              "name": "tokenId",
              "type": "uint256"
            },
            {
              "internalType": "address",
              "name": "seller",
              "type": "address"
            },
            {
              "internalType": "address",
              "name": "owner",
              "type": "address"
            },
            {
              "internalType": "uint256",
              "name": "price",
              "type": "uint256"
            },
            {
              "internalType": "bool",
              "name": "sold",
              "type": "bool"
            },
            {
              "internalType": "uint256",
              "name": "duration",
              "type": "uint256"
            }
          ],
          "internalType": "struct Auction.AuctionStruct",
          "name": "",
          "type": "tuple"
        }
      ],
      "stateMutability": "view",
      "type": "function"
    },
    {
      "inputs": [],
      "name": "getListingPrice",
      "outputs": [
        {
          "internalType": "uint256",
          "name": "",
          "type": "uint256"
        }
      ],
      "stateMutability": "view",
      "type": "function"
    },
    {
      "inputs": [],
      "name": "getMyAuctions",
      "outputs": [
        {
          "components": [
            {
              "internalType": "uint256",
              "name": "id",
              "type": "uint256"
            },
            {
              "internalType": "address",
              "name": "nftContract",
              "type": "address"
            },
            {
              "internalType": "uint256",
              "name": "tokenId",
              "type": "uint256"
            },
            {
              "internalType": "address",
              "name": "seller",
              "type": "address"
            },
            {
              "internalType": "address",
              "name": "owner",
              "type": "address"
            },
            {
              "internalType": "uint256",
              "name": "price",
              "type": "uint256"
            },
            {
              "internalType": "bool",
              "name": "sold",
              "type": "bool"
            },
            {
              "internalType": "uint256",
              "name": "duration",
              "type": "uint256"
            }
          ],
          "internalType": "struct Auction.AuctionStruct[]",
          "name": "Auctions",
          "type": "tuple[]"
        }
      ],
      "stateMutability": "view",
      "type": "function"
    },
    {
      "inputs": [],
      "name": "getOfferedAuctions",
      "outputs": [
        {
          "components": [
            {
              "internalType": "uint256",
              "name": "id",
              "type": "uint256"
            },
            {
              "internalType": "address",
              "name": "nftContract",
              "type": "address"
            },
            {
              "internalType": "uint256",
              "name": "tokenId",
              "type": "uint256"
            },
            {
              "internalType": "address",
              "name": "seller",
              "type": "address"
            },
            {
              "internalType": "address",
              "name": "owner",
              "type": "address"
            },
            {
              "internalType": "uint256",
              "name": "price",
              "type": "uint256"
            },
            {
              "internalType": "bool",
              "name": "sold",
              "type": "bool"
            },
            {
              "internalType": "uint256",
              "name": "duration",
              "type": "uint256"
            }
          ],
          "internalType": "struct Auction.AuctionStruct[]",
          "name": "Auctions",
          "type": "tuple[]"
        }
      ],
      "stateMutability": "view",
      "type": "function"
    },
    {
      "inputs": [],
      "name": "getSoldAuction",
      "outputs": [
        {
          "components": [
            {
              "internalType": "uint256",
              "name": "id",
              "type": "uint256"
            },
            {
              "internalType": "address",
              "name": "nftContract",
              "type": "address"
            },
            {
              "internalType": "uint256",
              "name": "tokenId",
              "type": "uint256"
            },
            {
              "internalType": "address",
              "name": "seller",
              "type": "address"
            },
            {
              "internalType": "address",
              "name": "owner",
              "type": "address"
            },
            {
              "internalType": "uint256",
              "name": "price",
              "type": "uint256"
            },
            {
              "internalType": "bool",
              "name": "sold",
              "type": "bool"
            },
            {
              "internalType": "uint256",
              "name": "duration",
              "type": "uint256"
            }
          ],
          "internalType": "struct Auction.AuctionStruct[]",
          "name": "Auctions",
          "type": "tuple[]"
        }
      ],
      "stateMutability": "view",
      "type": "function"
    },
    {
      "inputs": [],
      "name": "getUnsoldAuction",
      "outputs": [
        {
          "components": [
            {
              "internalType": "uint256",
              "name": "id",
              "type": "uint256"
            },
            {
              "internalType": "address",
              "name": "nftContract",
              "type": "address"
            },
            {
              "internalType": "uint256",
              "name": "tokenId",
              "type": "uint256"
            },
            {
              "internalType": "address",
              "name": "seller",
              "type": "address"
            },
            {
              "internalType": "address",
              "name": "owner",
              "type": "address"
            },
            {
              "internalType": "uint256",
              "name": "price",
              "type": "uint256"
            },
            {
              "internalType": "bool",
              "name": "sold",
              "type": "bool"
            },
            {
              "internalType": "uint256",
              "name": "duration",
              "type": "uint256"
            }
          ],
          "internalType": "struct Auction.AuctionStruct[]",
          "name": "Auctions",
          "type": "tuple[]"
        }
      ],
      "stateMutability": "view",
      "type": "function"
    },
    {
      "inputs": [
        {
          "internalType": "uint256",
          "name": "tokenId",
          "type": "uint256"
        },
        {
          "internalType": "uint256",
          "name": "period",
          "type": "uint256"
        }
      ],
      "name": "offerAuction",
      "outputs": [],
      "stateMutability": "nonpayable",
      "type": "function"
    },
    {
      "inputs": [
        {
          "internalType": "uint256",
          "name": "_price",
          "type": "uint256"
        }
      ],
      "name": "setListingPrice",
      "outputs": [],
      "stateMutability": "nonpayable",
      "type": "function"
    }
  ],
  "bytecode": "0x608060405266470de4df82000060045534801561001b57600080fd5b506001600055600380546001600160a01b0319163317905561143c806100426000396000f3fe6080604052600436106100a75760003560e01c80639e78efd6116100645780639e78efd614610175578063abb940511461018a578063b3de019c1461019d578063bf65a333146101bd578063cbd2bdfd146101d2578063e46694ae146101e757600080fd5b806312e85585146100ac5780631d8df68f146100cf57806347aa13f3146100f1578063763482e81461011357806378bd7935146101285780637c726b6914610155575b600080fd5b3480156100b857600080fd5b506004546040519081526020015b60405180910390f35b3480156100db57600080fd5b506100e46101fa565b6040516100c691906111bd565b3480156100fd57600080fd5b5061011161010c36600461120c565b61035c565b005b34801561011f57600080fd5b506100e4610443565b34801561013457600080fd5b5061014861014336600461122e565b61059b565b6040516100c69190611247565b34801561016157600080fd5b5061011161017036600461122e565b610681565b34801561018157600080fd5b506100e46106b0565b610111610198366004611278565b610819565b3480156101a957600080fd5b506101116101b836600461120c565b610acf565b3480156101c957600080fd5b506100e4610ba1565b3480156101de57600080fd5b506100e4610d14565b6101116101f53660046112ab565b610e44565b6060600061020760025490565b90508067ffffffffffffffff811115610222576102226112d5565b60405190808252806020026020018201604052801561025b57816020015b6102486110fb565b8152602001906001900390816102405790505b50915060005b600154811015610357576005600061027a836001611301565b815260208101919091526040016000206006015460ff161561034557600560006102a5836001611301565b815260208082019290925260409081016000208151610100810183528154815260018201546001600160a01b039081169482019490945260028201549281019290925260038101548316606083015260048101549092166080820152600582015460a0820152600682015460ff16151560c082015260079091015460e0820152835184908390811061033957610339611319565b60200260200101819052505b8061034f8161132f565b915050610261565b505090565b6000828152600560205260409020600301546001600160a01b0316331461039e5760405162461bcd60e51b81526004016103959061134a565b60405180910390fd5b60008281526005602052604090206006015460ff16156103d05760405162461bcd60e51b815260040161039590611377565b600081116104205760405162461bcd60e51b815260206004820152601e60248201527f44617973206d7573742062652067726561746572207468616e207a65726f00006044820152606401610395565b61042a81426113b9565b6000928352600560205260409092206007019190915550565b6060600061045060015490565b90508067ffffffffffffffff81111561046b5761046b6112d5565b6040519080825280602002602001820160405280156104a457816020015b6104916110fb565b8152602001906001900390816104895790505b50915060005b818110156103575742600560006104c2846001611301565b815260200190815260200160002060070154111561058957600560006104e9836001611301565b815260208082019290925260409081016000208151610100810183528154815260018201546001600160a01b039081169482019490945260028201549281019290925260038101548316606083015260048101549092166080820152600582015460a0820152600682015460ff16151560c082015260079091015460e0820152835184908390811061057d5761057d611319565b60200260200101819052505b806105938161132f565b9150506104aa565b6105a36110fb565b60008281526006602052604090205460ff166106015760405162461bcd60e51b815260206004820152601860248201527f41756374696f6e6564204974656d206e6f7420666f756e6400000000000000006044820152606401610395565b506000908152600560208181526040928390208351610100810185528154815260018201546001600160a01b0390811693820193909352600282015494810194909452600381015482166060850152600481015490911660808401529081015460a0830152600681015460ff16151560c08301526007015460e082015290565b6003546001600160a01b031633146106ab5760405162461bcd60e51b81526004016103959061134a565b600455565b606060006106bd60025490565b6001546106ca91906113d8565b90508067ffffffffffffffff8111156106e5576106e56112d5565b60405190808252806020026020018201604052801561071e57816020015b61070b6110fb565b8152602001906001900390816107035790505b50915060005b600154811015610357576005600061073d836001611301565b815260208101919091526040016000206006015460ff166108075760056000610767836001611301565b815260208082019290925260409081016000208151610100810183528154815260018201546001600160a01b039081169482019490945260028201549281019290925260038101548316606083015260048101549092166080820152600582015460a0820152600682015460ff16151560c082015260079091015460e082015283518490839081106107fb576107fb611319565b60200260200101819052505b806108118161132f565b915050610724565b610821611041565b600081116108845760405162461bcd60e51b815260206004820152602a60248201527f53616c6573207072696365206d7573742062652067726561746572207468616e60448201526910181032ba3432b9399760b11b6064820152608401610395565b6004543410156108e55760405162461bcd60e51b815260206004820152602660248201527f5072696365206d75737420626520757020746f20746865206c697374696e6720604482015265383934b1b29760d11b6064820152608401610395565b6108f3600180546001019055565b60006108fe60015490565b90506109086110fb565b8181526001600160a01b038086166020808401918252604080850188815260a08601888152336060880181815260008a815260058088528682208b51815598516001808b018054928d166001600160a01b0319938416179055965160028b0155925160038a018054918c1691851691909117905560808b015160048a01805491909b1693169290921790985591519186019190915560c08701516006808701805492151560ff1993841617905560e089015160079788015585528387208054909116909217909155845291905281208054916109e38361132f565b9091555050600354600454610a01916001600160a01b03169061109b565b6040516323b872dd60e01b8152336004820152306024820152604481018590526001600160a01b038616906323b872dd90606401600060405180830381600087803b158015610a4f57600080fd5b505af1158015610a63573d6000803e3d6000fd5b505060408051338152600060208201819052818301889052606082015290518793506001600160a01b038916925085917f12c5f090e1a3aab5e67d9a0af0fa3f08866d281fbcbfad9ce8512178786a39a3919081900360800190a45050610aca6001600055565b505050565b6000828152600560205260409020600301546001600160a01b03163314610b085760405162461bcd60e51b81526004016103959061134a565b60008281526005602052604090206006015460ff1615610b3a5760405162461bcd60e51b815260040161039590611377565b60008111610b8a5760405162461bcd60e51b815260206004820152601f60248201527f5072696365206d7573742062652067726561746572207468616e207a65726f006044820152606401610395565b600091825260056020819052604090922090910155565b60606000610bae60015490565b3360009081526007602052604090205490915067ffffffffffffffff811115610bd957610bd96112d5565b604051908082528060200260200182016040528015610c1257816020015b610bff6110fb565b815260200190600190039081610bf75790505b50915060005b81811015610357573360056000610c30846001611301565b81526020810191909152604001600020600301546001600160a01b03161415610d025760056000610c62836001611301565b815260208082019290925260409081016000208151610100810183528154815260018201546001600160a01b039081169482019490945260028201549281019290925260038101548316606083015260048101549092166080820152600582015460a0820152600682015460ff16151560c082015260079091015460e08201528351849083908110610cf657610cf6611319565b60200260200101819052505b80610d0c8161132f565b915050610c18565b60606000610d2160015490565b90508067ffffffffffffffff811115610d3c57610d3c6112d5565b604051908082528060200260200182016040528015610d7557816020015b610d626110fb565b815260200190600190039081610d5a5790505b50915060005b818110156103575760056000610d92836001611301565b815260208082019290925260409081016000208151610100810183528154815260018201546001600160a01b039081169482019490945260028201549281019290925260038101548316606083015260048101549092166080820152600582015460a0820152600682015460ff16151560c082015260079091015460e08201528351849083908110610e2657610e26611319565b60200260200101819052508080610e3c9061132f565b915050610d7b565b610e4c611041565b60008181526005602081905260409091200154341015610ea45760405162461bcd60e51b8152602060048201526013602482015272125b9cdd59999a58da595b9d08105b5bdd5b9d606a1b6044820152606401610395565b6000818152600560205260409020600701544210610efc5760405162461bcd60e51b815260206004820152601560248201527441756374696f6e206e6f7420617661696c61626c6560581b6044820152606401610395565b60008181526005602090815260408083206004810180546001600160a01b031916339081179091556006909101805460ff19166001179055835260079091528120805491610f498361132f565b90915550506000818152600560209081526040808320600301546001600160a01b0316835260079091528120805491610f81836113ef565b9190505550610f94600280546001019055565b600081815260056020526040902060030154610fb9906001600160a01b03163461109b565b600081815260056020526040908190206002015490516323b872dd60e01b815230600482015233602482015260448101919091526001600160a01b038316906323b872dd90606401600060405180830381600087803b15801561101b57600080fd5b505af115801561102f573d6000803e3d6000fd5b5050505061103d6001600055565b5050565b600260005414156110945760405162461bcd60e51b815260206004820152601f60248201527f5265656e7472616e637947756172643a207265656e7472616e742063616c6c006044820152606401610395565b6002600055565b6000826001600160a01b03168260405160006040518083038185875af1925050503d80600081146110e8576040519150601f19603f3d011682016040523d82523d6000602084013e6110ed565b606091505b5050905080610aca57600080fd5b6040518061010001604052806000815260200160006001600160a01b031681526020016000815260200160006001600160a01b0316815260200160006001600160a01b0316815260200160008152602001600015158152602001600081525090565b80518252602081015160018060a01b03808216602085015260408301516040850152806060840151166060850152806080840151166080850152505060a081015160a083015260c0810151151560c083015260e081015160e08301525050565b6020808252825182820181905260009190848201906040850190845b81811015611200576111ec83855161115d565b9284019261010092909201916001016111d9565b50909695505050505050565b6000806040838503121561121f57600080fd5b50508035926020909101359150565b60006020828403121561124057600080fd5b5035919050565b6101008101611256828461115d565b92915050565b80356001600160a01b038116811461127357600080fd5b919050565b60008060006060848603121561128d57600080fd5b6112968461125c565b95602085013595506040909401359392505050565b600080604083850312156112be57600080fd5b6112c78361125c565b946020939093013593505050565b634e487b7160e01b600052604160045260246000fd5b634e487b7160e01b600052601160045260246000fd5b60008219821115611314576113146112eb565b500190565b634e487b7160e01b600052603260045260246000fd5b6000600019821415611343576113436112eb565b5060010190565b602080825260139082015272556e617574686f72697a656420656e7469747960681b604082015260600190565b60208082526022908201527f4974656d20616c7265616479206f666665726564206f6e20746865206d61726b604082015261195d60f21b606082015260800190565b60008160001904831182151516156113d3576113d36112eb565b500290565b6000828210156113ea576113ea6112eb565b500390565b6000816113fe576113fe6112eb565b50600019019056fea26469706673582212203c7528049542cf97bf2c20414c24d88851c32272dfe71f3f329ca11c913db8b164736f6c634300080b0033",
  "linkReferences": {},
  "deployedLinkReferences": {}
}