{
  "_format": "hh-sol-artifact-1",
  "contractName": "Auction",
  "sourceName": "src/contracts/Auction.sol",
  "abi": [
    {
      "inputs": [
        {
          "internalType": "uint256",
          "name": "_royaltyFee",
          "type": "uint256"
        }
      ],
      "stateMutability": "nonpayable",
      "type": "constructor"
    },
    {
      "anonymous": false,
      "inputs": [
        {
          "indexed": true,
          "internalType": "address",
          "name": "owner",
          "type": "address"
        },
        {
          "indexed": true,
          "internalType": "address",
          "name": "approved",
          "type": "address"
        },
        {
          "indexed": true,
          "internalType": "uint256",
          "name": "tokenId",
          "type": "uint256"
        }
      ],
      "name": "Approval",
      "type": "event"
    },
    {
      "anonymous": false,
      "inputs": [
        {
          "indexed": true,
          "internalType": "address",
          "name": "owner",
          "type": "address"
        },
        {
          "indexed": true,
          "internalType": "address",
          "name": "operator",
          "type": "address"
        },
        {
          "indexed": false,
          "internalType": "bool",
          "name": "approved",
          "type": "bool"
        }
      ],
      "name": "ApprovalForAll",
      "type": "event"
    },
    {
      "anonymous": false,
      "inputs": [
        {
          "indexed": true,
          "internalType": "uint256",
          "name": "tokenId",
          "type": "uint256"
        },
        {
          "indexed": false,
          "internalType": "address",
          "name": "seller",
          "type": "address"
        },
        {
          "indexed": false,
          "internalType": "address",
          "name": "owner",
          "type": "address"
        },
        {
          "indexed": false,
          "internalType": "uint256",
          "name": "price",
          "type": "uint256"
        },
        {
          "indexed": false,
          "internalType": "bool",
          "name": "sold",
          "type": "bool"
        }
      ],
      "name": "AuctionItemCreated",
      "type": "event"
    },
    {
      "anonymous": false,
      "inputs": [
        {
          "indexed": true,
          "internalType": "address",
          "name": "from",
          "type": "address"
        },
        {
          "indexed": true,
          "internalType": "address",
          "name": "to",
          "type": "address"
        },
        {
          "indexed": true,
          "internalType": "uint256",
          "name": "tokenId",
          "type": "uint256"
        }
      ],
      "name": "Transfer",
      "type": "event"
    },
    {
      "inputs": [
        {
          "internalType": "address",
          "name": "to",
          "type": "address"
        },
        {
          "internalType": "uint256",
          "name": "tokenId",
          "type": "uint256"
        }
      ],
      "name": "approve",
      "outputs": [],
      "stateMutability": "nonpayable",
      "type": "function"
    },
    {
      "inputs": [
        {
          "internalType": "address",
          "name": "owner",
          "type": "address"
        }
      ],
      "name": "balanceOf",
      "outputs": [
        {
          "internalType": "uint256",
          "name": "",
          "type": "uint256"
        }
      ],
      "stateMutability": "view",
      "type": "function"
    },
    {
      "inputs": [
        {
          "internalType": "uint256",
          "name": "tokenId",
          "type": "uint256"
        }
      ],
      "name": "buyAuctionedItem",
      "outputs": [],
      "stateMutability": "payable",
      "type": "function"
    },
    {
      "inputs": [
        {
          "internalType": "uint256",
          "name": "tokenId",
          "type": "uint256"
        },
        {
          "internalType": "uint256",
          "name": "price",
          "type": "uint256"
        }
      ],
      "name": "changePrice",
      "outputs": [],
      "stateMutability": "nonpayable",
      "type": "function"
    },
    {
      "inputs": [
        {
          "internalType": "uint256",
          "name": "tokenId",
          "type": "uint256"
        },
        {
          "internalType": "uint256",
          "name": "bid",
          "type": "uint256"
        }
      ],
      "name": "claimPrize",
      "outputs": [],
      "stateMutability": "nonpayable",
      "type": "function"
    },
    {
      "inputs": [
        {
          "internalType": "string",
          "name": "name",
          "type": "string"
        },
        {
          "internalType": "string",
          "name": "description",
          "type": "string"
        },
        {
          "internalType": "string",
          "name": "image",
          "type": "string"
        },
        {
          "internalType": "string",
          "name": "tokenURI",
          "type": "string"
        },
        {
          "internalType": "uint256",
          "name": "price",
          "type": "uint256"
        }
      ],
      "name": "createAuction",
      "outputs": [],
      "stateMutability": "payable",
      "type": "function"
    },
    {
      "inputs": [],
      "name": "getAllAuctions",
      "outputs": [
        {
          "components": [
            {
              "internalType": "string",
              "name": "name",
              "type": "string"
            },
            {
              "internalType": "string",
              "name": "description",
              "type": "string"
            },
            {
              "internalType": "string",
              "name": "image",
              "type": "string"
            },
            {
              "internalType": "uint256",
              "name": "tokenId",
              "type": "uint256"
            },
            {
              "internalType": "address",
              "name": "seller",
              "type": "address"
            },
            {
              "internalType": "address",
              "name": "owner",
              "type": "address"
            },
            {
              "internalType": "address",
              "name": "winner",
              "type": "address"
            },
            {
              "internalType": "uint256",
              "name": "price",
              "type": "uint256"
            },
            {
              "internalType": "bool",
              "name": "sold",
              "type": "bool"
            },
            {
              "internalType": "bool",
              "name": "live",
              "type": "bool"
            },
            {
              "internalType": "bool",
              "name": "biddable",
              "type": "bool"
            },
            {
              "internalType": "uint256",
              "name": "bids",
              "type": "uint256"
            },
            {
              "internalType": "uint256",
              "name": "duration",
              "type": "uint256"
            }
          ],
          "internalType": "struct Auction.AuctionStruct[]",
          "name": "Auctions",
          "type": "tuple[]"
        }
      ],
      "stateMutability": "view",
      "type": "function"
    },
    {
      "inputs": [
        {
          "internalType": "uint256",
          "name": "tokenId",
          "type": "uint256"
        }
      ],
      "name": "getApproved",
      "outputs": [
        {
          "internalType": "address",
          "name": "",
          "type": "address"
        }
      ],
      "stateMutability": "view",
      "type": "function"
    },
    {
      "inputs": [
        {
          "internalType": "uint256",
          "name": "id",
          "type": "uint256"
        }
      ],
      "name": "getAuction",
      "outputs": [
        {
          "components": [
            {
              "internalType": "string",
              "name": "name",
              "type": "string"
            },
            {
              "internalType": "string",
              "name": "description",
              "type": "string"
            },
            {
              "internalType": "string",
              "name": "image",
              "type": "string"
            },
            {
              "internalType": "uint256",
              "name": "tokenId",
              "type": "uint256"
            },
            {
              "internalType": "address",
              "name": "seller",
              "type": "address"
            },
            {
              "internalType": "address",
              "name": "owner",
              "type": "address"
            },
            {
              "internalType": "address",
              "name": "winner",
              "type": "address"
            },
            {
              "internalType": "uint256",
              "name": "price",
              "type": "uint256"
            },
            {
              "internalType": "bool",
              "name": "sold",
              "type": "bool"
            },
            {
              "internalType": "bool",
              "name": "live",
              "type": "bool"
            },
            {
              "internalType": "bool",
              "name": "biddable",
              "type": "bool"
            },
            {
              "internalType": "uint256",
              "name": "bids",
              "type": "uint256"
            },
            {
              "internalType": "uint256",
              "name": "duration",
              "type": "uint256"
            }
          ],
          "internalType": "struct Auction.AuctionStruct",
          "name": "",
          "type": "tuple"
        }
      ],
      "stateMutability": "view",
      "type": "function"
    },
    {
      "inputs": [
        {
          "internalType": "uint256",
          "name": "tokenId",
          "type": "uint256"
        }
      ],
      "name": "getBidders",
      "outputs": [
        {
          "components": [
            {
              "internalType": "address",
              "name": "bidder",
              "type": "address"
            },
            {
              "internalType": "uint256",
              "name": "price",
              "type": "uint256"
            },
            {
              "internalType": "uint256",
              "name": "timestamp",
              "type": "uint256"
            },
            {
              "internalType": "bool",
              "name": "refunded",
              "type": "bool"
            },
            {
              "internalType": "bool",
              "name": "won",
              "type": "bool"
            }
          ],
          "internalType": "struct Auction.BidderStruct[]",
          "name": "",
          "type": "tuple[]"
        }
      ],
      "stateMutability": "view",
      "type": "function"
    },
    {
      "inputs": [],
      "name": "getListingPrice",
      "outputs": [
        {
          "internalType": "uint256",
          "name": "",
          "type": "uint256"
        }
      ],
      "stateMutability": "view",
      "type": "function"
    },
    {
      "inputs": [],
      "name": "getLiveAuctions",
      "outputs": [
        {
          "components": [
            {
              "internalType": "string",
              "name": "name",
              "type": "string"
            },
            {
              "internalType": "string",
              "name": "description",
              "type": "string"
            },
            {
              "internalType": "string",
              "name": "image",
              "type": "string"
            },
            {
              "internalType": "uint256",
              "name": "tokenId",
              "type": "uint256"
            },
            {
              "internalType": "address",
              "name": "seller",
              "type": "address"
            },
            {
              "internalType": "address",
              "name": "owner",
              "type": "address"
            },
            {
              "internalType": "address",
              "name": "winner",
              "type": "address"
            },
            {
              "internalType": "uint256",
              "name": "price",
              "type": "uint256"
            },
            {
              "internalType": "bool",
              "name": "sold",
              "type": "bool"
            },
            {
              "internalType": "bool",
              "name": "live",
              "type": "bool"
            },
            {
              "internalType": "bool",
              "name": "biddable",
              "type": "bool"
            },
            {
              "internalType": "uint256",
              "name": "bids",
              "type": "uint256"
            },
            {
              "internalType": "uint256",
              "name": "duration",
              "type": "uint256"
            }
          ],
          "internalType": "struct Auction.AuctionStruct[]",
          "name": "Auctions",
          "type": "tuple[]"
        }
      ],
      "stateMutability": "view",
      "type": "function"
    },
    {
      "inputs": [],
      "name": "getMyAuctions",
      "outputs": [
        {
          "components": [
            {
              "internalType": "string",
              "name": "name",
              "type": "string"
            },
            {
              "internalType": "string",
              "name": "description",
              "type": "string"
            },
            {
              "internalType": "string",
              "name": "image",
              "type": "string"
            },
            {
              "internalType": "uint256",
              "name": "tokenId",
              "type": "uint256"
            },
            {
              "internalType": "address",
              "name": "seller",
              "type": "address"
            },
            {
              "internalType": "address",
              "name": "owner",
              "type": "address"
            },
            {
              "internalType": "address",
              "name": "winner",
              "type": "address"
            },
            {
              "internalType": "uint256",
              "name": "price",
              "type": "uint256"
            },
            {
              "internalType": "bool",
              "name": "sold",
              "type": "bool"
            },
            {
              "internalType": "bool",
              "name": "live",
              "type": "bool"
            },
            {
              "internalType": "bool",
              "name": "biddable",
              "type": "bool"
            },
            {
              "internalType": "uint256",
              "name": "bids",
              "type": "uint256"
            },
            {
              "internalType": "uint256",
              "name": "duration",
              "type": "uint256"
            }
          ],
          "internalType": "struct Auction.AuctionStruct[]",
          "name": "Auctions",
          "type": "tuple[]"
        }
      ],
      "stateMutability": "view",
      "type": "function"
    },
    {
      "inputs": [],
      "name": "getSoldAuction",
      "outputs": [
        {
          "components": [
            {
              "internalType": "string",
              "name": "name",
              "type": "string"
            },
            {
              "internalType": "string",
              "name": "description",
              "type": "string"
            },
            {
              "internalType": "string",
              "name": "image",
              "type": "string"
            },
            {
              "internalType": "uint256",
              "name": "tokenId",
              "type": "uint256"
            },
            {
              "internalType": "address",
              "name": "seller",
              "type": "address"
            },
            {
              "internalType": "address",
              "name": "owner",
              "type": "address"
            },
            {
              "internalType": "address",
              "name": "winner",
              "type": "address"
            },
            {
              "internalType": "uint256",
              "name": "price",
              "type": "uint256"
            },
            {
              "internalType": "bool",
              "name": "sold",
              "type": "bool"
            },
            {
              "internalType": "bool",
              "name": "live",
              "type": "bool"
            },
            {
              "internalType": "bool",
              "name": "biddable",
              "type": "bool"
            },
            {
              "internalType": "uint256",
              "name": "bids",
              "type": "uint256"
            },
            {
              "internalType": "uint256",
              "name": "duration",
              "type": "uint256"
            }
          ],
          "internalType": "struct Auction.AuctionStruct[]",
          "name": "Auctions",
          "type": "tuple[]"
        }
      ],
      "stateMutability": "view",
      "type": "function"
    },
    {
      "inputs": [],
      "name": "getUnsoldAuction",
      "outputs": [
        {
          "components": [
            {
              "internalType": "string",
              "name": "name",
              "type": "string"
            },
            {
              "internalType": "string",
              "name": "description",
              "type": "string"
            },
            {
              "internalType": "string",
              "name": "image",
              "type": "string"
            },
            {
              "internalType": "uint256",
              "name": "tokenId",
              "type": "uint256"
            },
            {
              "internalType": "address",
              "name": "seller",
              "type": "address"
            },
            {
              "internalType": "address",
              "name": "owner",
              "type": "address"
            },
            {
              "internalType": "address",
              "name": "winner",
              "type": "address"
            },
            {
              "internalType": "uint256",
              "name": "price",
              "type": "uint256"
            },
            {
              "internalType": "bool",
              "name": "sold",
              "type": "bool"
            },
            {
              "internalType": "bool",
              "name": "live",
              "type": "bool"
            },
            {
              "internalType": "bool",
              "name": "biddable",
              "type": "bool"
            },
            {
              "internalType": "uint256",
              "name": "bids",
              "type": "uint256"
            },
            {
              "internalType": "uint256",
              "name": "duration",
              "type": "uint256"
            }
          ],
          "internalType": "struct Auction.AuctionStruct[]",
          "name": "Auctions",
          "type": "tuple[]"
        }
      ],
      "stateMutability": "view",
      "type": "function"
    },
    {
      "inputs": [
        {
          "internalType": "address",
          "name": "owner",
          "type": "address"
        },
        {
          "internalType": "address",
          "name": "operator",
          "type": "address"
        }
      ],
      "name": "isApprovedForAll",
      "outputs": [
        {
          "internalType": "bool",
          "name": "",
          "type": "bool"
        }
      ],
      "stateMutability": "view",
      "type": "function"
    },
    {
      "inputs": [],
      "name": "name",
      "outputs": [
        {
          "internalType": "string",
          "name": "",
          "type": "string"
        }
      ],
      "stateMutability": "view",
      "type": "function"
    },
    {
      "inputs": [
        {
          "internalType": "uint256",
          "name": "tokenId",
          "type": "uint256"
        },
        {
          "internalType": "bool",
          "name": "biddable",
          "type": "bool"
        },
        {
          "internalType": "uint256",
          "name": "sec",
          "type": "uint256"
        },
        {
          "internalType": "uint256",
          "name": "min",
          "type": "uint256"
        },
        {
          "internalType": "uint256",
          "name": "hour",
          "type": "uint256"
        },
        {
          "internalType": "uint256",
          "name": "day",
          "type": "uint256"
        }
      ],
      "name": "offerAuction",
      "outputs": [],
      "stateMutability": "nonpayable",
      "type": "function"
    },
    {
      "inputs": [
        {
          "internalType": "uint256",
          "name": "tokenId",
          "type": "uint256"
        }
      ],
      "name": "ownerOf",
      "outputs": [
        {
          "internalType": "address",
          "name": "",
          "type": "address"
        }
      ],
      "stateMutability": "view",
      "type": "function"
    },
    {
      "inputs": [
        {
          "internalType": "uint256",
          "name": "tokenId",
          "type": "uint256"
        }
      ],
      "name": "placeBid",
      "outputs": [],
      "stateMutability": "payable",
      "type": "function"
    },
    {
      "inputs": [
        {
          "internalType": "address",
          "name": "from",
          "type": "address"
        },
        {
          "internalType": "address",
          "name": "to",
          "type": "address"
        },
        {
          "internalType": "uint256",
          "name": "tokenId",
          "type": "uint256"
        }
      ],
      "name": "safeTransferFrom",
      "outputs": [],
      "stateMutability": "nonpayable",
      "type": "function"
    },
    {
      "inputs": [
        {
          "internalType": "address",
          "name": "from",
          "type": "address"
        },
        {
          "internalType": "address",
          "name": "to",
          "type": "address"
        },
        {
          "internalType": "uint256",
          "name": "tokenId",
          "type": "uint256"
        },
        {
          "internalType": "bytes",
          "name": "data",
          "type": "bytes"
        }
      ],
      "name": "safeTransferFrom",
      "outputs": [],
      "stateMutability": "nonpayable",
      "type": "function"
    },
    {
      "inputs": [
        {
          "internalType": "address",
          "name": "operator",
          "type": "address"
        },
        {
          "internalType": "bool",
          "name": "approved",
          "type": "bool"
        }
      ],
      "name": "setApprovalForAll",
      "outputs": [],
      "stateMutability": "nonpayable",
      "type": "function"
    },
    {
      "inputs": [
        {
          "internalType": "uint256",
          "name": "_price",
          "type": "uint256"
        }
      ],
      "name": "setListingPrice",
      "outputs": [],
      "stateMutability": "nonpayable",
      "type": "function"
    },
    {
      "inputs": [
        {
          "internalType": "bytes4",
          "name": "interfaceId",
          "type": "bytes4"
        }
      ],
      "name": "supportsInterface",
      "outputs": [
        {
          "internalType": "bool",
          "name": "",
          "type": "bool"
        }
      ],
      "stateMutability": "view",
      "type": "function"
    },
    {
      "inputs": [],
      "name": "symbol",
      "outputs": [
        {
          "internalType": "string",
          "name": "",
          "type": "string"
        }
      ],
      "stateMutability": "view",
      "type": "function"
    },
    {
      "inputs": [
        {
          "internalType": "uint256",
          "name": "tokenId",
          "type": "uint256"
        }
      ],
      "name": "tokenURI",
      "outputs": [
        {
          "internalType": "string",
          "name": "",
          "type": "string"
        }
      ],
      "stateMutability": "view",
      "type": "function"
    },
    {
      "inputs": [
        {
          "internalType": "address",
          "name": "from",
          "type": "address"
        },
        {
          "internalType": "address",
          "name": "to",
          "type": "address"
        },
        {
          "internalType": "uint256",
          "name": "tokenId",
          "type": "uint256"
        }
      ],
      "name": "transferFrom",
      "outputs": [],
      "stateMutability": "nonpayable",
      "type": "function"
    }
  ],
  "bytecode": "0x608060405266470de4df820000600a553480156200001c57600080fd5b5060405162004433380380620044338339810160408190526200003f9162000170565b604080518082018252600f81526e44616c746f6e696320546f6b656e7360881b60208083019182528351808501909452600384526211105560ea1b9084015281519192916200009191600091620000ca565b508051620000a7906001906020840190620000ca565b5050600160075550600980546001600160a01b03191633179055600b55620001c7565b828054620000d8906200018a565b90600052602060002090601f016020900481019282620000fc576000855562000147565b82601f106200011757805160ff191683800117855562000147565b8280016001018555821562000147579182015b82811115620001475782518255916020019190600101906200012a565b506200015592915062000159565b5090565b5b808211156200015557600081556001016200015a565b6000602082840312156200018357600080fd5b5051919050565b600181811c908216806200019f57607f821691505b60208210811415620001c157634e487b7160e01b600052602260045260246000fd5b50919050565b61425c80620001d76000396000f3fe6080604052600436106101b75760003560e01c80637c726b69116100ec578063b88d4fde1161008a578063cbd2bdfd11610064578063cbd2bdfd146104cd578063db0bd5c9146104e2578063e985e9c5146104f7578063f5a06acf1461054057600080fd5b8063b88d4fde14610478578063bf65a33314610498578063c87b56dd146104ad57600080fd5b80639e78efd6116100c65780639e78efd614610403578063a22cb46514610418578063a923f18c14610438578063b3de019c1461045857600080fd5b80637c726b69146103bb57806395d89b41146103db5780639979ef45146103f057600080fd5b806333748dcb116101595780636352211e116101335780636352211e1461032e57806370a082311461034e57806378bd79351461036e5780637b1541401461039b57600080fd5b806333748dcb146102ce57806342842e0e146102e15780634fa7b5071461030157600080fd5b8063095ea7b311610195578063095ea7b31461024b57806312e855851461026d5780631d8df68f1461028c57806323b872dd146102ae57600080fd5b806301ffc9a7146101bc57806306fdde03146101f1578063081812fc14610213575b600080fd5b3480156101c857600080fd5b506101dc6101d73660046139b2565b610553565b60405190151581526020015b60405180910390f35b3480156101fd57600080fd5b506102066105a5565b6040516101e89190613a27565b34801561021f57600080fd5b5061023361022e366004613a3a565b610637565b6040516001600160a01b0390911681526020016101e8565b34801561025757600080fd5b5061026b610266366004613a6f565b61065e565b005b34801561027957600080fd5b50600a545b6040519081526020016101e8565b34801561029857600080fd5b506102a1610779565b6040516101e89190613b99565b3480156102ba57600080fd5b5061026b6102c9366004613bfb565b610b17565b61026b6102dc366004613ce3565b610b48565b3480156102ed57600080fd5b5061026b6102fc366004613bfb565b610e64565b34801561030d57600080fd5b5061032161031c366004613a3a565b610e7f565b6040516101e89190613d98565b34801561033a57600080fd5b50610233610349366004613a3a565b610f31565b34801561035a57600080fd5b5061027e610369366004613e13565b610f91565b34801561037a57600080fd5b5061038e610389366004613a3a565b611017565b6040516101e89190613e2e565b3480156103a757600080fd5b5061026b6103b6366004613e41565b6112d7565b3480156103c757600080fd5b5061026b6103d6366004613a3a565b61150f565b3480156103e757600080fd5b5061020661153e565b61026b6103fe366004613a3a565b61154d565b34801561040f57600080fd5b506102a161177e565b34801561042457600080fd5b5061026b610433366004613e73565b611b13565b34801561044457600080fd5b5061026b610453366004613ea6565b611b22565b34801561046457600080fd5b5061026b610473366004613e41565b611c9d565b34801561048457600080fd5b5061026b610493366004613ef4565b611e0f565b3480156104a457600080fd5b506102a1611e47565b3480156104b957600080fd5b506102066104c8366004613a3a565b6121ee565b3480156104d957600080fd5b506102a16122ff565b3480156104ee57600080fd5b506102a1612609565b34801561050357600080fd5b506101dc610512366004613f70565b6001600160a01b03918216600090815260056020908152604080832093909416825291909152205460ff1690565b61026b61054e366004613a3a565b6129b4565b60006001600160e01b031982166380ac58cd60e01b148061058457506001600160e01b03198216635b5e139f60e01b145b8061059f57506301ffc9a760e01b6001600160e01b03198316145b92915050565b6060600080546105b490613f9a565b80601f01602080910402602001604051908101604052809291908181526020018280546105e090613f9a565b801561062d5780601f106106025761010080835404028352916020019161062d565b820191906000526020600020905b81548152906001019060200180831161061057829003601f168201915b5050505050905090565b600061064282612bfe565b506000908152600460205260409020546001600160a01b031690565b600061066982610f31565b9050806001600160a01b0316836001600160a01b031614156106dc5760405162461bcd60e51b815260206004820152602160248201527f4552433732313a20617070726f76616c20746f2063757272656e74206f776e656044820152603960f91b60648201526084015b60405180910390fd5b336001600160a01b03821614806106f857506106f88133610512565b61076a5760405162461bcd60e51b815260206004820152603d60248201527f4552433732313a20617070726f76652063616c6c6572206973206e6f7420746f60448201527f6b656e206f776e6572206f7220617070726f76656420666f7220616c6c00000060648201526084016106d3565b6107748383612c5d565b505050565b6060600061078660085490565b90506000805b828110156107df57600c60006107a3836001613feb565b815260208101919091526040016000206008015460ff16156107cd57816107c981614003565b9250505b806107d781614003565b91505061078c565b508067ffffffffffffffff8111156107f9576107f9613c37565b60405190808252806020026020018201604052801561083257816020015b61081f61387a565b8152602001906001900390816108175790505b5092506000805b83811015610b1057600c6000610850836001613feb565b815260208101919091526040016000206008015460ff1615610afe57600c600061087b836001613feb565b8152602001908152602001600020604051806101a00160405290816000820180546108a590613f9a565b80601f01602080910402602001604051908101604052809291908181526020018280546108d190613f9a565b801561091e5780601f106108f35761010080835404028352916020019161091e565b820191906000526020600020905b81548152906001019060200180831161090157829003601f168201915b5050505050815260200160018201805461093790613f9a565b80601f016020809104026020016040519081016040528092919081815260200182805461096390613f9a565b80156109b05780601f10610985576101008083540402835291602001916109b0565b820191906000526020600020905b81548152906001019060200180831161099357829003601f168201915b505050505081526020016002820180546109c990613f9a565b80601f01602080910402602001604051908101604052809291908181526020018280546109f590613f9a565b8015610a425780601f10610a1757610100808354040283529160200191610a42565b820191906000526020600020905b815481529060010190602001808311610a2557829003601f168201915b50505091835250506003820154602082015260048201546001600160a01b0390811660408301526005830154811660608301526006830154166080820152600782015460a0820152600882015460ff808216151560c08401526101008083048216151560e085015262010000909204161515908201526009820154610120820152600a90910154610140909101528551869084908110610ae457610ae461401e565b60200260200101819052508180610afa90614003565b9250505b80610b0881614003565b915050610839565b5050505090565b610b213382612ccb565b610b3d5760405162461bcd60e51b81526004016106d390614034565b610774838383612d49565b610b50612eba565b60008111610bb35760405162461bcd60e51b815260206004820152602a60248201527f53616c6573207072696365206d7573742062652067726561746572207468616e60448201526910181032ba3432b9399760b11b60648201526084016106d3565b600a54341015610c145760405162461bcd60e51b815260206004820152602660248201527f5072696365206d75737420626520757020746f20746865206c697374696e6720604482015265383934b1b29760d11b60648201526084016106d3565b610c1d82612f14565b610c605760405162461bcd60e51b815260206004820152601460248201527321b7bab632103737ba1036b4b73a103a37b5b2b760611b60448201526064016106d3565b6000610c6b60085490565b9050610c7561387a565b60608101829052868152602081018690526040810185905260e08101839052610ca16000808080612f4e565b610180820152336080820181905260a08201526000828152600c60209081526040909120825180518493610cd9928492910190613903565b506020828101518051610cf29260018501920190613903565b5060408201518051610d0e916002840191602090910190613903565b506060820151600382015560808201516004820180546001600160a01b03199081166001600160a01b039384161790915560a0840151600584018054831691841691909117905560c084015160068401805490921690831617905560e083015160078301556101008084015160088401805461012087015161014088015161ffff1990921693151561ff001916939093179215159093029190911762ff00001916620100009215159290920291909117905561016083015160098084019190915561018090930151600a928301556000858152600d60205260409020805460ff1916600117905591549054610e07929190911690612fb0565b604080513381526000602082018190528183018690526060820152905183917fa693a8f68fe4df789541ddd1b84d32ccaea90adddcc88406b4bbbf6466328d3c919081900360800190a25050610e5d6001600755565b5050505050565b61077483838360405180602001604052806000815250611e0f565b6060600f6000838152602001908152602001600020805480602002602001604051908101604052809291908181526020016000905b82821015610f265760008481526020908190206040805160a0810182526004860290920180546001600160a01b03168352600180820154848601526002820154928401929092526003015460ff8082161515606085015261010090910416151560808301529083529092019101610eb4565b505050509050919050565b6000818152600260205260408120546001600160a01b03168061059f5760405162461bcd60e51b8152602060048201526018602482015277115490cdcc8c4e881a5b9d985b1a59081d1bdad95b88125160421b60448201526064016106d3565b60006001600160a01b038216610ffb5760405162461bcd60e51b815260206004820152602960248201527f4552433732313a2061646472657373207a65726f206973206e6f7420612076616044820152683634b21037bbb732b960b91b60648201526084016106d3565b506001600160a01b031660009081526003602052604090205490565b61101f61387a565b6000828152600d602052604090205460ff1661107d5760405162461bcd60e51b815260206004820152601860248201527f41756374696f6e6564204974656d206e6f7420666f756e64000000000000000060448201526064016106d3565b6000828152600c60205260409081902081516101a081019092528054829082906110a690613f9a565b80601f01602080910402602001604051908101604052809291908181526020018280546110d290613f9a565b801561111f5780601f106110f45761010080835404028352916020019161111f565b820191906000526020600020905b81548152906001019060200180831161110257829003601f168201915b5050505050815260200160018201805461113890613f9a565b80601f016020809104026020016040519081016040528092919081815260200182805461116490613f9a565b80156111b15780601f10611186576101008083540402835291602001916111b1565b820191906000526020600020905b81548152906001019060200180831161119457829003601f168201915b505050505081526020016002820180546111ca90613f9a565b80601f01602080910402602001604051908101604052809291908181526020018280546111f690613f9a565b80156112435780601f1061121857610100808354040283529160200191611243565b820191906000526020600020905b81548152906001019060200180831161122657829003601f168201915b50505091835250506003820154602082015260048201546001600160a01b0390811660408301526005830154811660608301526006830154166080820152600782015460a0820152600882015460ff808216151560c08401526101008083048216151560e085015262010000909204161515908201526009820154610120820152600a909101546101409091015292915050565b6000828152600c60205260408120600a0154906112f690808080612f4e565b116113435760405162461bcd60e51b815260206004820152601760248201527f41756374696f6e207374696c6c20617661696c61626c6500000000000000000060448201526064016106d3565b6000828152600c60205260409020600601546001600160a01b031633146113a55760405162461bcd60e51b81526020600482015260166024820152752cb7ba9030b932903737ba103a3432903bb4b73732b960511b60448201526064016106d3565b6000828152600f60205260409020805460019190839081106113c9576113c961401e565b60009182526020808320600360049384029091010180549415156101000261ff001990951694909417909355848252600c909252604081206007810154928101546006820180546001600160a01b03199081169091556005830180549091163317905560088201805461ffff1916600117905560099091018290556001600160a01b03169061145a90808080612f4e565b6000858152600c60205260408120600a0191909155600b5460649061147f9085614081565b61148991906140a0565b905061149e8261149983866140c2565b612fb0565b6114a88282612fb0565b6040516323b872dd60e01b8152306004820181905233602483015260448201879052906323b872dd90606401600060405180830381600087803b1580156114ee57600080fd5b505af1158015611502573d6000803e3d6000fd5b50505050610e5d85613010565b6009546001600160a01b031633146115395760405162461bcd60e51b81526004016106d3906140d9565b600a55565b6060600180546105b490613f9a565b6000818152600c60205260409020600701543410156115a45760405162461bcd60e51b8152602060048201526013602482015272125b9cdd59999a58da595b9d08105b5bdd5b9d606a1b60448201526064016106d3565b6115b2600080600080612f4e565b6000828152600c60205260409020600a0154116116095760405162461bcd60e51b815260206004820152601560248201527441756374696f6e206e6f7420617661696c61626c6560581b60448201526064016106d3565b6000818152600c602052604090206008015462010000900460ff166116705760405162461bcd60e51b815260206004820152601860248201527f41756374696f6e206f6e6c7920666f722062696464696e67000000000000000060448201526064016106d3565b6040805160a08101825260009181018290526060810182905260808101829052338152346020820152906116a690808080612f4e565b60408083019182526000848152600f6020908152828220805460018181018355918452828420875160049092020180546001600160a01b039092166001600160a01b0319909216919091178155828701519181019190915593516002850155606085015160039094018054608087015115156101000261ff00199615159690961661ffff199091161794909417909355848152600c909252812060090180549161174f83614003565b9091555050506000908152600c6020526040902034600782015560060180546001600160a01b03191633179055565b6060600061178b60085490565b90506000805b828110156117e357600c60006117a8836001613feb565b815260208101919091526040016000206008015460ff166117d157816117cd81614003565b9250505b806117db81614003565b915050611791565b508067ffffffffffffffff8111156117fd576117fd613c37565b60405190808252806020026020018201604052801561183657816020015b61182361387a565b81526020019060019003908161181b5790505b5092506000805b83811015610b1057600c6000611854836001613feb565b815260208101919091526040016000206008015460ff16611b0157600c600061187e836001613feb565b8152602001908152602001600020604051806101a00160405290816000820180546118a890613f9a565b80601f01602080910402602001604051908101604052809291908181526020018280546118d490613f9a565b80156119215780601f106118f657610100808354040283529160200191611921565b820191906000526020600020905b81548152906001019060200180831161190457829003601f168201915b5050505050815260200160018201805461193a90613f9a565b80601f016020809104026020016040519081016040528092919081815260200182805461196690613f9a565b80156119b35780601f10611988576101008083540402835291602001916119b3565b820191906000526020600020905b81548152906001019060200180831161199657829003601f168201915b505050505081526020016002820180546119cc90613f9a565b80601f01602080910402602001604051908101604052809291908181526020018280546119f890613f9a565b8015611a455780601f10611a1a57610100808354040283529160200191611a45565b820191906000526020600020905b815481529060010190602001808311611a2857829003601f168201915b50505091835250506003820154602082015260048201546001600160a01b0390811660408301526005830154811660608301526006830154166080820152600782015460a0820152600882015460ff808216151560c08401526101008083048216151560e085015262010000909204161515908201526009820154610120820152600a90910154610140909101528551869084908110611ae757611ae761401e565b60200260200101819052508180611afd90614003565b9250505b80611b0b81614003565b91505061183d565b611b1e3383836131d9565b5050565b6000868152600c60205260409020600501546001600160a01b03163314611b5b5760405162461bcd60e51b81526004016106d3906140d9565b6000868152600c602052604090206009015415611bba5760405162461bcd60e51b815260206004820152601f60248201527f57696e6e65722073686f756c6420636c61696d207072697a652066697273740060448201526064016106d3565b6000868152600c6020526040902060080154610100900460ff16611c4257611be3306001611b13565b6040516323b872dd60e01b8152336004820152306024820181905260448201889052906323b872dd90606401600060405180830381600087803b158015611c2957600080fd5b505af1158015611c3d573d6000803e3d6000fd5b505050505b6000868152600c6020526040812060098101919091556008018054861515620100000262ffffff1990911617610100179055611c8084848484612f4e565b6000968752600c6020526040909620600a01959095555050505050565b6000828152600c60205260409020600401546001600160a01b03163314611cd65760405162461bcd60e51b81526004016106d3906140d9565b6000828152600c602052604090206008015460ff1615611d435760405162461bcd60e51b815260206004820152602260248201527f4974656d20616c7265616479206f666665726564206f6e20746865206d61726b604482015261195d60f21b60648201526084016106d3565b6000828152600c6020526040902060080154610100900460ff1615611daa5760405162461bcd60e51b815260206004820152601a60248201527f4974656d206973206c697665206f6e20746865206d61726b657400000000000060448201526064016106d3565b60008111611dfa5760405162461bcd60e51b815260206004820152601f60248201527f5072696365206d7573742062652067726561746572207468616e207a65726f0060448201526064016106d3565b6000918252600c602052604090912060070155565b611e193383612ccb565b611e355760405162461bcd60e51b81526004016106d390614034565b611e41848484846132a8565b50505050565b60606000611e5460085490565b90506000805b82811015611eb55733600c6000611e72846001613feb565b81526020810191909152604001600020600501546001600160a01b03161415611ea35781611e9f81614003565b9250505b80611ead81614003565b915050611e5a565b508067ffffffffffffffff811115611ecf57611ecf613c37565b604051908082528060200260200182016040528015611f0857816020015b611ef561387a565b815260200190600190039081611eed5790505b5092506000805b83811015610b105733600c6000611f27846001613feb565b81526020810191909152604001600020600501546001600160a01b031614156121dc57600c6000611f59836001613feb565b8152602001908152602001600020604051806101a0016040529081600082018054611f8390613f9a565b80601f0160208091040260200160405190810160405280929190818152602001828054611faf90613f9a565b8015611ffc5780601f10611fd157610100808354040283529160200191611ffc565b820191906000526020600020905b815481529060010190602001808311611fdf57829003601f168201915b5050505050815260200160018201805461201590613f9a565b80601f016020809104026020016040519081016040528092919081815260200182805461204190613f9a565b801561208e5780601f106120635761010080835404028352916020019161208e565b820191906000526020600020905b81548152906001019060200180831161207157829003601f168201915b505050505081526020016002820180546120a790613f9a565b80601f01602080910402602001604051908101604052809291908181526020018280546120d390613f9a565b80156121205780601f106120f557610100808354040283529160200191612120565b820191906000526020600020905b81548152906001019060200180831161210357829003601f168201915b50505091835250506003820154602082015260048201546001600160a01b0390811660408301526005830154811660608301526006830154166080820152600782015460a0820152600882015460ff808216151560c08401526101008083048216151560e085015262010000909204161515908201526009820154610120820152600a909101546101409091015285518690849081106121c2576121c261401e565b602002602001018190525081806121d890614003565b9250505b806121e681614003565b915050611f0f565b60606121f982612bfe565b6000828152600660205260408120805461221290613f9a565b80601f016020809104026020016040519081016040528092919081815260200182805461223e90613f9a565b801561228b5780601f106122605761010080835404028352916020019161228b565b820191906000526020600020905b81548152906001019060200180831161226e57829003601f168201915b5050505050905060006122a960408051602081019091526000815290565b90508051600014156122bc575092915050565b8151156122ee5780826040516020016122d6929190614106565b60405160208183030381529060405292505050919050565b6122f7846132db565b949350505050565b6060600061230c60085490565b90508067ffffffffffffffff81111561232757612327613c37565b60405190808252806020026020018201604052801561236057816020015b61234d61387a565b8152602001906001900390816123455790505b50915060005b8181101561260457600c600061237d836001613feb565b8152602001908152602001600020604051806101a00160405290816000820180546123a790613f9a565b80601f01602080910402602001604051908101604052809291908181526020018280546123d390613f9a565b80156124205780601f106123f557610100808354040283529160200191612420565b820191906000526020600020905b81548152906001019060200180831161240357829003601f168201915b5050505050815260200160018201805461243990613f9a565b80601f016020809104026020016040519081016040528092919081815260200182805461246590613f9a565b80156124b25780601f10612487576101008083540402835291602001916124b2565b820191906000526020600020905b81548152906001019060200180831161249557829003601f168201915b505050505081526020016002820180546124cb90613f9a565b80601f01602080910402602001604051908101604052809291908181526020018280546124f790613f9a565b80156125445780601f1061251957610100808354040283529160200191612544565b820191906000526020600020905b81548152906001019060200180831161252757829003601f168201915b50505091835250506003820154602082015260048201546001600160a01b0390811660408301526005830154811660608301526006830154166080820152600782015460a0820152600882015460ff808216151560c08401526101008083048216151560e085015262010000909204161515908201526009820154610120820152600a909101546101409091015283518490839081106125e6576125e661401e565b602002602001018190525080806125fc90614003565b915050612366565b505090565b6060600061261660085490565b90506000805b8281101561267957612632600080600080612f4e565b600c6000612641846001613feb565b8152602001908152602001600020600a01541115612667578161266381614003565b9250505b8061267181614003565b91505061261c565b508067ffffffffffffffff81111561269357612693613c37565b6040519080825280602002602001820160405280156126cc57816020015b6126b961387a565b8152602001906001900390816126b15790505b5092506000805b83811015610b10576126e9600080600080612f4e565b600c60006126f8846001613feb565b8152602001908152602001600020600a015411156129a257600c600061271f836001613feb565b8152602001908152602001600020604051806101a001604052908160008201805461274990613f9a565b80601f016020809104026020016040519081016040528092919081815260200182805461277590613f9a565b80156127c25780601f10612797576101008083540402835291602001916127c2565b820191906000526020600020905b8154815290600101906020018083116127a557829003601f168201915b505050505081526020016001820180546127db90613f9a565b80601f016020809104026020016040519081016040528092919081815260200182805461280790613f9a565b80156128545780601f1061282957610100808354040283529160200191612854565b820191906000526020600020905b81548152906001019060200180831161283757829003601f168201915b5050505050815260200160028201805461286d90613f9a565b80601f016020809104026020016040519081016040528092919081815260200182805461289990613f9a565b80156128e65780601f106128bb576101008083540402835291602001916128e6565b820191906000526020600020905b8154815290600101906020018083116128c957829003601f168201915b50505091835250506003820154602082015260048201546001600160a01b0390811660408301526005830154811660608301526006830154166080820152600782015460a0820152600882015460ff808216151560c08401526101008083048216151560e085015262010000909204161515908201526009820154610120820152600a909101546101409091015285518690849081106129885761298861401e565b6020026020010181905250818061299e90614003565b9250505b806129ac81614003565b9150506126d3565b6129bc612eba565b6000818152600c6020526040902060070154341015612a135760405162461bcd60e51b8152602060048201526013602482015272125b9cdd59999a58da595b9d08105b5bdd5b9d606a1b60448201526064016106d3565b612a21600080600080612f4e565b6000828152600c60205260409020600a015411612a785760405162461bcd60e51b815260206004820152601560248201527441756374696f6e206e6f7420617661696c61626c6560581b60448201526064016106d3565b6000818152600c602052604090206008015462010000900460ff1615612ae05760405162461bcd60e51b815260206004820152601960248201527f41756374696f6e206f6e6c7920666f722070757263686173650000000000000060448201526064016106d3565b6000818152600c6020526040812060048101546005820180546001600160a01b0319163317905560088201805461ffff1916600117905560099091018290556001600160a01b031690612b3590808080612f4e565b6000838152600c60205260408120600a0191909155600b54606490612b5a9034614081565b612b6491906140a0565b9050612b748261149983346140c2565b612b7e8282612fb0565b6000838152600c6020526040908190206003015490516323b872dd60e01b8152306004820181905233602483015260448201929092526323b872dd90606401600060405180830381600087803b158015612bd757600080fd5b505af1158015612beb573d6000803e3d6000fd5b505050505050612bfb6001600755565b50565b6000818152600260205260409020546001600160a01b0316612bfb5760405162461bcd60e51b8152602060048201526018602482015277115490cdcc8c4e881a5b9d985b1a59081d1bdad95b88125160421b60448201526064016106d3565b600081815260046020526040902080546001600160a01b0319166001600160a01b0384169081179091558190612c9282610f31565b6001600160a01b03167f8c5be1e5ebec7d5bd14f71427d1e84f3dd0314c0f7b2291e5b200ac8c7c3b92560405160405180910390a45050565b600080612cd783610f31565b9050806001600160a01b0316846001600160a01b03161480612d1e57506001600160a01b0380821660009081526005602090815260408083209388168352929052205460ff165b806122f75750836001600160a01b0316612d3784610637565b6001600160a01b031614949350505050565b826001600160a01b0316612d5c82610f31565b6001600160a01b031614612d825760405162461bcd60e51b81526004016106d390614135565b6001600160a01b038216612de45760405162461bcd60e51b8152602060048201526024808201527f4552433732313a207472616e7366657220746f20746865207a65726f206164646044820152637265737360e01b60648201526084016106d3565b612df1838383600161334f565b826001600160a01b0316612e0482610f31565b6001600160a01b031614612e2a5760405162461bcd60e51b81526004016106d390614135565b600081815260046020908152604080832080546001600160a01b03199081169091556001600160a01b0387811680865260038552838620805460001901905590871680865283862080546001019055868652600290945282852080549092168417909155905184937fddf252ad1be2c89b69c2b068fc378daa952ba7f163c4a11628f55a4df523b3ef91a4505050565b60026007541415612f0d5760405162461bcd60e51b815260206004820152601f60248201527f5265656e7472616e637947756172643a207265656e7472616e742063616c6c0060448201526064016106d3565b6002600755565b6000612f24600880546001019055565b6000612f2f60085490565b9050612f3b33826133d7565b612f458184613570565b50600192915050565b6000612f5d8262015180614081565b612f6984610e10614081565b612f7486603c614081565b612f7f886001614081565b612f899042613feb565b612f939190613feb565b612f9d9190613feb565b612fa79190613feb565b95945050505050565b6000826001600160a01b03168260405160006040518083038185875af1925050503d8060008114612ffd576040519150601f19603f3d011682016040523d82523d6000602084013e613002565b606091505b505090508061077457600080fd5b60005b6000828152600f6020526040902054811015611b1e576000828152600f6020526040902080543391908390811061304c5761304c61401e565b60009182526020909120600490910201546001600160a01b031614613138576000828152600f602052604090208054600191908390811061308f5761308f61401e565b906000526020600020906004020160030160006101000a81548160ff021916908315150217905550613133600f600084815260200190815260200160002082815481106130de576130de61401e565b60009182526020808320600490920290910154858352600f909152604090912080546001600160a01b03909216918490811061311c5761311c61401e565b906000526020600020906004020160010154612fb0565b613185565b6000828152600f602052604090208054600191908390811061315c5761315c61401e565b906000526020600020906004020160030160016101000a81548160ff0219169083151502179055505b613193600080600080612f4e565b6000838152600f602052604090208054839081106131b3576131b361401e565b6000918252602090912060026004909202010155806131d181614003565b915050613013565b816001600160a01b0316836001600160a01b0316141561323b5760405162461bcd60e51b815260206004820152601960248201527f4552433732313a20617070726f766520746f2063616c6c65720000000000000060448201526064016106d3565b6001600160a01b03838116600081815260056020908152604080832094871680845294825291829020805460ff191686151590811790915591519182527f17307eab39ab6107e8899845ad3d59bd9653f200f220920489ca2b5937696c31910160405180910390a3505050565b6132b3848484612d49565b6132bf8484848461360a565b611e415760405162461bcd60e51b81526004016106d39061417a565b60606132e682612bfe565b60006132fd60408051602081019091526000815290565b9050600081511161331d5760405180602001604052806000815250613348565b8061332784613705565b604051602001613338929190614106565b6040516020818303038152906040525b9392505050565b6001811115611e41576001600160a01b03841615613395576001600160a01b0384166000908152600360205260408120805483929061338f9084906140c2565b90915550505b6001600160a01b03831615611e41576001600160a01b038316600090815260036020526040812080548392906133cc908490613feb565b909155505050505050565b6001600160a01b03821661342d5760405162461bcd60e51b815260206004820181905260248201527f4552433732313a206d696e7420746f20746865207a65726f206164647265737360448201526064016106d3565b6000818152600260205260409020546001600160a01b0316156134925760405162461bcd60e51b815260206004820152601c60248201527f4552433732313a20746f6b656e20616c7265616479206d696e7465640000000060448201526064016106d3565b6134a060008383600161334f565b6000818152600260205260409020546001600160a01b0316156135055760405162461bcd60e51b815260206004820152601c60248201527f4552433732313a20746f6b656e20616c7265616479206d696e7465640000000060448201526064016106d3565b6001600160a01b038216600081815260036020908152604080832080546001019055848352600290915280822080546001600160a01b0319168417905551839291907fddf252ad1be2c89b69c2b068fc378daa952ba7f163c4a11628f55a4df523b3ef908290a45050565b6000828152600260205260409020546001600160a01b03166135eb5760405162461bcd60e51b815260206004820152602e60248201527f45524337323155524953746f726167653a2055524920736574206f66206e6f6e60448201526d32bc34b9ba32b73a103a37b5b2b760911b60648201526084016106d3565b6000828152600660209081526040909120825161077492840190613903565b60006001600160a01b0384163b156136fd57604051630a85bd0160e11b81526001600160a01b0385169063150b7a029061364e9033908990889088906004016141cc565b6020604051808303816000875af1925050508015613689575060408051601f3d908101601f1916820190925261368691810190614209565b60015b6136e3573d8080156136b7576040519150601f19603f3d011682016040523d82523d6000602084013e6136bc565b606091505b5080516136db5760405162461bcd60e51b81526004016106d39061417a565b805181602001fd5b6001600160e01b031916630a85bd0160e11b1490506122f7565b5060016122f7565b60606000613712836137a2565b600101905060008167ffffffffffffffff81111561373257613732613c37565b6040519080825280601f01601f19166020018201604052801561375c576020820181803683370190505b5090508181016020015b600019016f181899199a1a9b1b9c1cb0b131b232b360811b600a86061a8153600a85049450846137955761379a565b613766565b509392505050565b60008072184f03e93ff9f4daa797ed6e38ed64bf6a1f0160401b83106137e15772184f03e93ff9f4daa797ed6e38ed64bf6a1f0160401b830492506040015b6d04ee2d6d415b85acef8100000000831061380d576d04ee2d6d415b85acef8100000000830492506020015b662386f26fc10000831061382b57662386f26fc10000830492506010015b6305f5e1008310613843576305f5e100830492506008015b612710831061385757612710830492506004015b60648310613869576064830492506002015b600a831061059f5760010192915050565b604051806101a001604052806060815260200160608152602001606081526020016000815260200160006001600160a01b0316815260200160006001600160a01b0316815260200160006001600160a01b031681526020016000815260200160001515815260200160001515815260200160001515815260200160008152602001600081525090565b82805461390f90613f9a565b90600052602060002090601f0160209004810192826139315760008555613977565b82601f1061394a57805160ff1916838001178555613977565b82800160010185558215613977579182015b8281111561397757825182559160200191906001019061395c565b50613983929150613987565b5090565b5b808211156139835760008155600101613988565b6001600160e01b031981168114612bfb57600080fd5b6000602082840312156139c457600080fd5b81356133488161399c565b60005b838110156139ea5781810151838201526020016139d2565b83811115611e415750506000910152565b60008151808452613a138160208601602086016139cf565b601f01601f19169290920160200192915050565b60208152600061334860208301846139fb565b600060208284031215613a4c57600080fd5b5035919050565b80356001600160a01b0381168114613a6a57600080fd5b919050565b60008060408385031215613a8257600080fd5b613a8b83613a53565b946020939093013593505050565b60006101a08251818552613aaf828601826139fb565b91505060208301518482036020860152613ac982826139fb565b91505060408301518482036040860152613ae382826139fb565b915050606083015160608501526080830151613b0a60808601826001600160a01b03169052565b5060a0830151613b2560a08601826001600160a01b03169052565b5060c0830151613b4060c08601826001600160a01b03169052565b5060e083015160e085015261010080840151613b5f8287018215159052565b5050610120838101511515908501526101408084015115159085015261016080840151908501526101809283015192909301919091525090565b6000602080830181845280855180835260408601915060408160051b870101925083870160005b82811015613bee57603f19888603018452613bdc858351613a99565b94509285019290850190600101613bc0565b5092979650505050505050565b600080600060608486031215613c1057600080fd5b613c1984613a53565b9250613c2760208501613a53565b9150604084013590509250925092565b634e487b7160e01b600052604160045260246000fd5b600067ffffffffffffffff80841115613c6857613c68613c37565b604051601f8501601f19908116603f01168101908282118183101715613c9057613c90613c37565b81604052809350858152868686011115613ca957600080fd5b858560208301376000602087830101525050509392505050565b600082601f830112613cd457600080fd5b61334883833560208501613c4d565b600080600080600060a08688031215613cfb57600080fd5b853567ffffffffffffffff80821115613d1357600080fd5b613d1f89838a01613cc3565b96506020880135915080821115613d3557600080fd5b613d4189838a01613cc3565b95506040880135915080821115613d5757600080fd5b613d6389838a01613cc3565b94506060880135915080821115613d7957600080fd5b50613d8688828901613cc3565b95989497509295608001359392505050565b602080825282518282018190526000919060409081850190868401855b82811015613e0657815180516001600160a01b031685528681015187860152858101518686015260608082015115159086015260809081015115159085015260a09093019290850190600101613db5565b5091979650505050505050565b600060208284031215613e2557600080fd5b61334882613a53565b6020815260006133486020830184613a99565b60008060408385031215613e5457600080fd5b50508035926020909101359150565b80358015158114613a6a57600080fd5b60008060408385031215613e8657600080fd5b613e8f83613a53565b9150613e9d60208401613e63565b90509250929050565b60008060008060008060c08789031215613ebf57600080fd5b86359550613ecf60208801613e63565b95989597505050506040840135936060810135936080820135935060a0909101359150565b60008060008060808587031215613f0a57600080fd5b613f1385613a53565b9350613f2160208601613a53565b925060408501359150606085013567ffffffffffffffff811115613f4457600080fd5b8501601f81018713613f5557600080fd5b613f6487823560208401613c4d565b91505092959194509250565b60008060408385031215613f8357600080fd5b613f8c83613a53565b9150613e9d60208401613a53565b600181811c90821680613fae57607f821691505b60208210811415613fcf57634e487b7160e01b600052602260045260246000fd5b50919050565b634e487b7160e01b600052601160045260246000fd5b60008219821115613ffe57613ffe613fd5565b500190565b600060001982141561401757614017613fd5565b5060010190565b634e487b7160e01b600052603260045260246000fd5b6020808252602d908201527f4552433732313a2063616c6c6572206973206e6f7420746f6b656e206f776e6560408201526c1c881bdc88185c1c1c9bdd9959609a1b606082015260800190565b600081600019048311821515161561409b5761409b613fd5565b500290565b6000826140bd57634e487b7160e01b600052601260045260246000fd5b500490565b6000828210156140d4576140d4613fd5565b500390565b602080825260139082015272556e617574686f72697a656420656e7469747960681b604082015260600190565b600083516141188184602088016139cf565b83519083019061412c8183602088016139cf565b01949350505050565b60208082526025908201527f4552433732313a207472616e736665722066726f6d20696e636f72726563742060408201526437bbb732b960d91b606082015260800190565b60208082526032908201527f4552433732313a207472616e7366657220746f206e6f6e20455243373231526560408201527131b2b4bb32b91034b6b83632b6b2b73a32b960711b606082015260800190565b6001600160a01b03858116825284166020820152604081018390526080606082018190526000906141ff908301846139fb565b9695505050505050565b60006020828403121561421b57600080fd5b81516133488161399c56fea26469706673582212202f2abe2d8574e4be5e8747fa87d739f5834907feeb2958ff9628561cfc386cc164736f6c634300080b0033",
  "linkReferences": {},
  "deployedLinkReferences": {}
}