{
  "_format": "hh-sol-artifact-1",
  "contractName": "Auction",
  "sourceName": "src/contracts/Auction.sol",
  "abi": [
    {
      "inputs": [
        {
          "internalType": "uint256",
          "name": "_royaltyFee",
          "type": "uint256"
        }
      ],
      "stateMutability": "nonpayable",
      "type": "constructor"
    },
    {
      "anonymous": false,
      "inputs": [
        {
          "indexed": true,
          "internalType": "address",
          "name": "owner",
          "type": "address"
        },
        {
          "indexed": true,
          "internalType": "address",
          "name": "approved",
          "type": "address"
        },
        {
          "indexed": true,
          "internalType": "uint256",
          "name": "tokenId",
          "type": "uint256"
        }
      ],
      "name": "Approval",
      "type": "event"
    },
    {
      "anonymous": false,
      "inputs": [
        {
          "indexed": true,
          "internalType": "address",
          "name": "owner",
          "type": "address"
        },
        {
          "indexed": true,
          "internalType": "address",
          "name": "operator",
          "type": "address"
        },
        {
          "indexed": false,
          "internalType": "bool",
          "name": "approved",
          "type": "bool"
        }
      ],
      "name": "ApprovalForAll",
      "type": "event"
    },
    {
      "anonymous": false,
      "inputs": [
        {
          "indexed": true,
          "internalType": "uint256",
          "name": "tokenId",
          "type": "uint256"
        },
        {
          "indexed": false,
          "internalType": "address",
          "name": "seller",
          "type": "address"
        },
        {
          "indexed": false,
          "internalType": "address",
          "name": "owner",
          "type": "address"
        },
        {
          "indexed": false,
          "internalType": "uint256",
          "name": "price",
          "type": "uint256"
        },
        {
          "indexed": false,
          "internalType": "bool",
          "name": "sold",
          "type": "bool"
        }
      ],
      "name": "AuctionItemCreated",
      "type": "event"
    },
    {
      "anonymous": false,
      "inputs": [
        {
          "indexed": true,
          "internalType": "address",
          "name": "from",
          "type": "address"
        },
        {
          "indexed": true,
          "internalType": "address",
          "name": "to",
          "type": "address"
        },
        {
          "indexed": true,
          "internalType": "uint256",
          "name": "tokenId",
          "type": "uint256"
        }
      ],
      "name": "Transfer",
      "type": "event"
    },
    {
      "inputs": [
        {
          "internalType": "address",
          "name": "to",
          "type": "address"
        },
        {
          "internalType": "uint256",
          "name": "tokenId",
          "type": "uint256"
        }
      ],
      "name": "approve",
      "outputs": [],
      "stateMutability": "nonpayable",
      "type": "function"
    },
    {
      "inputs": [
        {
          "internalType": "address",
          "name": "owner",
          "type": "address"
        }
      ],
      "name": "balanceOf",
      "outputs": [
        {
          "internalType": "uint256",
          "name": "",
          "type": "uint256"
        }
      ],
      "stateMutability": "view",
      "type": "function"
    },
    {
      "inputs": [
        {
          "internalType": "uint256",
          "name": "tokenId",
          "type": "uint256"
        }
      ],
      "name": "buyAuctionedItem",
      "outputs": [],
      "stateMutability": "payable",
      "type": "function"
    },
    {
      "inputs": [
        {
          "internalType": "uint256",
          "name": "tokenId",
          "type": "uint256"
        },
        {
          "internalType": "uint256",
          "name": "price",
          "type": "uint256"
        }
      ],
      "name": "changePrice",
      "outputs": [],
      "stateMutability": "nonpayable",
      "type": "function"
    },
    {
      "inputs": [
        {
          "internalType": "string",
          "name": "name",
          "type": "string"
        },
        {
          "internalType": "string",
          "name": "description",
          "type": "string"
        },
        {
          "internalType": "string",
          "name": "image",
          "type": "string"
        },
        {
          "internalType": "string",
          "name": "tokenURI",
          "type": "string"
        },
        {
          "internalType": "uint256",
          "name": "price",
          "type": "uint256"
        }
      ],
      "name": "createAuction",
      "outputs": [],
      "stateMutability": "payable",
      "type": "function"
    },
    {
      "inputs": [],
      "name": "getAllAuctions",
      "outputs": [
        {
          "components": [
            {
              "internalType": "string",
              "name": "name",
              "type": "string"
            },
            {
              "internalType": "string",
              "name": "description",
              "type": "string"
            },
            {
              "internalType": "string",
              "name": "image",
              "type": "string"
            },
            {
              "internalType": "uint256",
              "name": "tokenId",
              "type": "uint256"
            },
            {
              "internalType": "address",
              "name": "seller",
              "type": "address"
            },
            {
              "internalType": "address",
              "name": "owner",
              "type": "address"
            },
            {
              "internalType": "uint256",
              "name": "price",
              "type": "uint256"
            },
            {
              "internalType": "bool",
              "name": "sold",
              "type": "bool"
            },
            {
              "internalType": "bool",
              "name": "live",
              "type": "bool"
            },
            {
              "internalType": "uint256",
              "name": "duration",
              "type": "uint256"
            }
          ],
          "internalType": "struct Auction.AuctionStruct[]",
          "name": "Auctions",
          "type": "tuple[]"
        }
      ],
      "stateMutability": "view",
      "type": "function"
    },
    {
      "inputs": [
        {
          "internalType": "uint256",
          "name": "tokenId",
          "type": "uint256"
        }
      ],
      "name": "getApproved",
      "outputs": [
        {
          "internalType": "address",
          "name": "",
          "type": "address"
        }
      ],
      "stateMutability": "view",
      "type": "function"
    },
    {
      "inputs": [
        {
          "internalType": "uint256",
          "name": "id",
          "type": "uint256"
        }
      ],
      "name": "getAuction",
      "outputs": [
        {
          "components": [
            {
              "internalType": "string",
              "name": "name",
              "type": "string"
            },
            {
              "internalType": "string",
              "name": "description",
              "type": "string"
            },
            {
              "internalType": "string",
              "name": "image",
              "type": "string"
            },
            {
              "internalType": "uint256",
              "name": "tokenId",
              "type": "uint256"
            },
            {
              "internalType": "address",
              "name": "seller",
              "type": "address"
            },
            {
              "internalType": "address",
              "name": "owner",
              "type": "address"
            },
            {
              "internalType": "uint256",
              "name": "price",
              "type": "uint256"
            },
            {
              "internalType": "bool",
              "name": "sold",
              "type": "bool"
            },
            {
              "internalType": "bool",
              "name": "live",
              "type": "bool"
            },
            {
              "internalType": "uint256",
              "name": "duration",
              "type": "uint256"
            }
          ],
          "internalType": "struct Auction.AuctionStruct",
          "name": "",
          "type": "tuple"
        }
      ],
      "stateMutability": "view",
      "type": "function"
    },
    {
      "inputs": [],
      "name": "getListingPrice",
      "outputs": [
        {
          "internalType": "uint256",
          "name": "",
          "type": "uint256"
        }
      ],
      "stateMutability": "view",
      "type": "function"
    },
    {
      "inputs": [],
      "name": "getLiveAuctions",
      "outputs": [
        {
          "components": [
            {
              "internalType": "string",
              "name": "name",
              "type": "string"
            },
            {
              "internalType": "string",
              "name": "description",
              "type": "string"
            },
            {
              "internalType": "string",
              "name": "image",
              "type": "string"
            },
            {
              "internalType": "uint256",
              "name": "tokenId",
              "type": "uint256"
            },
            {
              "internalType": "address",
              "name": "seller",
              "type": "address"
            },
            {
              "internalType": "address",
              "name": "owner",
              "type": "address"
            },
            {
              "internalType": "uint256",
              "name": "price",
              "type": "uint256"
            },
            {
              "internalType": "bool",
              "name": "sold",
              "type": "bool"
            },
            {
              "internalType": "bool",
              "name": "live",
              "type": "bool"
            },
            {
              "internalType": "uint256",
              "name": "duration",
              "type": "uint256"
            }
          ],
          "internalType": "struct Auction.AuctionStruct[]",
          "name": "Auctions",
          "type": "tuple[]"
        }
      ],
      "stateMutability": "view",
      "type": "function"
    },
    {
      "inputs": [],
      "name": "getMyAuctions",
      "outputs": [
        {
          "components": [
            {
              "internalType": "string",
              "name": "name",
              "type": "string"
            },
            {
              "internalType": "string",
              "name": "description",
              "type": "string"
            },
            {
              "internalType": "string",
              "name": "image",
              "type": "string"
            },
            {
              "internalType": "uint256",
              "name": "tokenId",
              "type": "uint256"
            },
            {
              "internalType": "address",
              "name": "seller",
              "type": "address"
            },
            {
              "internalType": "address",
              "name": "owner",
              "type": "address"
            },
            {
              "internalType": "uint256",
              "name": "price",
              "type": "uint256"
            },
            {
              "internalType": "bool",
              "name": "sold",
              "type": "bool"
            },
            {
              "internalType": "bool",
              "name": "live",
              "type": "bool"
            },
            {
              "internalType": "uint256",
              "name": "duration",
              "type": "uint256"
            }
          ],
          "internalType": "struct Auction.AuctionStruct[]",
          "name": "Auctions",
          "type": "tuple[]"
        }
      ],
      "stateMutability": "view",
      "type": "function"
    },
    {
      "inputs": [],
      "name": "getSoldAuction",
      "outputs": [
        {
          "components": [
            {
              "internalType": "string",
              "name": "name",
              "type": "string"
            },
            {
              "internalType": "string",
              "name": "description",
              "type": "string"
            },
            {
              "internalType": "string",
              "name": "image",
              "type": "string"
            },
            {
              "internalType": "uint256",
              "name": "tokenId",
              "type": "uint256"
            },
            {
              "internalType": "address",
              "name": "seller",
              "type": "address"
            },
            {
              "internalType": "address",
              "name": "owner",
              "type": "address"
            },
            {
              "internalType": "uint256",
              "name": "price",
              "type": "uint256"
            },
            {
              "internalType": "bool",
              "name": "sold",
              "type": "bool"
            },
            {
              "internalType": "bool",
              "name": "live",
              "type": "bool"
            },
            {
              "internalType": "uint256",
              "name": "duration",
              "type": "uint256"
            }
          ],
          "internalType": "struct Auction.AuctionStruct[]",
          "name": "Auctions",
          "type": "tuple[]"
        }
      ],
      "stateMutability": "view",
      "type": "function"
    },
    {
      "inputs": [],
      "name": "getUnsoldAuction",
      "outputs": [
        {
          "components": [
            {
              "internalType": "string",
              "name": "name",
              "type": "string"
            },
            {
              "internalType": "string",
              "name": "description",
              "type": "string"
            },
            {
              "internalType": "string",
              "name": "image",
              "type": "string"
            },
            {
              "internalType": "uint256",
              "name": "tokenId",
              "type": "uint256"
            },
            {
              "internalType": "address",
              "name": "seller",
              "type": "address"
            },
            {
              "internalType": "address",
              "name": "owner",
              "type": "address"
            },
            {
              "internalType": "uint256",
              "name": "price",
              "type": "uint256"
            },
            {
              "internalType": "bool",
              "name": "sold",
              "type": "bool"
            },
            {
              "internalType": "bool",
              "name": "live",
              "type": "bool"
            },
            {
              "internalType": "uint256",
              "name": "duration",
              "type": "uint256"
            }
          ],
          "internalType": "struct Auction.AuctionStruct[]",
          "name": "Auctions",
          "type": "tuple[]"
        }
      ],
      "stateMutability": "view",
      "type": "function"
    },
    {
      "inputs": [
        {
          "internalType": "address",
          "name": "owner",
          "type": "address"
        },
        {
          "internalType": "address",
          "name": "operator",
          "type": "address"
        }
      ],
      "name": "isApprovedForAll",
      "outputs": [
        {
          "internalType": "bool",
          "name": "",
          "type": "bool"
        }
      ],
      "stateMutability": "view",
      "type": "function"
    },
    {
      "inputs": [],
      "name": "name",
      "outputs": [
        {
          "internalType": "string",
          "name": "",
          "type": "string"
        }
      ],
      "stateMutability": "view",
      "type": "function"
    },
    {
      "inputs": [
        {
          "internalType": "uint256",
          "name": "tokenId",
          "type": "uint256"
        },
        {
          "internalType": "uint256",
          "name": "period",
          "type": "uint256"
        }
      ],
      "name": "offerAuction",
      "outputs": [],
      "stateMutability": "nonpayable",
      "type": "function"
    },
    {
      "inputs": [
        {
          "internalType": "uint256",
          "name": "tokenId",
          "type": "uint256"
        }
      ],
      "name": "ownerOf",
      "outputs": [
        {
          "internalType": "address",
          "name": "",
          "type": "address"
        }
      ],
      "stateMutability": "view",
      "type": "function"
    },
    {
      "inputs": [
        {
          "internalType": "address",
          "name": "from",
          "type": "address"
        },
        {
          "internalType": "address",
          "name": "to",
          "type": "address"
        },
        {
          "internalType": "uint256",
          "name": "tokenId",
          "type": "uint256"
        }
      ],
      "name": "safeTransferFrom",
      "outputs": [],
      "stateMutability": "nonpayable",
      "type": "function"
    },
    {
      "inputs": [
        {
          "internalType": "address",
          "name": "from",
          "type": "address"
        },
        {
          "internalType": "address",
          "name": "to",
          "type": "address"
        },
        {
          "internalType": "uint256",
          "name": "tokenId",
          "type": "uint256"
        },
        {
          "internalType": "bytes",
          "name": "data",
          "type": "bytes"
        }
      ],
      "name": "safeTransferFrom",
      "outputs": [],
      "stateMutability": "nonpayable",
      "type": "function"
    },
    {
      "inputs": [
        {
          "internalType": "address",
          "name": "operator",
          "type": "address"
        },
        {
          "internalType": "bool",
          "name": "approved",
          "type": "bool"
        }
      ],
      "name": "setApprovalForAll",
      "outputs": [],
      "stateMutability": "nonpayable",
      "type": "function"
    },
    {
      "inputs": [
        {
          "internalType": "uint256",
          "name": "_price",
          "type": "uint256"
        }
      ],
      "name": "setListingPrice",
      "outputs": [],
      "stateMutability": "nonpayable",
      "type": "function"
    },
    {
      "inputs": [
        {
          "internalType": "bytes4",
          "name": "interfaceId",
          "type": "bytes4"
        }
      ],
      "name": "supportsInterface",
      "outputs": [
        {
          "internalType": "bool",
          "name": "",
          "type": "bool"
        }
      ],
      "stateMutability": "view",
      "type": "function"
    },
    {
      "inputs": [],
      "name": "symbol",
      "outputs": [
        {
          "internalType": "string",
          "name": "",
          "type": "string"
        }
      ],
      "stateMutability": "view",
      "type": "function"
    },
    {
      "inputs": [
        {
          "internalType": "uint256",
          "name": "tokenId",
          "type": "uint256"
        }
      ],
      "name": "tokenURI",
      "outputs": [
        {
          "internalType": "string",
          "name": "",
          "type": "string"
        }
      ],
      "stateMutability": "view",
      "type": "function"
    },
    {
      "inputs": [
        {
          "internalType": "address",
          "name": "from",
          "type": "address"
        },
        {
          "internalType": "address",
          "name": "to",
          "type": "address"
        },
        {
          "internalType": "uint256",
          "name": "tokenId",
          "type": "uint256"
        }
      ],
      "name": "transferFrom",
      "outputs": [],
      "stateMutability": "nonpayable",
      "type": "function"
    }
  ],
  "bytecode": "0x608060405266470de4df820000600b553480156200001c57600080fd5b5060405162003a5838038062003a588339810160408190526200003f9162000170565b604080518082018252600f81526e44616c746f6e696320546f6b656e7360881b60208083019182528351808501909452600384526211105560ea1b9084015281519192916200009191600091620000ca565b508051620000a7906001906020840190620000ca565b5050600160075550600a80546001600160a01b03191633179055600c55620001c7565b828054620000d8906200018a565b90600052602060002090601f016020900481019282620000fc576000855562000147565b82601f106200011757805160ff191683800117855562000147565b8280016001018555821562000147579182015b82811115620001475782518255916020019190600101906200012a565b506200015592915062000159565b5090565b5b808211156200015557600081556001016200015a565b6000602082840312156200018357600080fd5b5051919050565b600181811c908216806200019f57607f821691505b60208210811415620001c157634e487b7160e01b600052602260045260246000fd5b50919050565b61388180620001d76000396000f3fe6080604052600436106101665760003560e01c806378bd7935116100d1578063b88d4fde1161008a578063cbd2bdfd11610064578063cbd2bdfd1461041c578063db0bd5c914610431578063e985e9c514610446578063f5a06acf1461048f57600080fd5b8063b88d4fde146103c7578063bf65a333146103e7578063c87b56dd146103fc57600080fd5b806378bd7935146103105780637c726b691461033d57806395d89b411461035d5780639e78efd614610372578063a22cb46514610387578063b3de019c146103a757600080fd5b806323b872dd1161012357806323b872dd1461025d57806333748dcb1461027d57806342842e0e1461029057806347aa13f3146102b05780636352211e146102d057806370a08231146102f057600080fd5b806301ffc9a71461016b57806306fdde03146101a0578063081812fc146101c2578063095ea7b3146101fa57806312e855851461021c5780631d8df68f1461023b575b600080fd5b34801561017757600080fd5b5061018b6101863660046130bc565b6104a2565b60405190151581526020015b60405180910390f35b3480156101ac57600080fd5b506101b56104f4565b6040516101979190613131565b3480156101ce57600080fd5b506101e26101dd366004613144565b610586565b6040516001600160a01b039091168152602001610197565b34801561020657600080fd5b5061021a610215366004613179565b6105ad565b005b34801561022857600080fd5b50600b545b604051908152602001610197565b34801561024757600080fd5b506102506106c8565b604051610197919061326e565b34801561026957600080fd5b5061021a6102783660046132d0565b610a3f565b61021a61028b3660046133b8565b610a70565b34801561029c57600080fd5b5061021a6102ab3660046132d0565b610d5c565b3480156102bc57600080fd5b5061021a6102cb36600461346d565b610d77565b3480156102dc57600080fd5b506101e26102eb366004613144565b610f1b565b3480156102fc57600080fd5b5061022d61030b36600461348f565b610f7b565b34801561031c57600080fd5b5061033061032b366004613144565b611001565b60405161019791906134aa565b34801561034957600080fd5b5061021a610358366004613144565b61129a565b34801561036957600080fd5b506101b56112c9565b34801561037e57600080fd5b506102506112d8565b34801561039357600080fd5b5061021a6103a23660046134bd565b611646565b3480156103b357600080fd5b5061021a6103c236600461346d565b611655565b3480156103d357600080fd5b5061021a6103e23660046134f9565b6117c7565b3480156103f357600080fd5b506102506117ff565b34801561040857600080fd5b506101b5610417366004613144565b611b7f565b34801561042857600080fd5b50610250611c90565b34801561043d57600080fd5b50610250611f73565b34801561045257600080fd5b5061018b610461366004613575565b6001600160a01b03918216600090815260056020908152604080832093909416825291909152205460ff1690565b61021a61049d366004613144565b612343565b60006001600160e01b031982166380ac58cd60e01b14806104d357506001600160e01b03198216635b5e139f60e01b145b806104ee57506301ffc9a760e01b6001600160e01b03198316145b92915050565b606060008054610503906135a8565b80601f016020809104026020016040519081016040528092919081815260200182805461052f906135a8565b801561057c5780601f106105515761010080835404028352916020019161057c565b820191906000526020600020905b81548152906001019060200180831161055f57829003601f168201915b5050505050905090565b600061059182612550565b506000908152600460205260409020546001600160a01b031690565b60006105b882610f1b565b9050806001600160a01b0316836001600160a01b0316141561062b5760405162461bcd60e51b815260206004820152602160248201527f4552433732313a20617070726f76616c20746f2063757272656e74206f776e656044820152603960f91b60648201526084015b60405180910390fd5b336001600160a01b038216148061064757506106478133610461565b6106b95760405162461bcd60e51b815260206004820152603d60248201527f4552433732313a20617070726f76652063616c6c6572206973206e6f7420746f60448201527f6b656e206f776e6572206f7220617070726f76656420666f7220616c6c0000006064820152608401610622565b6106c383836125af565b505050565b606060006106d560085490565b90506000805b8281101561072e57600d60006106f28360016135f9565b815260208101919091526040016000206007015460ff161561071c578161071881613611565b9250505b8061072681613611565b9150506106db565b508067ffffffffffffffff8111156107485761074861330c565b60405190808252806020026020018201604052801561078157816020015b61076e612fa4565b8152602001906001900390816107665790505b5092506000805b83811015610a3857600d600061079f8360016135f9565b815260208101919091526040016000206007015460ff1615610a2657600d60006107ca8360016135f9565b8152602001908152602001600020604051806101400160405290816000820180546107f4906135a8565b80601f0160208091040260200160405190810160405280929190818152602001828054610820906135a8565b801561086d5780601f106108425761010080835404028352916020019161086d565b820191906000526020600020905b81548152906001019060200180831161085057829003601f168201915b50505050508152602001600182018054610886906135a8565b80601f01602080910402602001604051908101604052809291908181526020018280546108b2906135a8565b80156108ff5780601f106108d4576101008083540402835291602001916108ff565b820191906000526020600020905b8154815290600101906020018083116108e257829003601f168201915b50505050508152602001600282018054610918906135a8565b80601f0160208091040260200160405190810160405280929190818152602001828054610944906135a8565b80156109915780601f1061096657610100808354040283529160200191610991565b820191906000526020600020905b81548152906001019060200180831161097457829003601f168201915b50505091835250506003820154602082015260048201546001600160a01b039081166040830152600583015416606082015260068201546080820152600782015460ff808216151560a084015261010090910416151560c082015260089091015460e0909101528551869084908110610a0c57610a0c61362c565b60200260200101819052508180610a2290613611565b9250505b80610a3081613611565b915050610788565b5050505090565b610a49338261261d565b610a655760405162461bcd60e51b815260040161062290613642565b6106c383838361269b565b610a7861280c565b60008111610adb5760405162461bcd60e51b815260206004820152602a60248201527f53616c6573207072696365206d7573742062652067726561746572207468616e60448201526910181032ba3432b9399760b11b6064820152608401610622565b600b54341015610b3c5760405162461bcd60e51b815260206004820152602660248201527f5072696365206d75737420626520757020746f20746865206c697374696e6720604482015265383934b1b29760d11b6064820152608401610622565b610b4582612866565b610b885760405162461bcd60e51b815260206004820152601460248201527321b7bab632103737ba1036b4b73a103a37b5b2b760611b6044820152606401610622565b6000610b9360085490565b9050610b9d612fa4565b606081018290528681526020808201879052604080830187905260c0830185905242610120840152336080840181905260a08401526000848152600d835220825180518493610bf092849291019061300d565b506020828101518051610c09926001850192019061300d565b5060408201518051610c2591600284019160209091019061300d565b506060820151600382015560808201516004820180546001600160a01b039283166001600160a01b03199182161790915560a084015160058401805491909316911617905560c0820151600682015560e08201516007820180546101008086015115150261ff00199315159390931661ffff1990911617919091179055610120909101516008909101556000828152600e60209081526040808320805460ff1916600117905533835260109091528120805491610ce183613611565b9091555050600a54600b54610cff916001600160a01b0316906128a0565b604080513381526000602082018190528183018690526060820152905183917fa693a8f68fe4df789541ddd1b84d32ccaea90adddcc88406b4bbbf6466328d3c919081900360800190a25050610d556001600755565b5050505050565b6106c3838383604051806020016040528060008152506117c7565b6000828152600d60205260409020600501546001600160a01b03163314610db05760405162461bcd60e51b81526004016106229061368f565b6000828152600d6020526040902060070154610100900460ff1615610e175760405162461bcd60e51b815260206004820152601a60248201527f4974656d206973206c697665206f6e20746865206d61726b65740000000000006044820152606401610622565b60008111610e675760405162461bcd60e51b815260206004820152601e60248201527f44617973206d7573742062652067726561746572207468616e207a65726f00006044820152606401610622565b6000828152600d60205260409020600701805461ffff1916610100179055610e9281620151806136bc565b610e9c90426135f9565b6000838152600d6020526040902060080155610eb9306001611646565b6040516323b872dd60e01b8152336004820152306024820181905260448201849052906323b872dd90606401600060405180830381600087803b158015610eff57600080fd5b505af1158015610f13573d6000803e3d6000fd5b505050505050565b6000818152600260205260408120546001600160a01b0316806104ee5760405162461bcd60e51b8152602060048201526018602482015277115490cdcc8c4e881a5b9d985b1a59081d1bdad95b88125160421b6044820152606401610622565b60006001600160a01b038216610fe55760405162461bcd60e51b815260206004820152602960248201527f4552433732313a2061646472657373207a65726f206973206e6f7420612076616044820152683634b21037bbb732b960b91b6064820152608401610622565b506001600160a01b031660009081526003602052604090205490565b611009612fa4565b6000828152600e602052604090205460ff166110675760405162461bcd60e51b815260206004820152601860248201527f41756374696f6e6564204974656d206e6f7420666f756e6400000000000000006044820152606401610622565b6000828152600d60205260409081902081516101408101909252805482908290611090906135a8565b80601f01602080910402602001604051908101604052809291908181526020018280546110bc906135a8565b80156111095780601f106110de57610100808354040283529160200191611109565b820191906000526020600020905b8154815290600101906020018083116110ec57829003601f168201915b50505050508152602001600182018054611122906135a8565b80601f016020809104026020016040519081016040528092919081815260200182805461114e906135a8565b801561119b5780601f106111705761010080835404028352916020019161119b565b820191906000526020600020905b81548152906001019060200180831161117e57829003601f168201915b505050505081526020016002820180546111b4906135a8565b80601f01602080910402602001604051908101604052809291908181526020018280546111e0906135a8565b801561122d5780601f106112025761010080835404028352916020019161122d565b820191906000526020600020905b81548152906001019060200180831161121057829003601f168201915b50505091835250506003820154602082015260048201546001600160a01b039081166040830152600583015416606082015260068201546080820152600782015460ff808216151560a084015261010090910416151560c082015260089091015460e09091015292915050565b600a546001600160a01b031633146112c45760405162461bcd60e51b81526004016106229061368f565b600b55565b606060018054610503906135a8565b606060006112e560085490565b90506000805b8281101561133d57600d60006113028360016135f9565b815260208101919091526040016000206007015460ff1661132b578161132781613611565b9250505b8061133581613611565b9150506112eb565b508067ffffffffffffffff8111156113575761135761330c565b60405190808252806020026020018201604052801561139057816020015b61137d612fa4565b8152602001906001900390816113755790505b5092506000805b83811015610a3857600d60006113ae8360016135f9565b815260208101919091526040016000206007015460ff1661163457600d60006113d88360016135f9565b815260200190815260200160002060405180610140016040529081600082018054611402906135a8565b80601f016020809104026020016040519081016040528092919081815260200182805461142e906135a8565b801561147b5780601f106114505761010080835404028352916020019161147b565b820191906000526020600020905b81548152906001019060200180831161145e57829003601f168201915b50505050508152602001600182018054611494906135a8565b80601f01602080910402602001604051908101604052809291908181526020018280546114c0906135a8565b801561150d5780601f106114e25761010080835404028352916020019161150d565b820191906000526020600020905b8154815290600101906020018083116114f057829003601f168201915b50505050508152602001600282018054611526906135a8565b80601f0160208091040260200160405190810160405280929190818152602001828054611552906135a8565b801561159f5780601f106115745761010080835404028352916020019161159f565b820191906000526020600020905b81548152906001019060200180831161158257829003601f168201915b50505091835250506003820154602082015260048201546001600160a01b039081166040830152600583015416606082015260068201546080820152600782015460ff808216151560a084015261010090910416151560c082015260089091015460e090910152855186908490811061161a5761161a61362c565b6020026020010181905250818061163090613611565b9250505b8061163e81613611565b915050611397565b611651338383612900565b5050565b6000828152600d60205260409020600401546001600160a01b0316331461168e5760405162461bcd60e51b81526004016106229061368f565b6000828152600d602052604090206007015460ff16156116fb5760405162461bcd60e51b815260206004820152602260248201527f4974656d20616c7265616479206f666665726564206f6e20746865206d61726b604482015261195d60f21b6064820152608401610622565b6000828152600d6020526040902060070154610100900460ff16156117625760405162461bcd60e51b815260206004820152601a60248201527f4974656d206973206c697665206f6e20746865206d61726b65740000000000006044820152606401610622565b600081116117b25760405162461bcd60e51b815260206004820152601f60248201527f5072696365206d7573742062652067726561746572207468616e207a65726f006044820152606401610622565b6000918252600d602052604090912060060155565b6117d1338361261d565b6117ed5760405162461bcd60e51b815260040161062290613642565b6117f9848484846129cf565b50505050565b6060600061180c60085490565b90506000805b8281101561186d5733600d600061182a8460016135f9565b81526020810191909152604001600020600501546001600160a01b0316141561185b578161185781613611565b9250505b8061186581613611565b915050611812565b508067ffffffffffffffff8111156118875761188761330c565b6040519080825280602002602001820160405280156118c057816020015b6118ad612fa4565b8152602001906001900390816118a55790505b5092506000805b83811015610a385733600d60006118df8460016135f9565b81526020810191909152604001600020600501546001600160a01b03161415611b6d57600d60006119118360016135f9565b81526020019081526020016000206040518061014001604052908160008201805461193b906135a8565b80601f0160208091040260200160405190810160405280929190818152602001828054611967906135a8565b80156119b45780601f10611989576101008083540402835291602001916119b4565b820191906000526020600020905b81548152906001019060200180831161199757829003601f168201915b505050505081526020016001820180546119cd906135a8565b80601f01602080910402602001604051908101604052809291908181526020018280546119f9906135a8565b8015611a465780601f10611a1b57610100808354040283529160200191611a46565b820191906000526020600020905b815481529060010190602001808311611a2957829003601f168201915b50505050508152602001600282018054611a5f906135a8565b80601f0160208091040260200160405190810160405280929190818152602001828054611a8b906135a8565b8015611ad85780601f10611aad57610100808354040283529160200191611ad8565b820191906000526020600020905b815481529060010190602001808311611abb57829003601f168201915b50505091835250506003820154602082015260048201546001600160a01b039081166040830152600583015416606082015260068201546080820152600782015460ff808216151560a084015261010090910416151560c082015260089091015460e0909101528551869084908110611b5357611b5361362c565b60200260200101819052508180611b6990613611565b9250505b80611b7781613611565b9150506118c7565b6060611b8a82612550565b60008281526006602052604081208054611ba3906135a8565b80601f0160208091040260200160405190810160405280929190818152602001828054611bcf906135a8565b8015611c1c5780601f10611bf157610100808354040283529160200191611c1c565b820191906000526020600020905b815481529060010190602001808311611bff57829003601f168201915b505050505090506000611c3a60408051602081019091526000815290565b9050805160001415611c4d575092915050565b815115611c7f578082604051602001611c679291906136db565b60405160208183030381529060405292505050919050565b611c8884612a02565b949350505050565b60606000611c9d60085490565b90508067ffffffffffffffff811115611cb857611cb861330c565b604051908082528060200260200182016040528015611cf157816020015b611cde612fa4565b815260200190600190039081611cd65790505b50915060005b81811015611f6e57600d6000611d0e8360016135f9565b815260200190815260200160002060405180610140016040529081600082018054611d38906135a8565b80601f0160208091040260200160405190810160405280929190818152602001828054611d64906135a8565b8015611db15780601f10611d8657610100808354040283529160200191611db1565b820191906000526020600020905b815481529060010190602001808311611d9457829003601f168201915b50505050508152602001600182018054611dca906135a8565b80601f0160208091040260200160405190810160405280929190818152602001828054611df6906135a8565b8015611e435780601f10611e1857610100808354040283529160200191611e43565b820191906000526020600020905b815481529060010190602001808311611e2657829003601f168201915b50505050508152602001600282018054611e5c906135a8565b80601f0160208091040260200160405190810160405280929190818152602001828054611e88906135a8565b8015611ed55780601f10611eaa57610100808354040283529160200191611ed5565b820191906000526020600020905b815481529060010190602001808311611eb857829003601f168201915b50505091835250506003820154602082015260048201546001600160a01b039081166040830152600583015416606082015260068201546080820152600782015460ff808216151560a084015261010090910416151560c082015260089091015460e0909101528351849083908110611f5057611f5061362c565b60200260200101819052508080611f6690613611565b915050611cf7565b505090565b60606000611f8060085490565b90506000805b8281101561200957600d6000611f9d8360016135f9565b8152602081019190915260400160002060070154610100900460ff168015611fe4575042600d6000611fd08460016135f9565b815260200190815260200160002060080154115b15611ff75781611ff381613611565b9250505b8061200181613611565b915050611f86565b508067ffffffffffffffff8111156120235761202361330c565b60405190808252806020026020018201604052801561205c57816020015b612049612fa4565b8152602001906001900390816120415790505b5092506000805b83811015610a3857600d600061207a8360016135f9565b8152602081019190915260400160002060070154610100900460ff1680156120c1575042600d60006120ad8460016135f9565b815260200190815260200160002060080154115b1561233157600d60006120d58360016135f9565b8152602001908152602001600020604051806101400160405290816000820180546120ff906135a8565b80601f016020809104026020016040519081016040528092919081815260200182805461212b906135a8565b80156121785780601f1061214d57610100808354040283529160200191612178565b820191906000526020600020905b81548152906001019060200180831161215b57829003601f168201915b50505050508152602001600182018054612191906135a8565b80601f01602080910402602001604051908101604052809291908181526020018280546121bd906135a8565b801561220a5780601f106121df5761010080835404028352916020019161220a565b820191906000526020600020905b8154815290600101906020018083116121ed57829003601f168201915b50505050508152602001600282018054612223906135a8565b80601f016020809104026020016040519081016040528092919081815260200182805461224f906135a8565b801561229c5780601f106122715761010080835404028352916020019161229c565b820191906000526020600020905b81548152906001019060200180831161227f57829003601f168201915b50505091835250506003820154602082015260048201546001600160a01b039081166040830152600583015416606082015260068201546080820152600782015460ff808216151560a084015261010090910416151560c082015260089091015460e09091015285518690849081106123175761231761362c565b6020026020010181905250818061232d90613611565b9250505b8061233b81613611565b915050612063565b61234b61280c565b6000818152600d60205260409020600601543410156123a25760405162461bcd60e51b8152602060048201526013602482015272125b9cdd59999a58da595b9d08105b5bdd5b9d606a1b6044820152606401610622565b6000818152600d602052604090206008015442106123fa5760405162461bcd60e51b815260206004820152601560248201527441756374696f6e206e6f7420617661696c61626c6560581b6044820152606401610622565b6000818152600d6020908152604080832060048101546005820180546001600160a01b031916339081179091556007909201805461ffff191660011790559084526010909252822080546001600160a01b039092169261245983613611565b90915550506001600160a01b03811660009081526010602052604081208054916124828361370a565b9190505550612495600980546001019055565b60006064600c54346124a791906136bc565b6124b19190613721565b90506124c6826124c18334613743565b6128a0565b6124d082826128a0565b6000838152600d6020526040908190206003015490516323b872dd60e01b8152306004820181905233602483015260448201929092526323b872dd90606401600060405180830381600087803b15801561252957600080fd5b505af115801561253d573d6000803e3d6000fd5b50505050505061254d6001600755565b50565b6000818152600260205260409020546001600160a01b031661254d5760405162461bcd60e51b8152602060048201526018602482015277115490cdcc8c4e881a5b9d985b1a59081d1bdad95b88125160421b6044820152606401610622565b600081815260046020526040902080546001600160a01b0319166001600160a01b03841690811790915581906125e482610f1b565b6001600160a01b03167f8c5be1e5ebec7d5bd14f71427d1e84f3dd0314c0f7b2291e5b200ac8c7c3b92560405160405180910390a45050565b60008061262983610f1b565b9050806001600160a01b0316846001600160a01b0316148061267057506001600160a01b0380821660009081526005602090815260408083209388168352929052205460ff165b80611c885750836001600160a01b031661268984610586565b6001600160a01b031614949350505050565b826001600160a01b03166126ae82610f1b565b6001600160a01b0316146126d45760405162461bcd60e51b81526004016106229061375a565b6001600160a01b0382166127365760405162461bcd60e51b8152602060048201526024808201527f4552433732313a207472616e7366657220746f20746865207a65726f206164646044820152637265737360e01b6064820152608401610622565b6127438383836001612a76565b826001600160a01b031661275682610f1b565b6001600160a01b03161461277c5760405162461bcd60e51b81526004016106229061375a565b600081815260046020908152604080832080546001600160a01b03199081169091556001600160a01b0387811680865260038552838620805460001901905590871680865283862080546001019055868652600290945282852080549092168417909155905184937fddf252ad1be2c89b69c2b068fc378daa952ba7f163c4a11628f55a4df523b3ef91a4505050565b6002600754141561285f5760405162461bcd60e51b815260206004820152601f60248201527f5265656e7472616e637947756172643a207265656e7472616e742063616c6c006044820152606401610622565b6002600755565b6000612876600880546001019055565b600061288160085490565b905061288d3382612afe565b6128978184612c97565b50600192915050565b6000826001600160a01b03168260405160006040518083038185875af1925050503d80600081146128ed576040519150601f19603f3d011682016040523d82523d6000602084013e6128f2565b606091505b50509050806106c357600080fd5b816001600160a01b0316836001600160a01b031614156129625760405162461bcd60e51b815260206004820152601960248201527f4552433732313a20617070726f766520746f2063616c6c6572000000000000006044820152606401610622565b6001600160a01b03838116600081815260056020908152604080832094871680845294825291829020805460ff191686151590811790915591519182527f17307eab39ab6107e8899845ad3d59bd9653f200f220920489ca2b5937696c31910160405180910390a3505050565b6129da84848461269b565b6129e684848484612d31565b6117f95760405162461bcd60e51b81526004016106229061379f565b6060612a0d82612550565b6000612a2460408051602081019091526000815290565b90506000815111612a445760405180602001604052806000815250612a6f565b80612a4e84612e2f565b604051602001612a5f9291906136db565b6040516020818303038152906040525b9392505050565b60018111156117f9576001600160a01b03841615612abc576001600160a01b03841660009081526003602052604081208054839290612ab6908490613743565b90915550505b6001600160a01b038316156117f9576001600160a01b03831660009081526003602052604081208054839290612af39084906135f9565b909155505050505050565b6001600160a01b038216612b545760405162461bcd60e51b815260206004820181905260248201527f4552433732313a206d696e7420746f20746865207a65726f20616464726573736044820152606401610622565b6000818152600260205260409020546001600160a01b031615612bb95760405162461bcd60e51b815260206004820152601c60248201527f4552433732313a20746f6b656e20616c7265616479206d696e746564000000006044820152606401610622565b612bc7600083836001612a76565b6000818152600260205260409020546001600160a01b031615612c2c5760405162461bcd60e51b815260206004820152601c60248201527f4552433732313a20746f6b656e20616c7265616479206d696e746564000000006044820152606401610622565b6001600160a01b038216600081815260036020908152604080832080546001019055848352600290915280822080546001600160a01b0319168417905551839291907fddf252ad1be2c89b69c2b068fc378daa952ba7f163c4a11628f55a4df523b3ef908290a45050565b6000828152600260205260409020546001600160a01b0316612d125760405162461bcd60e51b815260206004820152602e60248201527f45524337323155524953746f726167653a2055524920736574206f66206e6f6e60448201526d32bc34b9ba32b73a103a37b5b2b760911b6064820152608401610622565b600082815260066020908152604090912082516106c39284019061300d565b60006001600160a01b0384163b15612e2457604051630a85bd0160e11b81526001600160a01b0385169063150b7a0290612d759033908990889088906004016137f1565b6020604051808303816000875af1925050508015612db0575060408051601f3d908101601f19168201909252612dad9181019061382e565b60015b612e0a573d808015612dde576040519150601f19603f3d011682016040523d82523d6000602084013e612de3565b606091505b508051612e025760405162461bcd60e51b81526004016106229061379f565b805181602001fd5b6001600160e01b031916630a85bd0160e11b149050611c88565b506001949350505050565b60606000612e3c83612ecc565b600101905060008167ffffffffffffffff811115612e5c57612e5c61330c565b6040519080825280601f01601f191660200182016040528015612e86576020820181803683370190505b5090508181016020015b600019016f181899199a1a9b1b9c1cb0b131b232b360811b600a86061a8153600a8504945084612ebf57612ec4565b612e90565b509392505050565b60008072184f03e93ff9f4daa797ed6e38ed64bf6a1f0160401b8310612f0b5772184f03e93ff9f4daa797ed6e38ed64bf6a1f0160401b830492506040015b6d04ee2d6d415b85acef81000000008310612f37576d04ee2d6d415b85acef8100000000830492506020015b662386f26fc100008310612f5557662386f26fc10000830492506010015b6305f5e1008310612f6d576305f5e100830492506008015b6127108310612f8157612710830492506004015b60648310612f93576064830492506002015b600a83106104ee5760010192915050565b6040518061014001604052806060815260200160608152602001606081526020016000815260200160006001600160a01b0316815260200160006001600160a01b0316815260200160008152602001600015158152602001600015158152602001600081525090565b828054613019906135a8565b90600052602060002090601f01602090048101928261303b5760008555613081565b82601f1061305457805160ff1916838001178555613081565b82800160010185558215613081579182015b82811115613081578251825591602001919060010190613066565b5061308d929150613091565b5090565b5b8082111561308d5760008155600101613092565b6001600160e01b03198116811461254d57600080fd5b6000602082840312156130ce57600080fd5b8135612a6f816130a6565b60005b838110156130f45781810151838201526020016130dc565b838111156117f95750506000910152565b6000815180845261311d8160208601602086016130d9565b601f01601f19169290920160200192915050565b602081526000612a6f6020830184613105565b60006020828403121561315657600080fd5b5035919050565b80356001600160a01b038116811461317457600080fd5b919050565b6000806040838503121561318c57600080fd5b6131958361315d565b946020939093013593505050565b600061014082518185526131b982860182613105565b915050602083015184820360208601526131d38282613105565b915050604083015184820360408601526131ed8282613105565b91505060608301516060850152608083015161321460808601826001600160a01b03169052565b5060a083015161322f60a08601826001600160a01b03169052565b5060c083015160c085015260e083015161324d60e086018215159052565b50610100838101511515908501526101209283015192909301919091525090565b6000602080830181845280855180835260408601915060408160051b870101925083870160005b828110156132c357603f198886030184526132b18583516131a3565b94509285019290850190600101613295565b5092979650505050505050565b6000806000606084860312156132e557600080fd5b6132ee8461315d565b92506132fc6020850161315d565b9150604084013590509250925092565b634e487b7160e01b600052604160045260246000fd5b600067ffffffffffffffff8084111561333d5761333d61330c565b604051601f8501601f19908116603f011681019082821181831017156133655761336561330c565b8160405280935085815286868601111561337e57600080fd5b858560208301376000602087830101525050509392505050565b600082601f8301126133a957600080fd5b612a6f83833560208501613322565b600080600080600060a086880312156133d057600080fd5b853567ffffffffffffffff808211156133e857600080fd5b6133f489838a01613398565b9650602088013591508082111561340a57600080fd5b61341689838a01613398565b9550604088013591508082111561342c57600080fd5b61343889838a01613398565b9450606088013591508082111561344e57600080fd5b5061345b88828901613398565b95989497509295608001359392505050565b6000806040838503121561348057600080fd5b50508035926020909101359150565b6000602082840312156134a157600080fd5b612a6f8261315d565b602081526000612a6f60208301846131a3565b600080604083850312156134d057600080fd5b6134d98361315d565b9150602083013580151581146134ee57600080fd5b809150509250929050565b6000806000806080858703121561350f57600080fd5b6135188561315d565b93506135266020860161315d565b925060408501359150606085013567ffffffffffffffff81111561354957600080fd5b8501601f8101871361355a57600080fd5b61356987823560208401613322565b91505092959194509250565b6000806040838503121561358857600080fd5b6135918361315d565b915061359f6020840161315d565b90509250929050565b600181811c908216806135bc57607f821691505b602082108114156135dd57634e487b7160e01b600052602260045260246000fd5b50919050565b634e487b7160e01b600052601160045260246000fd5b6000821982111561360c5761360c6135e3565b500190565b6000600019821415613625576136256135e3565b5060010190565b634e487b7160e01b600052603260045260246000fd5b6020808252602d908201527f4552433732313a2063616c6c6572206973206e6f7420746f6b656e206f776e6560408201526c1c881bdc88185c1c1c9bdd9959609a1b606082015260800190565b602080825260139082015272556e617574686f72697a656420656e7469747960681b604082015260600190565b60008160001904831182151516156136d6576136d66135e3565b500290565b600083516136ed8184602088016130d9565b8351908301906137018183602088016130d9565b01949350505050565b600081613719576137196135e3565b506000190190565b60008261373e57634e487b7160e01b600052601260045260246000fd5b500490565b600082821015613755576137556135e3565b500390565b60208082526025908201527f4552433732313a207472616e736665722066726f6d20696e636f72726563742060408201526437bbb732b960d91b606082015260800190565b60208082526032908201527f4552433732313a207472616e7366657220746f206e6f6e20455243373231526560408201527131b2b4bb32b91034b6b83632b6b2b73a32b960711b606082015260800190565b6001600160a01b038581168252841660208201526040810183905260806060820181905260009061382490830184613105565b9695505050505050565b60006020828403121561384057600080fd5b8151612a6f816130a656fea2646970667358221220f7ac4e2c66090166c382ffff7de0a692f081e53d56e02f18fcf9d5218d7f688c64736f6c634300080b0033",
  "linkReferences": {},
  "deployedLinkReferences": {}
}