{
  "_format": "hh-sol-artifact-1",
  "contractName": "Auction",
  "sourceName": "src/contracts/Auction.sol",
  "abi": [
    {
      "inputs": [
        {
          "internalType": "uint256",
          "name": "_royaltyFee",
          "type": "uint256"
        }
      ],
      "stateMutability": "nonpayable",
      "type": "constructor"
    },
    {
      "anonymous": false,
      "inputs": [
        {
          "indexed": true,
          "internalType": "address",
          "name": "owner",
          "type": "address"
        },
        {
          "indexed": true,
          "internalType": "address",
          "name": "approved",
          "type": "address"
        },
        {
          "indexed": true,
          "internalType": "uint256",
          "name": "tokenId",
          "type": "uint256"
        }
      ],
      "name": "Approval",
      "type": "event"
    },
    {
      "anonymous": false,
      "inputs": [
        {
          "indexed": true,
          "internalType": "address",
          "name": "owner",
          "type": "address"
        },
        {
          "indexed": true,
          "internalType": "address",
          "name": "operator",
          "type": "address"
        },
        {
          "indexed": false,
          "internalType": "bool",
          "name": "approved",
          "type": "bool"
        }
      ],
      "name": "ApprovalForAll",
      "type": "event"
    },
    {
      "anonymous": false,
      "inputs": [
        {
          "indexed": true,
          "internalType": "uint256",
          "name": "tokenId",
          "type": "uint256"
        },
        {
          "indexed": false,
          "internalType": "address",
          "name": "seller",
          "type": "address"
        },
        {
          "indexed": false,
          "internalType": "address",
          "name": "owner",
          "type": "address"
        },
        {
          "indexed": false,
          "internalType": "uint256",
          "name": "price",
          "type": "uint256"
        },
        {
          "indexed": false,
          "internalType": "bool",
          "name": "sold",
          "type": "bool"
        }
      ],
      "name": "AuctionItemCreated",
      "type": "event"
    },
    {
      "anonymous": false,
      "inputs": [
        {
          "indexed": true,
          "internalType": "address",
          "name": "from",
          "type": "address"
        },
        {
          "indexed": true,
          "internalType": "address",
          "name": "to",
          "type": "address"
        },
        {
          "indexed": true,
          "internalType": "uint256",
          "name": "tokenId",
          "type": "uint256"
        }
      ],
      "name": "Transfer",
      "type": "event"
    },
    {
      "inputs": [
        {
          "internalType": "address",
          "name": "to",
          "type": "address"
        },
        {
          "internalType": "uint256",
          "name": "tokenId",
          "type": "uint256"
        }
      ],
      "name": "approve",
      "outputs": [],
      "stateMutability": "nonpayable",
      "type": "function"
    },
    {
      "inputs": [
        {
          "internalType": "address",
          "name": "owner",
          "type": "address"
        }
      ],
      "name": "balanceOf",
      "outputs": [
        {
          "internalType": "uint256",
          "name": "",
          "type": "uint256"
        }
      ],
      "stateMutability": "view",
      "type": "function"
    },
    {
      "inputs": [
        {
          "internalType": "uint256",
          "name": "tokenId",
          "type": "uint256"
        }
      ],
      "name": "buyAuctionedItem",
      "outputs": [],
      "stateMutability": "payable",
      "type": "function"
    },
    {
      "inputs": [
        {
          "internalType": "uint256",
          "name": "tokenId",
          "type": "uint256"
        },
        {
          "internalType": "uint256",
          "name": "price",
          "type": "uint256"
        }
      ],
      "name": "changePrice",
      "outputs": [],
      "stateMutability": "nonpayable",
      "type": "function"
    },
    {
      "inputs": [
        {
          "internalType": "string",
          "name": "name",
          "type": "string"
        },
        {
          "internalType": "string",
          "name": "description",
          "type": "string"
        },
        {
          "internalType": "string",
          "name": "image",
          "type": "string"
        },
        {
          "internalType": "string",
          "name": "tokenURI",
          "type": "string"
        },
        {
          "internalType": "uint256",
          "name": "price",
          "type": "uint256"
        }
      ],
      "name": "createAuction",
      "outputs": [],
      "stateMutability": "payable",
      "type": "function"
    },
    {
      "inputs": [],
      "name": "getAllAuctions",
      "outputs": [
        {
          "components": [
            {
              "internalType": "string",
              "name": "name",
              "type": "string"
            },
            {
              "internalType": "string",
              "name": "description",
              "type": "string"
            },
            {
              "internalType": "string",
              "name": "image",
              "type": "string"
            },
            {
              "internalType": "uint256",
              "name": "tokenId",
              "type": "uint256"
            },
            {
              "internalType": "address",
              "name": "seller",
              "type": "address"
            },
            {
              "internalType": "address",
              "name": "owner",
              "type": "address"
            },
            {
              "internalType": "uint256",
              "name": "price",
              "type": "uint256"
            },
            {
              "internalType": "bool",
              "name": "sold",
              "type": "bool"
            },
            {
              "internalType": "bool",
              "name": "live",
              "type": "bool"
            },
            {
              "internalType": "uint256",
              "name": "duration",
              "type": "uint256"
            }
          ],
          "internalType": "struct Auction.AuctionStruct[]",
          "name": "Auctions",
          "type": "tuple[]"
        }
      ],
      "stateMutability": "view",
      "type": "function"
    },
    {
      "inputs": [
        {
          "internalType": "uint256",
          "name": "tokenId",
          "type": "uint256"
        }
      ],
      "name": "getApproved",
      "outputs": [
        {
          "internalType": "address",
          "name": "",
          "type": "address"
        }
      ],
      "stateMutability": "view",
      "type": "function"
    },
    {
      "inputs": [
        {
          "internalType": "uint256",
          "name": "id",
          "type": "uint256"
        }
      ],
      "name": "getAuction",
      "outputs": [
        {
          "components": [
            {
              "internalType": "string",
              "name": "name",
              "type": "string"
            },
            {
              "internalType": "string",
              "name": "description",
              "type": "string"
            },
            {
              "internalType": "string",
              "name": "image",
              "type": "string"
            },
            {
              "internalType": "uint256",
              "name": "tokenId",
              "type": "uint256"
            },
            {
              "internalType": "address",
              "name": "seller",
              "type": "address"
            },
            {
              "internalType": "address",
              "name": "owner",
              "type": "address"
            },
            {
              "internalType": "uint256",
              "name": "price",
              "type": "uint256"
            },
            {
              "internalType": "bool",
              "name": "sold",
              "type": "bool"
            },
            {
              "internalType": "bool",
              "name": "live",
              "type": "bool"
            },
            {
              "internalType": "uint256",
              "name": "duration",
              "type": "uint256"
            }
          ],
          "internalType": "struct Auction.AuctionStruct",
          "name": "",
          "type": "tuple"
        }
      ],
      "stateMutability": "view",
      "type": "function"
    },
    {
      "inputs": [],
      "name": "getListingPrice",
      "outputs": [
        {
          "internalType": "uint256",
          "name": "",
          "type": "uint256"
        }
      ],
      "stateMutability": "view",
      "type": "function"
    },
    {
      "inputs": [],
      "name": "getLiveAuctions",
      "outputs": [
        {
          "components": [
            {
              "internalType": "string",
              "name": "name",
              "type": "string"
            },
            {
              "internalType": "string",
              "name": "description",
              "type": "string"
            },
            {
              "internalType": "string",
              "name": "image",
              "type": "string"
            },
            {
              "internalType": "uint256",
              "name": "tokenId",
              "type": "uint256"
            },
            {
              "internalType": "address",
              "name": "seller",
              "type": "address"
            },
            {
              "internalType": "address",
              "name": "owner",
              "type": "address"
            },
            {
              "internalType": "uint256",
              "name": "price",
              "type": "uint256"
            },
            {
              "internalType": "bool",
              "name": "sold",
              "type": "bool"
            },
            {
              "internalType": "bool",
              "name": "live",
              "type": "bool"
            },
            {
              "internalType": "uint256",
              "name": "duration",
              "type": "uint256"
            }
          ],
          "internalType": "struct Auction.AuctionStruct[]",
          "name": "Auctions",
          "type": "tuple[]"
        }
      ],
      "stateMutability": "view",
      "type": "function"
    },
    {
      "inputs": [],
      "name": "getMyAuctions",
      "outputs": [
        {
          "components": [
            {
              "internalType": "string",
              "name": "name",
              "type": "string"
            },
            {
              "internalType": "string",
              "name": "description",
              "type": "string"
            },
            {
              "internalType": "string",
              "name": "image",
              "type": "string"
            },
            {
              "internalType": "uint256",
              "name": "tokenId",
              "type": "uint256"
            },
            {
              "internalType": "address",
              "name": "seller",
              "type": "address"
            },
            {
              "internalType": "address",
              "name": "owner",
              "type": "address"
            },
            {
              "internalType": "uint256",
              "name": "price",
              "type": "uint256"
            },
            {
              "internalType": "bool",
              "name": "sold",
              "type": "bool"
            },
            {
              "internalType": "bool",
              "name": "live",
              "type": "bool"
            },
            {
              "internalType": "uint256",
              "name": "duration",
              "type": "uint256"
            }
          ],
          "internalType": "struct Auction.AuctionStruct[]",
          "name": "Auctions",
          "type": "tuple[]"
        }
      ],
      "stateMutability": "view",
      "type": "function"
    },
    {
      "inputs": [],
      "name": "getSoldAuction",
      "outputs": [
        {
          "components": [
            {
              "internalType": "string",
              "name": "name",
              "type": "string"
            },
            {
              "internalType": "string",
              "name": "description",
              "type": "string"
            },
            {
              "internalType": "string",
              "name": "image",
              "type": "string"
            },
            {
              "internalType": "uint256",
              "name": "tokenId",
              "type": "uint256"
            },
            {
              "internalType": "address",
              "name": "seller",
              "type": "address"
            },
            {
              "internalType": "address",
              "name": "owner",
              "type": "address"
            },
            {
              "internalType": "uint256",
              "name": "price",
              "type": "uint256"
            },
            {
              "internalType": "bool",
              "name": "sold",
              "type": "bool"
            },
            {
              "internalType": "bool",
              "name": "live",
              "type": "bool"
            },
            {
              "internalType": "uint256",
              "name": "duration",
              "type": "uint256"
            }
          ],
          "internalType": "struct Auction.AuctionStruct[]",
          "name": "Auctions",
          "type": "tuple[]"
        }
      ],
      "stateMutability": "view",
      "type": "function"
    },
    {
      "inputs": [],
      "name": "getUnsoldAuction",
      "outputs": [
        {
          "components": [
            {
              "internalType": "string",
              "name": "name",
              "type": "string"
            },
            {
              "internalType": "string",
              "name": "description",
              "type": "string"
            },
            {
              "internalType": "string",
              "name": "image",
              "type": "string"
            },
            {
              "internalType": "uint256",
              "name": "tokenId",
              "type": "uint256"
            },
            {
              "internalType": "address",
              "name": "seller",
              "type": "address"
            },
            {
              "internalType": "address",
              "name": "owner",
              "type": "address"
            },
            {
              "internalType": "uint256",
              "name": "price",
              "type": "uint256"
            },
            {
              "internalType": "bool",
              "name": "sold",
              "type": "bool"
            },
            {
              "internalType": "bool",
              "name": "live",
              "type": "bool"
            },
            {
              "internalType": "uint256",
              "name": "duration",
              "type": "uint256"
            }
          ],
          "internalType": "struct Auction.AuctionStruct[]",
          "name": "Auctions",
          "type": "tuple[]"
        }
      ],
      "stateMutability": "view",
      "type": "function"
    },
    {
      "inputs": [
        {
          "internalType": "address",
          "name": "owner",
          "type": "address"
        },
        {
          "internalType": "address",
          "name": "operator",
          "type": "address"
        }
      ],
      "name": "isApprovedForAll",
      "outputs": [
        {
          "internalType": "bool",
          "name": "",
          "type": "bool"
        }
      ],
      "stateMutability": "view",
      "type": "function"
    },
    {
      "inputs": [],
      "name": "name",
      "outputs": [
        {
          "internalType": "string",
          "name": "",
          "type": "string"
        }
      ],
      "stateMutability": "view",
      "type": "function"
    },
    {
      "inputs": [
        {
          "internalType": "uint256",
          "name": "tokenId",
          "type": "uint256"
        },
        {
          "internalType": "uint256",
          "name": "period",
          "type": "uint256"
        }
      ],
      "name": "offerAuction",
      "outputs": [],
      "stateMutability": "nonpayable",
      "type": "function"
    },
    {
      "inputs": [
        {
          "internalType": "uint256",
          "name": "tokenId",
          "type": "uint256"
        }
      ],
      "name": "ownerOf",
      "outputs": [
        {
          "internalType": "address",
          "name": "",
          "type": "address"
        }
      ],
      "stateMutability": "view",
      "type": "function"
    },
    {
      "inputs": [
        {
          "internalType": "address",
          "name": "from",
          "type": "address"
        },
        {
          "internalType": "address",
          "name": "to",
          "type": "address"
        },
        {
          "internalType": "uint256",
          "name": "tokenId",
          "type": "uint256"
        }
      ],
      "name": "safeTransferFrom",
      "outputs": [],
      "stateMutability": "nonpayable",
      "type": "function"
    },
    {
      "inputs": [
        {
          "internalType": "address",
          "name": "from",
          "type": "address"
        },
        {
          "internalType": "address",
          "name": "to",
          "type": "address"
        },
        {
          "internalType": "uint256",
          "name": "tokenId",
          "type": "uint256"
        },
        {
          "internalType": "bytes",
          "name": "data",
          "type": "bytes"
        }
      ],
      "name": "safeTransferFrom",
      "outputs": [],
      "stateMutability": "nonpayable",
      "type": "function"
    },
    {
      "inputs": [
        {
          "internalType": "address",
          "name": "operator",
          "type": "address"
        },
        {
          "internalType": "bool",
          "name": "approved",
          "type": "bool"
        }
      ],
      "name": "setApprovalForAll",
      "outputs": [],
      "stateMutability": "nonpayable",
      "type": "function"
    },
    {
      "inputs": [
        {
          "internalType": "uint256",
          "name": "_price",
          "type": "uint256"
        }
      ],
      "name": "setListingPrice",
      "outputs": [],
      "stateMutability": "nonpayable",
      "type": "function"
    },
    {
      "inputs": [
        {
          "internalType": "bytes4",
          "name": "interfaceId",
          "type": "bytes4"
        }
      ],
      "name": "supportsInterface",
      "outputs": [
        {
          "internalType": "bool",
          "name": "",
          "type": "bool"
        }
      ],
      "stateMutability": "view",
      "type": "function"
    },
    {
      "inputs": [],
      "name": "symbol",
      "outputs": [
        {
          "internalType": "string",
          "name": "",
          "type": "string"
        }
      ],
      "stateMutability": "view",
      "type": "function"
    },
    {
      "inputs": [
        {
          "internalType": "uint256",
          "name": "tokenId",
          "type": "uint256"
        }
      ],
      "name": "tokenURI",
      "outputs": [
        {
          "internalType": "string",
          "name": "",
          "type": "string"
        }
      ],
      "stateMutability": "view",
      "type": "function"
    },
    {
      "inputs": [
        {
          "internalType": "address",
          "name": "from",
          "type": "address"
        },
        {
          "internalType": "address",
          "name": "to",
          "type": "address"
        },
        {
          "internalType": "uint256",
          "name": "tokenId",
          "type": "uint256"
        }
      ],
      "name": "transferFrom",
      "outputs": [],
      "stateMutability": "nonpayable",
      "type": "function"
    }
  ],
  "bytecode": "0x608060405266470de4df820000600b553480156200001c57600080fd5b50604051620038d3380380620038d38339810160408190526200003f9162000170565b604080518082018252600f81526e44616c746f6e696320546f6b656e7360881b60208083019182528351808501909452600384526211105560ea1b9084015281519192916200009191600091620000ca565b508051620000a7906001906020840190620000ca565b5050600160075550600a80546001600160a01b03191633179055600c55620001c7565b828054620000d8906200018a565b90600052602060002090601f016020900481019282620000fc576000855562000147565b82601f106200011757805160ff191683800117855562000147565b8280016001018555821562000147579182015b82811115620001475782518255916020019190600101906200012a565b506200015592915062000159565b5090565b5b808211156200015557600081556001016200015a565b6000602082840312156200018357600080fd5b5051919050565b600181811c908216806200019f57607f821691505b60208210811415620001c157634e487b7160e01b600052602260045260246000fd5b50919050565b6136fc80620001d76000396000f3fe6080604052600436106101665760003560e01c806378bd7935116100d1578063b88d4fde1161008a578063cbd2bdfd11610064578063cbd2bdfd1461041c578063db0bd5c914610431578063e985e9c514610446578063f5a06acf1461048f57600080fd5b8063b88d4fde146103c7578063bf65a333146103e7578063c87b56dd146103fc57600080fd5b806378bd7935146103105780637c726b691461033d57806395d89b411461035d5780639e78efd614610372578063a22cb46514610387578063b3de019c146103a757600080fd5b806323b872dd1161012357806323b872dd1461025d57806333748dcb1461027d57806342842e0e1461029057806347aa13f3146102b05780636352211e146102d057806370a08231146102f057600080fd5b806301ffc9a71461016b57806306fdde03146101a0578063081812fc146101c2578063095ea7b3146101fa57806312e855851461021c5780631d8df68f1461023b575b600080fd5b34801561017757600080fd5b5061018b610186366004612f37565b6104a2565b60405190151581526020015b60405180910390f35b3480156101ac57600080fd5b506101b56104f4565b6040516101979190612fac565b3480156101ce57600080fd5b506101e26101dd366004612fbf565b610586565b6040516001600160a01b039091168152602001610197565b34801561020657600080fd5b5061021a610215366004612ff4565b6105ad565b005b34801561022857600080fd5b50600b545b604051908152602001610197565b34801561024757600080fd5b506102506106c8565b60405161019791906130e9565b34801561026957600080fd5b5061021a61027836600461314b565b6109f0565b61021a61028b366004613233565b610a21565b34801561029c57600080fd5b5061021a6102ab36600461314b565b610d06565b3480156102bc57600080fd5b5061021a6102cb3660046132e8565b610d21565b3480156102dc57600080fd5b506101e26102eb366004612fbf565b610eb8565b3480156102fc57600080fd5b5061022d61030b36600461330a565b610f18565b34801561031c57600080fd5b5061033061032b366004612fbf565b610f9e565b6040516101979190613325565b34801561034957600080fd5b5061021a610358366004612fbf565b611237565b34801561036957600080fd5b506101b5611266565b34801561037e57600080fd5b50610250611275565b34801561039357600080fd5b5061021a6103a2366004613338565b61159c565b3480156103b357600080fd5b5061021a6103c23660046132e8565b6115ab565b3480156103d357600080fd5b5061021a6103e2366004613374565b61171d565b3480156103f357600080fd5b50610250611755565b34801561040857600080fd5b506101b5610417366004612fbf565b611a86565b34801561042857600080fd5b50610250611b97565b34801561043d57600080fd5b50610250611e75565b34801561045257600080fd5b5061018b6104613660046133f0565b6001600160a01b03918216600090815260056020908152604080832093909416825291909152205460ff1690565b61021a61049d366004612fbf565b6121be565b60006001600160e01b031982166380ac58cd60e01b14806104d357506001600160e01b03198216635b5e139f60e01b145b806104ee57506301ffc9a760e01b6001600160e01b03198316145b92915050565b60606000805461050390613423565b80601f016020809104026020016040519081016040528092919081815260200182805461052f90613423565b801561057c5780601f106105515761010080835404028352916020019161057c565b820191906000526020600020905b81548152906001019060200180831161055f57829003601f168201915b5050505050905090565b6000610591826123cb565b506000908152600460205260409020546001600160a01b031690565b60006105b882610eb8565b9050806001600160a01b0316836001600160a01b0316141561062b5760405162461bcd60e51b815260206004820152602160248201527f4552433732313a20617070726f76616c20746f2063757272656e74206f776e656044820152603960f91b60648201526084015b60405180910390fd5b336001600160a01b038216148061064757506106478133610461565b6106b95760405162461bcd60e51b815260206004820152603d60248201527f4552433732313a20617070726f76652063616c6c6572206973206e6f7420746f60448201527f6b656e206f776e6572206f7220617070726f76656420666f7220616c6c0000006064820152608401610622565b6106c3838361242a565b505050565b606060006106d560095490565b90508067ffffffffffffffff8111156106f0576106f0613187565b60405190808252806020026020018201604052801561072957816020015b610716612e1f565b81526020019060019003908161070e5790505b50915060005b6008548110156109eb57600033600d8261074a856001613474565b81526020810191909152604001600020600501546001600160a01b031614156109d857600d600061077c846001613474565b8152602001908152602001600020604051806101400160405290816000820180546107a690613423565b80601f01602080910402602001604051908101604052809291908181526020018280546107d290613423565b801561081f5780601f106107f45761010080835404028352916020019161081f565b820191906000526020600020905b81548152906001019060200180831161080257829003601f168201915b5050505050815260200160018201805461083890613423565b80601f016020809104026020016040519081016040528092919081815260200182805461086490613423565b80156108b15780601f10610886576101008083540402835291602001916108b1565b820191906000526020600020905b81548152906001019060200180831161089457829003601f168201915b505050505081526020016002820180546108ca90613423565b80601f01602080910402602001604051908101604052809291908181526020018280546108f690613423565b80156109435780601f1061091857610100808354040283529160200191610943565b820191906000526020600020905b81548152906001019060200180831161092657829003601f168201915b50505091835250506003820154602082015260048201546001600160a01b039081166040830152600583015416606082015260068201546080820152600782015460ff808216151560a084015261010090910416151560c082015260089091015460e09091015284518590839081106109be576109be61348c565b602002602001018190525080806109d4906134a2565b9150505b50806109e3816134a2565b91505061072f565b505090565b6109fa3382612498565b610a165760405162461bcd60e51b8152600401610622906134bd565b6106c3838383612516565b610a29612687565b60008111610a8c5760405162461bcd60e51b815260206004820152602a60248201527f53616c6573207072696365206d7573742062652067726561746572207468616e60448201526910181032ba3432b9399760b11b6064820152608401610622565b600b54341015610aed5760405162461bcd60e51b815260206004820152602660248201527f5072696365206d75737420626520757020746f20746865206c697374696e6720604482015265383934b1b29760d11b6064820152608401610622565b610af6826126e1565b610b395760405162461bcd60e51b815260206004820152601460248201527321b7bab632103737ba1036b4b73a103a37b5b2b760611b6044820152606401610622565b6000610b4460085490565b9050610b4e612e1f565b606081018290528681526020808201879052604080830187905260c08301859052336080840181905260a08401526000848152600d835220825180518493610b9a928492910190612e88565b506020828101518051610bb39260018501920190612e88565b5060408201518051610bcf916002840191602090910190612e88565b506060820151600382015560808201516004820180546001600160a01b039283166001600160a01b03199182161790915560a084015160058401805491909316911617905560c0820151600682015560e08201516007820180546101008086015115150261ff00199315159390931661ffff1990911617919091179055610120909101516008909101556000828152600e60209081526040808320805460ff1916600117905533835260109091528120805491610c8b836134a2565b9091555050600a54600b54610ca9916001600160a01b03169061271b565b604080513381526000602082018190528183018690526060820152905183917fa693a8f68fe4df789541ddd1b84d32ccaea90adddcc88406b4bbbf6466328d3c919081900360800190a25050610cff6001600755565b5050505050565b6106c38383836040518060200160405280600081525061171d565b6000828152600d60205260409020600501546001600160a01b03163314610d5a5760405162461bcd60e51b81526004016106229061350a565b6000828152600d6020526040902060070154610100900460ff1615610dc15760405162461bcd60e51b815260206004820152601a60248201527f4974656d206973206c697665206f6e20746865206d61726b65740000000000006044820152606401610622565b60008111610e115760405162461bcd60e51b815260206004820152601e60248201527f44617973206d7573742062652067726561746572207468616e207a65726f00006044820152606401610622565b6000828152600d60205260409020600701805461ffff1916610100179055610e398142613537565b6000838152600d6020526040902060080155610e5630600161159c565b6040516323b872dd60e01b8152336004820152306024820181905260448201849052906323b872dd90606401600060405180830381600087803b158015610e9c57600080fd5b505af1158015610eb0573d6000803e3d6000fd5b505050505050565b6000818152600260205260408120546001600160a01b0316806104ee5760405162461bcd60e51b8152602060048201526018602482015277115490cdcc8c4e881a5b9d985b1a59081d1bdad95b88125160421b6044820152606401610622565b60006001600160a01b038216610f825760405162461bcd60e51b815260206004820152602960248201527f4552433732313a2061646472657373207a65726f206973206e6f7420612076616044820152683634b21037bbb732b960b91b6064820152608401610622565b506001600160a01b031660009081526003602052604090205490565b610fa6612e1f565b6000828152600e602052604090205460ff166110045760405162461bcd60e51b815260206004820152601860248201527f41756374696f6e6564204974656d206e6f7420666f756e6400000000000000006044820152606401610622565b6000828152600d6020526040908190208151610140810190925280548290829061102d90613423565b80601f016020809104026020016040519081016040528092919081815260200182805461105990613423565b80156110a65780601f1061107b576101008083540402835291602001916110a6565b820191906000526020600020905b81548152906001019060200180831161108957829003601f168201915b505050505081526020016001820180546110bf90613423565b80601f01602080910402602001604051908101604052809291908181526020018280546110eb90613423565b80156111385780601f1061110d57610100808354040283529160200191611138565b820191906000526020600020905b81548152906001019060200180831161111b57829003601f168201915b5050505050815260200160028201805461115190613423565b80601f016020809104026020016040519081016040528092919081815260200182805461117d90613423565b80156111ca5780601f1061119f576101008083540402835291602001916111ca565b820191906000526020600020905b8154815290600101906020018083116111ad57829003601f168201915b50505091835250506003820154602082015260048201546001600160a01b039081166040830152600583015416606082015260068201546080820152600782015460ff808216151560a084015261010090910416151560c082015260089091015460e09091015292915050565b600a546001600160a01b031633146112615760405162461bcd60e51b81526004016106229061350a565b600b55565b60606001805461050390613423565b6060600061128260095490565b60085461128f9190613556565b90508067ffffffffffffffff8111156112aa576112aa613187565b6040519080825280602002602001820160405280156112e357816020015b6112d0612e1f565b8152602001906001900390816112c85790505b50915060005b6008548110156109eb576000600d81611303846001613474565b815260208101919091526040016000206007015460ff1661158957600d600061132d846001613474565b81526020019081526020016000206040518061014001604052908160008201805461135790613423565b80601f016020809104026020016040519081016040528092919081815260200182805461138390613423565b80156113d05780601f106113a5576101008083540402835291602001916113d0565b820191906000526020600020905b8154815290600101906020018083116113b357829003601f168201915b505050505081526020016001820180546113e990613423565b80601f016020809104026020016040519081016040528092919081815260200182805461141590613423565b80156114625780601f1061143757610100808354040283529160200191611462565b820191906000526020600020905b81548152906001019060200180831161144557829003601f168201915b5050505050815260200160028201805461147b90613423565b80601f01602080910402602001604051908101604052809291908181526020018280546114a790613423565b80156114f45780601f106114c9576101008083540402835291602001916114f4565b820191906000526020600020905b8154815290600101906020018083116114d757829003601f168201915b50505091835250506003820154602082015260048201546001600160a01b039081166040830152600583015416606082015260068201546080820152600782015460ff808216151560a084015261010090910416151560c082015260089091015460e090910152845185908390811061156f5761156f61348c565b60200260200101819052508080611585906134a2565b9150505b5080611594816134a2565b9150506112e9565b6115a733838361277b565b5050565b6000828152600d60205260409020600401546001600160a01b031633146115e45760405162461bcd60e51b81526004016106229061350a565b6000828152600d602052604090206007015460ff16156116515760405162461bcd60e51b815260206004820152602260248201527f4974656d20616c7265616479206f666665726564206f6e20746865206d61726b604482015261195d60f21b6064820152608401610622565b6000828152600d6020526040902060070154610100900460ff16156116b85760405162461bcd60e51b815260206004820152601a60248201527f4974656d206973206c697665206f6e20746865206d61726b65740000000000006044820152606401610622565b600081116117085760405162461bcd60e51b815260206004820152601f60248201527f5072696365206d7573742062652067726561746572207468616e207a65726f006044820152606401610622565b6000918252600d602052604090912060060155565b6117273383612498565b6117435760405162461bcd60e51b8152600401610622906134bd565b61174f8484848461284a565b50505050565b6060600061176260085490565b3360009081526010602052604090205490915067ffffffffffffffff81111561178d5761178d613187565b6040519080825280602002602001820160405280156117c657816020015b6117b3612e1f565b8152602001906001900390816117ab5790505b50915060005b818110156109eb57600033600d826117e5856001613474565b81526020810191909152604001600020600501546001600160a01b03161415611a7357600d6000611817846001613474565b81526020019081526020016000206040518061014001604052908160008201805461184190613423565b80601f016020809104026020016040519081016040528092919081815260200182805461186d90613423565b80156118ba5780601f1061188f576101008083540402835291602001916118ba565b820191906000526020600020905b81548152906001019060200180831161189d57829003601f168201915b505050505081526020016001820180546118d390613423565b80601f01602080910402602001604051908101604052809291908181526020018280546118ff90613423565b801561194c5780601f106119215761010080835404028352916020019161194c565b820191906000526020600020905b81548152906001019060200180831161192f57829003601f168201915b5050505050815260200160028201805461196590613423565b80601f016020809104026020016040519081016040528092919081815260200182805461199190613423565b80156119de5780601f106119b3576101008083540402835291602001916119de565b820191906000526020600020905b8154815290600101906020018083116119c157829003601f168201915b50505091835250506003820154602082015260048201546001600160a01b039081166040830152600583015416606082015260068201546080820152600782015460ff808216151560a084015261010090910416151560c082015260089091015460e0909101528451859083908110611a5957611a5961348c565b60200260200101819052508080611a6f906134a2565b9150505b5080611a7e816134a2565b9150506117cc565b6060611a91826123cb565b60008281526006602052604081208054611aaa90613423565b80601f0160208091040260200160405190810160405280929190818152602001828054611ad690613423565b8015611b235780601f10611af857610100808354040283529160200191611b23565b820191906000526020600020905b815481529060010190602001808311611b0657829003601f168201915b505050505090506000611b4160408051602081019091526000815290565b9050805160001415611b54575092915050565b815115611b86578082604051602001611b6e92919061356d565b60405160208183030381529060405292505050919050565b611b8f8461287d565b949350505050565b60606000611ba460085490565b90508067ffffffffffffffff811115611bbf57611bbf613187565b604051908082528060200260200182016040528015611bf857816020015b611be5612e1f565b815260200190600190039081611bdd5790505b50915060005b818110156109eb57600d6000611c15836001613474565b815260200190815260200160002060405180610140016040529081600082018054611c3f90613423565b80601f0160208091040260200160405190810160405280929190818152602001828054611c6b90613423565b8015611cb85780601f10611c8d57610100808354040283529160200191611cb8565b820191906000526020600020905b815481529060010190602001808311611c9b57829003601f168201915b50505050508152602001600182018054611cd190613423565b80601f0160208091040260200160405190810160405280929190818152602001828054611cfd90613423565b8015611d4a5780601f10611d1f57610100808354040283529160200191611d4a565b820191906000526020600020905b815481529060010190602001808311611d2d57829003601f168201915b50505050508152602001600282018054611d6390613423565b80601f0160208091040260200160405190810160405280929190818152602001828054611d8f90613423565b8015611ddc5780601f10611db157610100808354040283529160200191611ddc565b820191906000526020600020905b815481529060010190602001808311611dbf57829003601f168201915b50505091835250506003820154602082015260048201546001600160a01b039081166040830152600583015416606082015260068201546080820152600782015460ff808216151560a084015261010090910416151560c082015260089091015460e0909101528351849083908110611e5757611e5761348c565b60200260200101819052508080611e6d906134a2565b915050611bfe565b60606000611e8260085490565b90508067ffffffffffffffff811115611e9d57611e9d613187565b604051908082528060200260200182016040528015611ed657816020015b611ec3612e1f565b815260200190600190039081611ebb5790505b50915060005b818110156109eb576000600d81611ef4846001613474565b8152602081019190915260400160002060070154610100900460ff168015611f3b575042600d6000611f27856001613474565b815260200190815260200160002060080154115b156121ab57600d6000611f4f846001613474565b815260200190815260200160002060405180610140016040529081600082018054611f7990613423565b80601f0160208091040260200160405190810160405280929190818152602001828054611fa590613423565b8015611ff25780601f10611fc757610100808354040283529160200191611ff2565b820191906000526020600020905b815481529060010190602001808311611fd557829003601f168201915b5050505050815260200160018201805461200b90613423565b80601f016020809104026020016040519081016040528092919081815260200182805461203790613423565b80156120845780601f1061205957610100808354040283529160200191612084565b820191906000526020600020905b81548152906001019060200180831161206757829003601f168201915b5050505050815260200160028201805461209d90613423565b80601f01602080910402602001604051908101604052809291908181526020018280546120c990613423565b80156121165780601f106120eb57610100808354040283529160200191612116565b820191906000526020600020905b8154815290600101906020018083116120f957829003601f168201915b50505091835250506003820154602082015260048201546001600160a01b039081166040830152600583015416606082015260068201546080820152600782015460ff808216151560a084015261010090910416151560c082015260089091015460e09091015284518590839081106121915761219161348c565b602002602001018190525080806121a7906134a2565b9150505b50806121b6816134a2565b915050611edc565b6121c6612687565b6000818152600d602052604090206006015434101561221d5760405162461bcd60e51b8152602060048201526013602482015272125b9cdd59999a58da595b9d08105b5bdd5b9d606a1b6044820152606401610622565b6000818152600d602052604090206008015442106122755760405162461bcd60e51b815260206004820152601560248201527441756374696f6e206e6f7420617661696c61626c6560581b6044820152606401610622565b6000818152600d6020908152604080832060048101546005820180546001600160a01b031916339081179091556007909201805461ffff191660011790559084526010909252822080546001600160a01b03909216926122d4836134a2565b90915550506001600160a01b03811660009081526010602052604081208054916122fd8361359c565b9190505550612310600980546001019055565b60006064600c54346123229190613537565b61232c91906135b3565b90506123418261233c8334613556565b61271b565b61234b828261271b565b6000838152600d6020526040908190206003015490516323b872dd60e01b8152306004820181905233602483015260448201929092526323b872dd90606401600060405180830381600087803b1580156123a457600080fd5b505af11580156123b8573d6000803e3d6000fd5b5050505050506123c86001600755565b50565b6000818152600260205260409020546001600160a01b03166123c85760405162461bcd60e51b8152602060048201526018602482015277115490cdcc8c4e881a5b9d985b1a59081d1bdad95b88125160421b6044820152606401610622565b600081815260046020526040902080546001600160a01b0319166001600160a01b038416908117909155819061245f82610eb8565b6001600160a01b03167f8c5be1e5ebec7d5bd14f71427d1e84f3dd0314c0f7b2291e5b200ac8c7c3b92560405160405180910390a45050565b6000806124a483610eb8565b9050806001600160a01b0316846001600160a01b031614806124eb57506001600160a01b0380821660009081526005602090815260408083209388168352929052205460ff165b80611b8f5750836001600160a01b031661250484610586565b6001600160a01b031614949350505050565b826001600160a01b031661252982610eb8565b6001600160a01b03161461254f5760405162461bcd60e51b8152600401610622906135d5565b6001600160a01b0382166125b15760405162461bcd60e51b8152602060048201526024808201527f4552433732313a207472616e7366657220746f20746865207a65726f206164646044820152637265737360e01b6064820152608401610622565b6125be83838360016128f1565b826001600160a01b03166125d182610eb8565b6001600160a01b0316146125f75760405162461bcd60e51b8152600401610622906135d5565b600081815260046020908152604080832080546001600160a01b03199081169091556001600160a01b0387811680865260038552838620805460001901905590871680865283862080546001019055868652600290945282852080549092168417909155905184937fddf252ad1be2c89b69c2b068fc378daa952ba7f163c4a11628f55a4df523b3ef91a4505050565b600260075414156126da5760405162461bcd60e51b815260206004820152601f60248201527f5265656e7472616e637947756172643a207265656e7472616e742063616c6c006044820152606401610622565b6002600755565b60006126f1600880546001019055565b60006126fc60085490565b90506127083382612979565b6127128184612b12565b50600192915050565b6000826001600160a01b03168260405160006040518083038185875af1925050503d8060008114612768576040519150601f19603f3d011682016040523d82523d6000602084013e61276d565b606091505b50509050806106c357600080fd5b816001600160a01b0316836001600160a01b031614156127dd5760405162461bcd60e51b815260206004820152601960248201527f4552433732313a20617070726f766520746f2063616c6c6572000000000000006044820152606401610622565b6001600160a01b03838116600081815260056020908152604080832094871680845294825291829020805460ff191686151590811790915591519182527f17307eab39ab6107e8899845ad3d59bd9653f200f220920489ca2b5937696c31910160405180910390a3505050565b612855848484612516565b61286184848484612bac565b61174f5760405162461bcd60e51b81526004016106229061361a565b6060612888826123cb565b600061289f60408051602081019091526000815290565b905060008151116128bf57604051806020016040528060008152506128ea565b806128c984612caa565b6040516020016128da92919061356d565b6040516020818303038152906040525b9392505050565b600181111561174f576001600160a01b03841615612937576001600160a01b03841660009081526003602052604081208054839290612931908490613556565b90915550505b6001600160a01b0383161561174f576001600160a01b0383166000908152600360205260408120805483929061296e908490613474565b909155505050505050565b6001600160a01b0382166129cf5760405162461bcd60e51b815260206004820181905260248201527f4552433732313a206d696e7420746f20746865207a65726f20616464726573736044820152606401610622565b6000818152600260205260409020546001600160a01b031615612a345760405162461bcd60e51b815260206004820152601c60248201527f4552433732313a20746f6b656e20616c7265616479206d696e746564000000006044820152606401610622565b612a426000838360016128f1565b6000818152600260205260409020546001600160a01b031615612aa75760405162461bcd60e51b815260206004820152601c60248201527f4552433732313a20746f6b656e20616c7265616479206d696e746564000000006044820152606401610622565b6001600160a01b038216600081815260036020908152604080832080546001019055848352600290915280822080546001600160a01b0319168417905551839291907fddf252ad1be2c89b69c2b068fc378daa952ba7f163c4a11628f55a4df523b3ef908290a45050565b6000828152600260205260409020546001600160a01b0316612b8d5760405162461bcd60e51b815260206004820152602e60248201527f45524337323155524953746f726167653a2055524920736574206f66206e6f6e60448201526d32bc34b9ba32b73a103a37b5b2b760911b6064820152608401610622565b600082815260066020908152604090912082516106c392840190612e88565b60006001600160a01b0384163b15612c9f57604051630a85bd0160e11b81526001600160a01b0385169063150b7a0290612bf090339089908890889060040161366c565b6020604051808303816000875af1925050508015612c2b575060408051601f3d908101601f19168201909252612c28918101906136a9565b60015b612c85573d808015612c59576040519150601f19603f3d011682016040523d82523d6000602084013e612c5e565b606091505b508051612c7d5760405162461bcd60e51b81526004016106229061361a565b805181602001fd5b6001600160e01b031916630a85bd0160e11b149050611b8f565b506001949350505050565b60606000612cb783612d47565b600101905060008167ffffffffffffffff811115612cd757612cd7613187565b6040519080825280601f01601f191660200182016040528015612d01576020820181803683370190505b5090508181016020015b600019016f181899199a1a9b1b9c1cb0b131b232b360811b600a86061a8153600a8504945084612d3a57612d3f565b612d0b565b509392505050565b60008072184f03e93ff9f4daa797ed6e38ed64bf6a1f0160401b8310612d865772184f03e93ff9f4daa797ed6e38ed64bf6a1f0160401b830492506040015b6d04ee2d6d415b85acef81000000008310612db2576d04ee2d6d415b85acef8100000000830492506020015b662386f26fc100008310612dd057662386f26fc10000830492506010015b6305f5e1008310612de8576305f5e100830492506008015b6127108310612dfc57612710830492506004015b60648310612e0e576064830492506002015b600a83106104ee5760010192915050565b6040518061014001604052806060815260200160608152602001606081526020016000815260200160006001600160a01b0316815260200160006001600160a01b0316815260200160008152602001600015158152602001600015158152602001600081525090565b828054612e9490613423565b90600052602060002090601f016020900481019282612eb65760008555612efc565b82601f10612ecf57805160ff1916838001178555612efc565b82800160010185558215612efc579182015b82811115612efc578251825591602001919060010190612ee1565b50612f08929150612f0c565b5090565b5b80821115612f085760008155600101612f0d565b6001600160e01b0319811681146123c857600080fd5b600060208284031215612f4957600080fd5b81356128ea81612f21565b60005b83811015612f6f578181015183820152602001612f57565b8381111561174f5750506000910152565b60008151808452612f98816020860160208601612f54565b601f01601f19169290920160200192915050565b6020815260006128ea6020830184612f80565b600060208284031215612fd157600080fd5b5035919050565b80356001600160a01b0381168114612fef57600080fd5b919050565b6000806040838503121561300757600080fd5b61301083612fd8565b946020939093013593505050565b6000610140825181855261303482860182612f80565b9150506020830151848203602086015261304e8282612f80565b915050604083015184820360408601526130688282612f80565b91505060608301516060850152608083015161308f60808601826001600160a01b03169052565b5060a08301516130aa60a08601826001600160a01b03169052565b5060c083015160c085015260e08301516130c860e086018215159052565b50610100838101511515908501526101209283015192909301919091525090565b6000602080830181845280855180835260408601915060408160051b870101925083870160005b8281101561313e57603f1988860301845261312c85835161301e565b94509285019290850190600101613110565b5092979650505050505050565b60008060006060848603121561316057600080fd5b61316984612fd8565b925061317760208501612fd8565b9150604084013590509250925092565b634e487b7160e01b600052604160045260246000fd5b600067ffffffffffffffff808411156131b8576131b8613187565b604051601f8501601f19908116603f011681019082821181831017156131e0576131e0613187565b816040528093508581528686860111156131f957600080fd5b858560208301376000602087830101525050509392505050565b600082601f83011261322457600080fd5b6128ea8383356020850161319d565b600080600080600060a0868803121561324b57600080fd5b853567ffffffffffffffff8082111561326357600080fd5b61326f89838a01613213565b9650602088013591508082111561328557600080fd5b61329189838a01613213565b955060408801359150808211156132a757600080fd5b6132b389838a01613213565b945060608801359150808211156132c957600080fd5b506132d688828901613213565b95989497509295608001359392505050565b600080604083850312156132fb57600080fd5b50508035926020909101359150565b60006020828403121561331c57600080fd5b6128ea82612fd8565b6020815260006128ea602083018461301e565b6000806040838503121561334b57600080fd5b61335483612fd8565b91506020830135801515811461336957600080fd5b809150509250929050565b6000806000806080858703121561338a57600080fd5b61339385612fd8565b93506133a160208601612fd8565b925060408501359150606085013567ffffffffffffffff8111156133c457600080fd5b8501601f810187136133d557600080fd5b6133e48782356020840161319d565b91505092959194509250565b6000806040838503121561340357600080fd5b61340c83612fd8565b915061341a60208401612fd8565b90509250929050565b600181811c9082168061343757607f821691505b6020821081141561345857634e487b7160e01b600052602260045260246000fd5b50919050565b634e487b7160e01b600052601160045260246000fd5b600082198211156134875761348761345e565b500190565b634e487b7160e01b600052603260045260246000fd5b60006000198214156134b6576134b661345e565b5060010190565b6020808252602d908201527f4552433732313a2063616c6c6572206973206e6f7420746f6b656e206f776e6560408201526c1c881bdc88185c1c1c9bdd9959609a1b606082015260800190565b602080825260139082015272556e617574686f72697a656420656e7469747960681b604082015260600190565b60008160001904831182151516156135515761355161345e565b500290565b6000828210156135685761356861345e565b500390565b6000835161357f818460208801612f54565b835190830190613593818360208801612f54565b01949350505050565b6000816135ab576135ab61345e565b506000190190565b6000826135d057634e487b7160e01b600052601260045260246000fd5b500490565b60208082526025908201527f4552433732313a207472616e736665722066726f6d20696e636f72726563742060408201526437bbb732b960d91b606082015260800190565b60208082526032908201527f4552433732313a207472616e7366657220746f206e6f6e20455243373231526560408201527131b2b4bb32b91034b6b83632b6b2b73a32b960711b606082015260800190565b6001600160a01b038581168252841660208201526040810183905260806060820181905260009061369f90830184612f80565b9695505050505050565b6000602082840312156136bb57600080fd5b81516128ea81612f2156fea26469706673582212201accdf96ba58846acd727dfe98bd0806a44ff9646713734b102f555ca8cf7c5964736f6c634300080b0033",
  "linkReferences": {},
  "deployedLinkReferences": {}
}