{
  "_format": "hh-sol-artifact-1",
  "contractName": "Auction",
  "sourceName": "src/contracts/Auction.sol",
  "abi": [
    {
      "inputs": [
        {
          "internalType": "uint256",
          "name": "_royaltyFee",
          "type": "uint256"
        }
      ],
      "stateMutability": "nonpayable",
      "type": "constructor"
    },
    {
      "anonymous": false,
      "inputs": [
        {
          "indexed": true,
          "internalType": "address",
          "name": "owner",
          "type": "address"
        },
        {
          "indexed": true,
          "internalType": "address",
          "name": "approved",
          "type": "address"
        },
        {
          "indexed": true,
          "internalType": "uint256",
          "name": "tokenId",
          "type": "uint256"
        }
      ],
      "name": "Approval",
      "type": "event"
    },
    {
      "anonymous": false,
      "inputs": [
        {
          "indexed": true,
          "internalType": "address",
          "name": "owner",
          "type": "address"
        },
        {
          "indexed": true,
          "internalType": "address",
          "name": "operator",
          "type": "address"
        },
        {
          "indexed": false,
          "internalType": "bool",
          "name": "approved",
          "type": "bool"
        }
      ],
      "name": "ApprovalForAll",
      "type": "event"
    },
    {
      "anonymous": false,
      "inputs": [
        {
          "indexed": true,
          "internalType": "uint256",
          "name": "tokenId",
          "type": "uint256"
        },
        {
          "indexed": false,
          "internalType": "address",
          "name": "seller",
          "type": "address"
        },
        {
          "indexed": false,
          "internalType": "address",
          "name": "owner",
          "type": "address"
        },
        {
          "indexed": false,
          "internalType": "uint256",
          "name": "price",
          "type": "uint256"
        },
        {
          "indexed": false,
          "internalType": "bool",
          "name": "sold",
          "type": "bool"
        }
      ],
      "name": "AuctionItemCreated",
      "type": "event"
    },
    {
      "anonymous": false,
      "inputs": [
        {
          "indexed": true,
          "internalType": "address",
          "name": "from",
          "type": "address"
        },
        {
          "indexed": true,
          "internalType": "address",
          "name": "to",
          "type": "address"
        },
        {
          "indexed": true,
          "internalType": "uint256",
          "name": "tokenId",
          "type": "uint256"
        }
      ],
      "name": "Transfer",
      "type": "event"
    },
    {
      "inputs": [
        {
          "internalType": "address",
          "name": "to",
          "type": "address"
        },
        {
          "internalType": "uint256",
          "name": "tokenId",
          "type": "uint256"
        }
      ],
      "name": "approve",
      "outputs": [],
      "stateMutability": "nonpayable",
      "type": "function"
    },
    {
      "inputs": [
        {
          "internalType": "address",
          "name": "owner",
          "type": "address"
        }
      ],
      "name": "balanceOf",
      "outputs": [
        {
          "internalType": "uint256",
          "name": "",
          "type": "uint256"
        }
      ],
      "stateMutability": "view",
      "type": "function"
    },
    {
      "inputs": [
        {
          "internalType": "uint256",
          "name": "tokenId",
          "type": "uint256"
        }
      ],
      "name": "buyAuctionedItem",
      "outputs": [],
      "stateMutability": "payable",
      "type": "function"
    },
    {
      "inputs": [
        {
          "internalType": "uint256",
          "name": "tokenId",
          "type": "uint256"
        },
        {
          "internalType": "uint256",
          "name": "price",
          "type": "uint256"
        }
      ],
      "name": "changePrice",
      "outputs": [],
      "stateMutability": "nonpayable",
      "type": "function"
    },
    {
      "inputs": [
        {
          "internalType": "uint256",
          "name": "tokenId",
          "type": "uint256"
        },
        {
          "internalType": "uint256",
          "name": "bid",
          "type": "uint256"
        }
      ],
      "name": "claimPrize",
      "outputs": [],
      "stateMutability": "nonpayable",
      "type": "function"
    },
    {
      "inputs": [
        {
          "internalType": "string",
          "name": "name",
          "type": "string"
        },
        {
          "internalType": "string",
          "name": "description",
          "type": "string"
        },
        {
          "internalType": "string",
          "name": "image",
          "type": "string"
        },
        {
          "internalType": "string",
          "name": "tokenURI",
          "type": "string"
        },
        {
          "internalType": "uint256",
          "name": "price",
          "type": "uint256"
        }
      ],
      "name": "createAuction",
      "outputs": [],
      "stateMutability": "payable",
      "type": "function"
    },
    {
      "inputs": [],
      "name": "getAllAuctions",
      "outputs": [
        {
          "components": [
            {
              "internalType": "string",
              "name": "name",
              "type": "string"
            },
            {
              "internalType": "string",
              "name": "description",
              "type": "string"
            },
            {
              "internalType": "string",
              "name": "image",
              "type": "string"
            },
            {
              "internalType": "uint256",
              "name": "tokenId",
              "type": "uint256"
            },
            {
              "internalType": "address",
              "name": "seller",
              "type": "address"
            },
            {
              "internalType": "address",
              "name": "owner",
              "type": "address"
            },
            {
              "internalType": "address",
              "name": "winner",
              "type": "address"
            },
            {
              "internalType": "uint256",
              "name": "price",
              "type": "uint256"
            },
            {
              "internalType": "bool",
              "name": "sold",
              "type": "bool"
            },
            {
              "internalType": "bool",
              "name": "live",
              "type": "bool"
            },
            {
              "internalType": "bool",
              "name": "biddable",
              "type": "bool"
            },
            {
              "internalType": "uint256",
              "name": "duration",
              "type": "uint256"
            }
          ],
          "internalType": "struct Auction.AuctionStruct[]",
          "name": "Auctions",
          "type": "tuple[]"
        }
      ],
      "stateMutability": "view",
      "type": "function"
    },
    {
      "inputs": [
        {
          "internalType": "uint256",
          "name": "tokenId",
          "type": "uint256"
        }
      ],
      "name": "getApproved",
      "outputs": [
        {
          "internalType": "address",
          "name": "",
          "type": "address"
        }
      ],
      "stateMutability": "view",
      "type": "function"
    },
    {
      "inputs": [
        {
          "internalType": "uint256",
          "name": "id",
          "type": "uint256"
        }
      ],
      "name": "getAuction",
      "outputs": [
        {
          "components": [
            {
              "internalType": "string",
              "name": "name",
              "type": "string"
            },
            {
              "internalType": "string",
              "name": "description",
              "type": "string"
            },
            {
              "internalType": "string",
              "name": "image",
              "type": "string"
            },
            {
              "internalType": "uint256",
              "name": "tokenId",
              "type": "uint256"
            },
            {
              "internalType": "address",
              "name": "seller",
              "type": "address"
            },
            {
              "internalType": "address",
              "name": "owner",
              "type": "address"
            },
            {
              "internalType": "address",
              "name": "winner",
              "type": "address"
            },
            {
              "internalType": "uint256",
              "name": "price",
              "type": "uint256"
            },
            {
              "internalType": "bool",
              "name": "sold",
              "type": "bool"
            },
            {
              "internalType": "bool",
              "name": "live",
              "type": "bool"
            },
            {
              "internalType": "bool",
              "name": "biddable",
              "type": "bool"
            },
            {
              "internalType": "uint256",
              "name": "duration",
              "type": "uint256"
            }
          ],
          "internalType": "struct Auction.AuctionStruct",
          "name": "",
          "type": "tuple"
        }
      ],
      "stateMutability": "view",
      "type": "function"
    },
    {
      "inputs": [
        {
          "internalType": "uint256",
          "name": "tokenId",
          "type": "uint256"
        }
      ],
      "name": "getBidders",
      "outputs": [
        {
          "components": [
            {
              "internalType": "address",
              "name": "bidder",
              "type": "address"
            },
            {
              "internalType": "uint256",
              "name": "price",
              "type": "uint256"
            },
            {
              "internalType": "uint256",
              "name": "timestamp",
              "type": "uint256"
            },
            {
              "internalType": "bool",
              "name": "refunded",
              "type": "bool"
            },
            {
              "internalType": "bool",
              "name": "won",
              "type": "bool"
            }
          ],
          "internalType": "struct Auction.BidderStruct[]",
          "name": "",
          "type": "tuple[]"
        }
      ],
      "stateMutability": "view",
      "type": "function"
    },
    {
      "inputs": [],
      "name": "getListingPrice",
      "outputs": [
        {
          "internalType": "uint256",
          "name": "",
          "type": "uint256"
        }
      ],
      "stateMutability": "view",
      "type": "function"
    },
    {
      "inputs": [],
      "name": "getLiveAuctions",
      "outputs": [
        {
          "components": [
            {
              "internalType": "string",
              "name": "name",
              "type": "string"
            },
            {
              "internalType": "string",
              "name": "description",
              "type": "string"
            },
            {
              "internalType": "string",
              "name": "image",
              "type": "string"
            },
            {
              "internalType": "uint256",
              "name": "tokenId",
              "type": "uint256"
            },
            {
              "internalType": "address",
              "name": "seller",
              "type": "address"
            },
            {
              "internalType": "address",
              "name": "owner",
              "type": "address"
            },
            {
              "internalType": "address",
              "name": "winner",
              "type": "address"
            },
            {
              "internalType": "uint256",
              "name": "price",
              "type": "uint256"
            },
            {
              "internalType": "bool",
              "name": "sold",
              "type": "bool"
            },
            {
              "internalType": "bool",
              "name": "live",
              "type": "bool"
            },
            {
              "internalType": "bool",
              "name": "biddable",
              "type": "bool"
            },
            {
              "internalType": "uint256",
              "name": "duration",
              "type": "uint256"
            }
          ],
          "internalType": "struct Auction.AuctionStruct[]",
          "name": "Auctions",
          "type": "tuple[]"
        }
      ],
      "stateMutability": "view",
      "type": "function"
    },
    {
      "inputs": [],
      "name": "getMyAuctions",
      "outputs": [
        {
          "components": [
            {
              "internalType": "string",
              "name": "name",
              "type": "string"
            },
            {
              "internalType": "string",
              "name": "description",
              "type": "string"
            },
            {
              "internalType": "string",
              "name": "image",
              "type": "string"
            },
            {
              "internalType": "uint256",
              "name": "tokenId",
              "type": "uint256"
            },
            {
              "internalType": "address",
              "name": "seller",
              "type": "address"
            },
            {
              "internalType": "address",
              "name": "owner",
              "type": "address"
            },
            {
              "internalType": "address",
              "name": "winner",
              "type": "address"
            },
            {
              "internalType": "uint256",
              "name": "price",
              "type": "uint256"
            },
            {
              "internalType": "bool",
              "name": "sold",
              "type": "bool"
            },
            {
              "internalType": "bool",
              "name": "live",
              "type": "bool"
            },
            {
              "internalType": "bool",
              "name": "biddable",
              "type": "bool"
            },
            {
              "internalType": "uint256",
              "name": "duration",
              "type": "uint256"
            }
          ],
          "internalType": "struct Auction.AuctionStruct[]",
          "name": "Auctions",
          "type": "tuple[]"
        }
      ],
      "stateMutability": "view",
      "type": "function"
    },
    {
      "inputs": [],
      "name": "getSoldAuction",
      "outputs": [
        {
          "components": [
            {
              "internalType": "string",
              "name": "name",
              "type": "string"
            },
            {
              "internalType": "string",
              "name": "description",
              "type": "string"
            },
            {
              "internalType": "string",
              "name": "image",
              "type": "string"
            },
            {
              "internalType": "uint256",
              "name": "tokenId",
              "type": "uint256"
            },
            {
              "internalType": "address",
              "name": "seller",
              "type": "address"
            },
            {
              "internalType": "address",
              "name": "owner",
              "type": "address"
            },
            {
              "internalType": "address",
              "name": "winner",
              "type": "address"
            },
            {
              "internalType": "uint256",
              "name": "price",
              "type": "uint256"
            },
            {
              "internalType": "bool",
              "name": "sold",
              "type": "bool"
            },
            {
              "internalType": "bool",
              "name": "live",
              "type": "bool"
            },
            {
              "internalType": "bool",
              "name": "biddable",
              "type": "bool"
            },
            {
              "internalType": "uint256",
              "name": "duration",
              "type": "uint256"
            }
          ],
          "internalType": "struct Auction.AuctionStruct[]",
          "name": "Auctions",
          "type": "tuple[]"
        }
      ],
      "stateMutability": "view",
      "type": "function"
    },
    {
      "inputs": [],
      "name": "getUnsoldAuction",
      "outputs": [
        {
          "components": [
            {
              "internalType": "string",
              "name": "name",
              "type": "string"
            },
            {
              "internalType": "string",
              "name": "description",
              "type": "string"
            },
            {
              "internalType": "string",
              "name": "image",
              "type": "string"
            },
            {
              "internalType": "uint256",
              "name": "tokenId",
              "type": "uint256"
            },
            {
              "internalType": "address",
              "name": "seller",
              "type": "address"
            },
            {
              "internalType": "address",
              "name": "owner",
              "type": "address"
            },
            {
              "internalType": "address",
              "name": "winner",
              "type": "address"
            },
            {
              "internalType": "uint256",
              "name": "price",
              "type": "uint256"
            },
            {
              "internalType": "bool",
              "name": "sold",
              "type": "bool"
            },
            {
              "internalType": "bool",
              "name": "live",
              "type": "bool"
            },
            {
              "internalType": "bool",
              "name": "biddable",
              "type": "bool"
            },
            {
              "internalType": "uint256",
              "name": "duration",
              "type": "uint256"
            }
          ],
          "internalType": "struct Auction.AuctionStruct[]",
          "name": "Auctions",
          "type": "tuple[]"
        }
      ],
      "stateMutability": "view",
      "type": "function"
    },
    {
      "inputs": [
        {
          "internalType": "address",
          "name": "owner",
          "type": "address"
        },
        {
          "internalType": "address",
          "name": "operator",
          "type": "address"
        }
      ],
      "name": "isApprovedForAll",
      "outputs": [
        {
          "internalType": "bool",
          "name": "",
          "type": "bool"
        }
      ],
      "stateMutability": "view",
      "type": "function"
    },
    {
      "inputs": [],
      "name": "name",
      "outputs": [
        {
          "internalType": "string",
          "name": "",
          "type": "string"
        }
      ],
      "stateMutability": "view",
      "type": "function"
    },
    {
      "inputs": [
        {
          "internalType": "uint256",
          "name": "tokenId",
          "type": "uint256"
        },
        {
          "internalType": "uint256",
          "name": "period",
          "type": "uint256"
        },
        {
          "internalType": "bool",
          "name": "biddable",
          "type": "bool"
        }
      ],
      "name": "offerAuction",
      "outputs": [],
      "stateMutability": "nonpayable",
      "type": "function"
    },
    {
      "inputs": [
        {
          "internalType": "uint256",
          "name": "tokenId",
          "type": "uint256"
        }
      ],
      "name": "ownerOf",
      "outputs": [
        {
          "internalType": "address",
          "name": "",
          "type": "address"
        }
      ],
      "stateMutability": "view",
      "type": "function"
    },
    {
      "inputs": [
        {
          "internalType": "uint256",
          "name": "tokenId",
          "type": "uint256"
        }
      ],
      "name": "placeBid",
      "outputs": [],
      "stateMutability": "payable",
      "type": "function"
    },
    {
      "inputs": [
        {
          "internalType": "address",
          "name": "from",
          "type": "address"
        },
        {
          "internalType": "address",
          "name": "to",
          "type": "address"
        },
        {
          "internalType": "uint256",
          "name": "tokenId",
          "type": "uint256"
        }
      ],
      "name": "safeTransferFrom",
      "outputs": [],
      "stateMutability": "nonpayable",
      "type": "function"
    },
    {
      "inputs": [
        {
          "internalType": "address",
          "name": "from",
          "type": "address"
        },
        {
          "internalType": "address",
          "name": "to",
          "type": "address"
        },
        {
          "internalType": "uint256",
          "name": "tokenId",
          "type": "uint256"
        },
        {
          "internalType": "bytes",
          "name": "data",
          "type": "bytes"
        }
      ],
      "name": "safeTransferFrom",
      "outputs": [],
      "stateMutability": "nonpayable",
      "type": "function"
    },
    {
      "inputs": [
        {
          "internalType": "address",
          "name": "operator",
          "type": "address"
        },
        {
          "internalType": "bool",
          "name": "approved",
          "type": "bool"
        }
      ],
      "name": "setApprovalForAll",
      "outputs": [],
      "stateMutability": "nonpayable",
      "type": "function"
    },
    {
      "inputs": [
        {
          "internalType": "uint256",
          "name": "_price",
          "type": "uint256"
        }
      ],
      "name": "setListingPrice",
      "outputs": [],
      "stateMutability": "nonpayable",
      "type": "function"
    },
    {
      "inputs": [
        {
          "internalType": "bytes4",
          "name": "interfaceId",
          "type": "bytes4"
        }
      ],
      "name": "supportsInterface",
      "outputs": [
        {
          "internalType": "bool",
          "name": "",
          "type": "bool"
        }
      ],
      "stateMutability": "view",
      "type": "function"
    },
    {
      "inputs": [],
      "name": "symbol",
      "outputs": [
        {
          "internalType": "string",
          "name": "",
          "type": "string"
        }
      ],
      "stateMutability": "view",
      "type": "function"
    },
    {
      "inputs": [
        {
          "internalType": "uint256",
          "name": "tokenId",
          "type": "uint256"
        }
      ],
      "name": "tokenURI",
      "outputs": [
        {
          "internalType": "string",
          "name": "",
          "type": "string"
        }
      ],
      "stateMutability": "view",
      "type": "function"
    },
    {
      "inputs": [
        {
          "internalType": "address",
          "name": "from",
          "type": "address"
        },
        {
          "internalType": "address",
          "name": "to",
          "type": "address"
        },
        {
          "internalType": "uint256",
          "name": "tokenId",
          "type": "uint256"
        }
      ],
      "name": "transferFrom",
      "outputs": [],
      "stateMutability": "nonpayable",
      "type": "function"
    }
  ],
  "bytecode": "0x608060405266470de4df820000600a553480156200001c57600080fd5b5060405162004382380380620043828339810160408190526200003f9162000170565b604080518082018252600f81526e44616c746f6e696320546f6b656e7360881b60208083019182528351808501909452600384526211105560ea1b9084015281519192916200009191600091620000ca565b508051620000a7906001906020840190620000ca565b5050600160075550600980546001600160a01b03191633179055600b55620001c7565b828054620000d8906200018a565b90600052602060002090601f016020900481019282620000fc576000855562000147565b82601f106200011757805160ff191683800117855562000147565b8280016001018555821562000147579182015b82811115620001475782518255916020019190600101906200012a565b506200015592915062000159565b5090565b5b808211156200015557600081556001016200015a565b6000602082840312156200018357600080fd5b5051919050565b600181811c908216806200019f57607f821691505b60208210811415620001c157634e487b7160e01b600052602260045260246000fd5b50919050565b6141ab80620001d76000396000f3fe6080604052600436106101b75760003560e01c80637b154140116100ec578063b88d4fde1161008a578063cbd2bdfd11610064578063cbd2bdfd146104cd578063db0bd5c9146104e2578063e985e9c5146104f7578063f5a06acf1461054057600080fd5b8063b88d4fde14610478578063bf65a33314610498578063c87b56dd146104ad57600080fd5b80639979ef45116100c65780639979ef45146104105780639e78efd614610423578063a22cb46514610438578063b3de019c1461045857600080fd5b80637b154140146103bb5780637c726b69146103db57806395d89b41146103fb57600080fd5b8063315c0bdb116101595780634fa7b507116101335780634fa7b507146103215780636352211e1461034e57806370a082311461036e57806378bd79351461038e57600080fd5b8063315c0bdb146102ce57806333748dcb146102ee57806342842e0e1461030157600080fd5b8063095ea7b311610195578063095ea7b31461024b57806312e855851461026d5780631d8df68f1461028c57806323b872dd146102ae57600080fd5b806301ffc9a7146101bc57806306fdde03146101f1578063081812fc14610213575b600080fd5b3480156101c857600080fd5b506101dc6101d736600461390e565b610553565b60405190151581526020015b60405180910390f35b3480156101fd57600080fd5b506102066105a5565b6040516101e89190613983565b34801561021f57600080fd5b5061023361022e366004613996565b610637565b6040516001600160a01b0390911681526020016101e8565b34801561025757600080fd5b5061026b6102663660046139cb565b61065e565b005b34801561027957600080fd5b50600a545b6040519081526020016101e8565b34801561029857600080fd5b506102a1610779565b6040516101e89190613aea565b3480156102ba57600080fd5b5061026b6102c9366004613b4c565b610b0c565b3480156102da57600080fd5b5061026b6102e9366004613b98565b610b3d565b61026b6102fc366004613c79565b610cf2565b34801561030d57600080fd5b5061026b61031c366004613b4c565b611015565b34801561032d57600080fd5b5061034161033c366004613996565b611030565b6040516101e89190613d2e565b34801561035a57600080fd5b50610233610369366004613996565b6110e2565b34801561037a57600080fd5b5061027e610389366004613da9565b611142565b34801561039a57600080fd5b506103ae6103a9366004613996565b6111c8565b6040516101e89190613dc4565b3480156103c757600080fd5b5061026b6103d6366004613dd7565b61147d565b3480156103e757600080fd5b5061026b6103f6366004613996565b611666565b34801561040757600080fd5b50610206611695565b61026b61041e366004613996565b6116a4565b34801561042f57600080fd5b506102a1611885565b34801561044457600080fd5b5061026b610453366004613df9565b611c0f565b34801561046457600080fd5b5061026b610473366004613dd7565b611c1e565b34801561048457600080fd5b5061026b610493366004613e2c565b611d90565b3480156104a457600080fd5b506102a1611dc8565b3480156104b957600080fd5b506102066104c8366004613996565b612164565b3480156104d957600080fd5b506102a1612275565b3480156104ee57600080fd5b506102a1612574565b34801561050357600080fd5b506101dc610512366004613ea8565b6001600160a01b03918216600090815260056020908152604080832093909416825291909152205460ff1690565b61026b61054e366004613996565b612960565b60006001600160e01b031982166380ac58cd60e01b148061058457506001600160e01b03198216635b5e139f60e01b145b8061059f57506301ffc9a760e01b6001600160e01b03198316145b92915050565b6060600080546105b490613ed2565b80601f01602080910402602001604051908101604052809291908181526020018280546105e090613ed2565b801561062d5780601f106106025761010080835404028352916020019161062d565b820191906000526020600020905b81548152906001019060200180831161061057829003601f168201915b5050505050905090565b600061064282612bcb565b506000908152600460205260409020546001600160a01b031690565b6000610669826110e2565b9050806001600160a01b0316836001600160a01b031614156106dc5760405162461bcd60e51b815260206004820152602160248201527f4552433732313a20617070726f76616c20746f2063757272656e74206f776e656044820152603960f91b60648201526084015b60405180910390fd5b336001600160a01b03821614806106f857506106f88133610512565b61076a5760405162461bcd60e51b815260206004820152603d60248201527f4552433732313a20617070726f76652063616c6c6572206973206e6f7420746f60448201527f6b656e206f776e6572206f7220617070726f76656420666f7220616c6c00000060648201526084016106d3565b6107748383612c2a565b505050565b6060600061078660085490565b90506000805b828110156107df57600c60006107a3836001613f23565b815260208101919091526040016000206008015460ff16156107cd57816107c981613f3b565b9250505b806107d781613f3b565b91505061078c565b508067ffffffffffffffff8111156107f9576107f9613bcd565b60405190808252806020026020018201604052801561083257816020015b61081f6137dd565b8152602001906001900390816108175790505b5092506000805b83811015610b0557600c6000610850836001613f23565b815260208101919091526040016000206008015460ff1615610af357600c600061087b836001613f23565b8152602001908152602001600020604051806101800160405290816000820180546108a590613ed2565b80601f01602080910402602001604051908101604052809291908181526020018280546108d190613ed2565b801561091e5780601f106108f35761010080835404028352916020019161091e565b820191906000526020600020905b81548152906001019060200180831161090157829003601f168201915b5050505050815260200160018201805461093790613ed2565b80601f016020809104026020016040519081016040528092919081815260200182805461096390613ed2565b80156109b05780601f10610985576101008083540402835291602001916109b0565b820191906000526020600020905b81548152906001019060200180831161099357829003601f168201915b505050505081526020016002820180546109c990613ed2565b80601f01602080910402602001604051908101604052809291908181526020018280546109f590613ed2565b8015610a425780601f10610a1757610100808354040283529160200191610a42565b820191906000526020600020905b815481529060010190602001808311610a2557829003601f168201915b50505091835250506003820154602082015260048201546001600160a01b0390811660408301526005830154811660608301526006830154166080820152600782015460a0820152600882015460ff808216151560c08401526101008083048216151560e08501526201000090920416151590820152600990910154610120909101528551869084908110610ad957610ad9613f56565b60200260200101819052508180610aef90613f3b565b9250505b80610afd81613f3b565b915050610839565b5050505090565b610b163382612c98565b610b325760405162461bcd60e51b81526004016106d390613f6c565b610774838383612d16565b6000838152600c60205260409020600501546001600160a01b03163314610b765760405162461bcd60e51b81526004016106d390613fb9565b6000838152600c6020526040902060080154610100900460ff1615610bdd5760405162461bcd60e51b815260206004820152601a60248201527f4974656d206973206c697665206f6e20746865206d61726b657400000000000060448201526064016106d3565b60008211610c2d5760405162461bcd60e51b815260206004820152601e60248201527f44617973206d7573742062652067726561746572207468616e207a65726f000060448201526064016106d3565b6000838152600c60205260409020600801805461010062ffff00199091166201000084151502171760ff19169055610c688262015180613fe6565b610c729042613f23565b6000848152600c6020526040902060090155610c8f306001611c0f565b6040516323b872dd60e01b8152336004820152306024820181905260448201859052906323b872dd90606401600060405180830381600087803b158015610cd557600080fd5b505af1158015610ce9573d6000803e3d6000fd5b50505050505050565b610cfa612e87565b60008111610d5d5760405162461bcd60e51b815260206004820152602a60248201527f53616c6573207072696365206d7573742062652067726561746572207468616e60448201526910181032ba3432b9399760b11b60648201526084016106d3565b600a54341015610dbe5760405162461bcd60e51b815260206004820152602660248201527f5072696365206d75737420626520757020746f20746865206c697374696e6720604482015265383934b1b29760d11b60648201526084016106d3565b610dc782612ee1565b610e0a5760405162461bcd60e51b815260206004820152601460248201527321b7bab632103737ba1036b4b73a103a37b5b2b760611b60448201526064016106d3565b6000610e1560085490565b9050610e1f6137dd565b606081018290528681526020808201879052604080830187905260e0830185905242610160840152336080840181905260a08401526000848152600c835220825180518493610e7292849291019061385f565b506020828101518051610e8b926001850192019061385f565b5060408201518051610ea791600284019160209091019061385f565b506060820151600382015560808201516004820180546001600160a01b03199081166001600160a01b039384161790915560a0840151600584018054831691841691909117905560c0840151600684018054909216921691909117905560e082015160078201556101008083015160088301805461012086015161014087015161ffff1990921693151561ff001916939093179215159093029190911762ff000019166201000092151592909202919091179055610160909101516009909101556000828152600d60209081526040808320805460ff19166001179055338352600f9091528120805491610f9a83613f3b565b9091555050600954600a54610fb8916001600160a01b031690612f1b565b604080513381526000602082018190528183018690526060820152905183917fa693a8f68fe4df789541ddd1b84d32ccaea90adddcc88406b4bbbf6466328d3c919081900360800190a2505061100e6001600755565b5050505050565b61077483838360405180602001604052806000815250611d90565b606060106000838152602001908152602001600020805480602002602001604051908101604052809291908181526020016000905b828210156110d75760008481526020908190206040805160a0810182526004860290920180546001600160a01b03168352600180820154848601526002820154928401929092526003015460ff8082161515606085015261010090910416151560808301529083529092019101611065565b505050509050919050565b6000818152600260205260408120546001600160a01b03168061059f5760405162461bcd60e51b8152602060048201526018602482015277115490cdcc8c4e881a5b9d985b1a59081d1bdad95b88125160421b60448201526064016106d3565b60006001600160a01b0382166111ac5760405162461bcd60e51b815260206004820152602960248201527f4552433732313a2061646472657373207a65726f206973206e6f7420612076616044820152683634b21037bbb732b960b91b60648201526084016106d3565b506001600160a01b031660009081526003602052604090205490565b6111d06137dd565b6000828152600d602052604090205460ff1661122e5760405162461bcd60e51b815260206004820152601860248201527f41756374696f6e6564204974656d206e6f7420666f756e64000000000000000060448201526064016106d3565b6000828152600c6020526040908190208151610180810190925280548290829061125790613ed2565b80601f016020809104026020016040519081016040528092919081815260200182805461128390613ed2565b80156112d05780601f106112a5576101008083540402835291602001916112d0565b820191906000526020600020905b8154815290600101906020018083116112b357829003601f168201915b505050505081526020016001820180546112e990613ed2565b80601f016020809104026020016040519081016040528092919081815260200182805461131590613ed2565b80156113625780601f1061133757610100808354040283529160200191611362565b820191906000526020600020905b81548152906001019060200180831161134557829003601f168201915b5050505050815260200160028201805461137b90613ed2565b80601f01602080910402602001604051908101604052809291908181526020018280546113a790613ed2565b80156113f45780601f106113c9576101008083540402835291602001916113f4565b820191906000526020600020905b8154815290600101906020018083116113d757829003601f168201915b50505091835250506003820154602082015260048201546001600160a01b0390811660408301526005830154811660608301526006830154166080820152600782015460a0820152600882015460ff808216151560c08401526101008083048216151560e085015262010000909204161515908201526009909101546101209091015292915050565b6000828152600c60205260409020600601546001600160a01b031633146114df5760405162461bcd60e51b81526020600482015260166024820152752cb7ba9030b932903737ba103a3432903bb4b73732b960511b60448201526064016106d3565b60008281526010602052604090208054600191908390811061150357611503613f56565b60009182526020808320600360049384029091010180549415156101000261ff001990951694909417909355848252600c835260408083206007810154928101546005820180546001600160a01b0319163390811790915560088301805461ffff1916600117905542600990930192909255908452600f9094528220805491936001600160a01b03169261159683613f3b565b90915550506001600160a01b0381166000908152600f602052604081208054916115bf83614005565b919050555060006064600b54846115d69190613fe6565b6115e0919061401c565b90506115f5826115f0838661403e565b612f1b565b6115ff8282612f1b565b6040516323b872dd60e01b8152306004820181905233602483015260448201879052906323b872dd90606401600060405180830381600087803b15801561164557600080fd5b505af1158015611659573d6000803e3d6000fd5b5050505061100e85612f7b565b6009546001600160a01b031633146116905760405162461bcd60e51b81526004016106d390613fb9565b600a55565b6060600180546105b490613ed2565b6000818152600c60205260409020600701543410156116fb5760405162461bcd60e51b8152602060048201526013602482015272125b9cdd59999a58da595b9d08105b5bdd5b9d606a1b60448201526064016106d3565b6000818152600c602052604090206009015442106117535760405162461bcd60e51b815260206004820152601560248201527441756374696f6e206e6f7420617661696c61626c6560581b60448201526064016106d3565b6000818152600c602052604090206008015462010000900460ff166117ba5760405162461bcd60e51b815260206004820152601860248201527f41756374696f6e206f6e6c7920666f722062696464696e67000000000000000060448201526064016106d3565b6040805160a081018252600060608201818152608083018281523380855234602080870182815242888a019081528a885260108352898820805460018082018355918a52848a209a516004909102909a0180546001600160a01b03909b166001600160a01b03199b8c16178155925190830155516002820155945160039095018054945115156101000261ff00199615159690961661ffff199095169490941794909417909255958352600c9091529290206007810192909255600690910180549091169091179055565b6060600061189260085490565b90506000805b828110156118ea57600c60006118af836001613f23565b815260208101919091526040016000206008015460ff166118d857816118d481613f3b565b9250505b806118e281613f3b565b915050611898565b508067ffffffffffffffff81111561190457611904613bcd565b60405190808252806020026020018201604052801561193d57816020015b61192a6137dd565b8152602001906001900390816119225790505b5092506000805b83811015610b0557600c600061195b836001613f23565b815260208101919091526040016000206008015460ff16611bfd57600c6000611985836001613f23565b8152602001908152602001600020604051806101800160405290816000820180546119af90613ed2565b80601f01602080910402602001604051908101604052809291908181526020018280546119db90613ed2565b8015611a285780601f106119fd57610100808354040283529160200191611a28565b820191906000526020600020905b815481529060010190602001808311611a0b57829003601f168201915b50505050508152602001600182018054611a4190613ed2565b80601f0160208091040260200160405190810160405280929190818152602001828054611a6d90613ed2565b8015611aba5780601f10611a8f57610100808354040283529160200191611aba565b820191906000526020600020905b815481529060010190602001808311611a9d57829003601f168201915b50505050508152602001600282018054611ad390613ed2565b80601f0160208091040260200160405190810160405280929190818152602001828054611aff90613ed2565b8015611b4c5780601f10611b2157610100808354040283529160200191611b4c565b820191906000526020600020905b815481529060010190602001808311611b2f57829003601f168201915b50505091835250506003820154602082015260048201546001600160a01b0390811660408301526005830154811660608301526006830154166080820152600782015460a0820152600882015460ff808216151560c08401526101008083048216151560e08501526201000090920416151590820152600990910154610120909101528551869084908110611be357611be3613f56565b60200260200101819052508180611bf990613f3b565b9250505b80611c0781613f3b565b915050611944565b611c1a338383613139565b5050565b6000828152600c60205260409020600401546001600160a01b03163314611c575760405162461bcd60e51b81526004016106d390613fb9565b6000828152600c602052604090206008015460ff1615611cc45760405162461bcd60e51b815260206004820152602260248201527f4974656d20616c7265616479206f666665726564206f6e20746865206d61726b604482015261195d60f21b60648201526084016106d3565b6000828152600c6020526040902060080154610100900460ff1615611d2b5760405162461bcd60e51b815260206004820152601a60248201527f4974656d206973206c697665206f6e20746865206d61726b657400000000000060448201526064016106d3565b60008111611d7b5760405162461bcd60e51b815260206004820152601f60248201527f5072696365206d7573742062652067726561746572207468616e207a65726f0060448201526064016106d3565b6000918252600c602052604090912060070155565b611d9a3383612c98565b611db65760405162461bcd60e51b81526004016106d390613f6c565b611dc284848484613208565b50505050565b60606000611dd560085490565b90506000805b82811015611e365733600c6000611df3846001613f23565b81526020810191909152604001600020600501546001600160a01b03161415611e245781611e2081613f3b565b9250505b80611e2e81613f3b565b915050611ddb565b508067ffffffffffffffff811115611e5057611e50613bcd565b604051908082528060200260200182016040528015611e8957816020015b611e766137dd565b815260200190600190039081611e6e5790505b5092506000805b83811015610b055733600c6000611ea8846001613f23565b81526020810191909152604001600020600501546001600160a01b0316141561215257600c6000611eda836001613f23565b815260200190815260200160002060405180610180016040529081600082018054611f0490613ed2565b80601f0160208091040260200160405190810160405280929190818152602001828054611f3090613ed2565b8015611f7d5780601f10611f5257610100808354040283529160200191611f7d565b820191906000526020600020905b815481529060010190602001808311611f6057829003601f168201915b50505050508152602001600182018054611f9690613ed2565b80601f0160208091040260200160405190810160405280929190818152602001828054611fc290613ed2565b801561200f5780601f10611fe45761010080835404028352916020019161200f565b820191906000526020600020905b815481529060010190602001808311611ff257829003601f168201915b5050505050815260200160028201805461202890613ed2565b80601f016020809104026020016040519081016040528092919081815260200182805461205490613ed2565b80156120a15780601f10612076576101008083540402835291602001916120a1565b820191906000526020600020905b81548152906001019060200180831161208457829003601f168201915b50505091835250506003820154602082015260048201546001600160a01b0390811660408301526005830154811660608301526006830154166080820152600782015460a0820152600882015460ff808216151560c08401526101008083048216151560e0850152620100009092041615159082015260099091015461012090910152855186908490811061213857612138613f56565b6020026020010181905250818061214e90613f3b565b9250505b8061215c81613f3b565b915050611e90565b606061216f82612bcb565b6000828152600660205260408120805461218890613ed2565b80601f01602080910402602001604051908101604052809291908181526020018280546121b490613ed2565b80156122015780601f106121d657610100808354040283529160200191612201565b820191906000526020600020905b8154815290600101906020018083116121e457829003601f168201915b50505050509050600061221f60408051602081019091526000815290565b9050805160001415612232575092915050565b81511561226457808260405160200161224c929190614055565b60405160208183030381529060405292505050919050565b61226d8461323b565b949350505050565b6060600061228260085490565b90508067ffffffffffffffff81111561229d5761229d613bcd565b6040519080825280602002602001820160405280156122d657816020015b6122c36137dd565b8152602001906001900390816122bb5790505b50915060005b8181101561256f57600c60006122f3836001613f23565b81526020019081526020016000206040518061018001604052908160008201805461231d90613ed2565b80601f016020809104026020016040519081016040528092919081815260200182805461234990613ed2565b80156123965780601f1061236b57610100808354040283529160200191612396565b820191906000526020600020905b81548152906001019060200180831161237957829003601f168201915b505050505081526020016001820180546123af90613ed2565b80601f01602080910402602001604051908101604052809291908181526020018280546123db90613ed2565b80156124285780601f106123fd57610100808354040283529160200191612428565b820191906000526020600020905b81548152906001019060200180831161240b57829003601f168201915b5050505050815260200160028201805461244190613ed2565b80601f016020809104026020016040519081016040528092919081815260200182805461246d90613ed2565b80156124ba5780601f1061248f576101008083540402835291602001916124ba565b820191906000526020600020905b81548152906001019060200180831161249d57829003601f168201915b50505091835250506003820154602082015260048201546001600160a01b0390811660408301526005830154811660608301526006830154166080820152600782015460a0820152600882015460ff808216151560c08401526101008083048216151560e0850152620100009092041615159082015260099091015461012090910152835184908390811061255157612551613f56565b6020026020010181905250808061256790613f3b565b9150506122dc565b505090565b6060600061258160085490565b90506000805b8281101561260a57600c600061259e836001613f23565b8152602081019190915260400160002060080154610100900460ff1680156125e5575042600c60006125d1846001613f23565b815260200190815260200160002060090154115b156125f857816125f481613f3b565b9250505b8061260281613f3b565b915050612587565b508067ffffffffffffffff81111561262457612624613bcd565b60405190808252806020026020018201604052801561265d57816020015b61264a6137dd565b8152602001906001900390816126425790505b5092506000805b83811015610b0557600c600061267b836001613f23565b8152602081019190915260400160002060080154610100900460ff1680156126c2575042600c60006126ae846001613f23565b815260200190815260200160002060090154115b1561294e57600c60006126d6836001613f23565b81526020019081526020016000206040518061018001604052908160008201805461270090613ed2565b80601f016020809104026020016040519081016040528092919081815260200182805461272c90613ed2565b80156127795780601f1061274e57610100808354040283529160200191612779565b820191906000526020600020905b81548152906001019060200180831161275c57829003601f168201915b5050505050815260200160018201805461279290613ed2565b80601f01602080910402602001604051908101604052809291908181526020018280546127be90613ed2565b801561280b5780601f106127e05761010080835404028352916020019161280b565b820191906000526020600020905b8154815290600101906020018083116127ee57829003601f168201915b5050505050815260200160028201805461282490613ed2565b80601f016020809104026020016040519081016040528092919081815260200182805461285090613ed2565b801561289d5780601f106128725761010080835404028352916020019161289d565b820191906000526020600020905b81548152906001019060200180831161288057829003601f168201915b50505091835250506003820154602082015260048201546001600160a01b0390811660408301526005830154811660608301526006830154166080820152600782015460a0820152600882015460ff808216151560c08401526101008083048216151560e0850152620100009092041615159082015260099091015461012090910152855186908490811061293457612934613f56565b6020026020010181905250818061294a90613f3b565b9250505b8061295881613f3b565b915050612664565b612968612e87565b6000818152600c60205260409020600701543410156129bf5760405162461bcd60e51b8152602060048201526013602482015272125b9cdd59999a58da595b9d08105b5bdd5b9d606a1b60448201526064016106d3565b6000818152600c60205260409020600901544210612a175760405162461bcd60e51b815260206004820152601560248201527441756374696f6e206e6f7420617661696c61626c6560581b60448201526064016106d3565b6000818152600c602052604090206008015462010000900460ff1615612a7f5760405162461bcd60e51b815260206004820152601960248201527f41756374696f6e206f6e6c7920666f722070757263686173650000000000000060448201526064016106d3565b6000818152600c6020908152604080832060048101546005820180546001600160a01b0319163390811790915560088301805461ffff1916600117905542600990930192909255908452600f909252822080546001600160a01b0390921692612ae783613f3b565b90915550506001600160a01b0381166000908152600f60205260408120805491612b1083614005565b919050555060006064600b5434612b279190613fe6565b612b31919061401c565b9050612b41826115f0833461403e565b612b4b8282612f1b565b6000838152600c6020526040908190206003015490516323b872dd60e01b8152306004820181905233602483015260448201929092526323b872dd90606401600060405180830381600087803b158015612ba457600080fd5b505af1158015612bb8573d6000803e3d6000fd5b505050505050612bc86001600755565b50565b6000818152600260205260409020546001600160a01b0316612bc85760405162461bcd60e51b8152602060048201526018602482015277115490cdcc8c4e881a5b9d985b1a59081d1bdad95b88125160421b60448201526064016106d3565b600081815260046020526040902080546001600160a01b0319166001600160a01b0384169081179091558190612c5f826110e2565b6001600160a01b03167f8c5be1e5ebec7d5bd14f71427d1e84f3dd0314c0f7b2291e5b200ac8c7c3b92560405160405180910390a45050565b600080612ca4836110e2565b9050806001600160a01b0316846001600160a01b03161480612ceb57506001600160a01b0380821660009081526005602090815260408083209388168352929052205460ff165b8061226d5750836001600160a01b0316612d0484610637565b6001600160a01b031614949350505050565b826001600160a01b0316612d29826110e2565b6001600160a01b031614612d4f5760405162461bcd60e51b81526004016106d390614084565b6001600160a01b038216612db15760405162461bcd60e51b8152602060048201526024808201527f4552433732313a207472616e7366657220746f20746865207a65726f206164646044820152637265737360e01b60648201526084016106d3565b612dbe83838360016132af565b826001600160a01b0316612dd1826110e2565b6001600160a01b031614612df75760405162461bcd60e51b81526004016106d390614084565b600081815260046020908152604080832080546001600160a01b03199081169091556001600160a01b0387811680865260038552838620805460001901905590871680865283862080546001019055868652600290945282852080549092168417909155905184937fddf252ad1be2c89b69c2b068fc378daa952ba7f163c4a11628f55a4df523b3ef91a4505050565b60026007541415612eda5760405162461bcd60e51b815260206004820152601f60248201527f5265656e7472616e637947756172643a207265656e7472616e742063616c6c0060448201526064016106d3565b6002600755565b6000612ef1600880546001019055565b6000612efc60085490565b9050612f083382613337565b612f1281846134d0565b50600192915050565b6000826001600160a01b03168260405160006040518083038185875af1925050503d8060008114612f68576040519150601f19603f3d011682016040523d82523d6000602084013e612f6d565b606091505b505090508061077457600080fd5b60005b600082815260106020526040902054811015611c1a576000828152601060205260409020805433919083908110612fb757612fb7613f56565b60009182526020909120600490910201546001600160a01b0316146130a357600082815260106020526040902080546001919083908110612ffa57612ffa613f56565b906000526020600020906004020160030160006101000a81548160ff02191690831515021790555061309e60106000848152602001908152602001600020828154811061304957613049613f56565b600091825260208083206004909202909101548583526010909152604090912080546001600160a01b03909216918490811061308757613087613f56565b906000526020600020906004020160010154612f1b565b6130f0565b6000828152601060205260409020805460019190839081106130c7576130c7613f56565b906000526020600020906004020160030160016101000a81548160ff0219169083151502179055505b600082815260106020526040902080544291908390811061311357613113613f56565b60009182526020909120600260049092020101558061313181613f3b565b915050612f7e565b816001600160a01b0316836001600160a01b0316141561319b5760405162461bcd60e51b815260206004820152601960248201527f4552433732313a20617070726f766520746f2063616c6c65720000000000000060448201526064016106d3565b6001600160a01b03838116600081815260056020908152604080832094871680845294825291829020805460ff191686151590811790915591519182527f17307eab39ab6107e8899845ad3d59bd9653f200f220920489ca2b5937696c31910160405180910390a3505050565b613213848484612d16565b61321f8484848461356a565b611dc25760405162461bcd60e51b81526004016106d3906140c9565b606061324682612bcb565b600061325d60408051602081019091526000815290565b9050600081511161327d57604051806020016040528060008152506132a8565b8061328784613668565b604051602001613298929190614055565b6040516020818303038152906040525b9392505050565b6001811115611dc2576001600160a01b038416156132f5576001600160a01b038416600090815260036020526040812080548392906132ef90849061403e565b90915550505b6001600160a01b03831615611dc2576001600160a01b0383166000908152600360205260408120805483929061332c908490613f23565b909155505050505050565b6001600160a01b03821661338d5760405162461bcd60e51b815260206004820181905260248201527f4552433732313a206d696e7420746f20746865207a65726f206164647265737360448201526064016106d3565b6000818152600260205260409020546001600160a01b0316156133f25760405162461bcd60e51b815260206004820152601c60248201527f4552433732313a20746f6b656e20616c7265616479206d696e7465640000000060448201526064016106d3565b6134006000838360016132af565b6000818152600260205260409020546001600160a01b0316156134655760405162461bcd60e51b815260206004820152601c60248201527f4552433732313a20746f6b656e20616c7265616479206d696e7465640000000060448201526064016106d3565b6001600160a01b038216600081815260036020908152604080832080546001019055848352600290915280822080546001600160a01b0319168417905551839291907fddf252ad1be2c89b69c2b068fc378daa952ba7f163c4a11628f55a4df523b3ef908290a45050565b6000828152600260205260409020546001600160a01b031661354b5760405162461bcd60e51b815260206004820152602e60248201527f45524337323155524953746f726167653a2055524920736574206f66206e6f6e60448201526d32bc34b9ba32b73a103a37b5b2b760911b60648201526084016106d3565b600082815260066020908152604090912082516107749284019061385f565b60006001600160a01b0384163b1561365d57604051630a85bd0160e11b81526001600160a01b0385169063150b7a02906135ae90339089908890889060040161411b565b6020604051808303816000875af19250505080156135e9575060408051601f3d908101601f191682019092526135e691810190614158565b60015b613643573d808015613617576040519150601f19603f3d011682016040523d82523d6000602084013e61361c565b606091505b50805161363b5760405162461bcd60e51b81526004016106d3906140c9565b805181602001fd5b6001600160e01b031916630a85bd0160e11b14905061226d565b506001949350505050565b6060600061367583613705565b600101905060008167ffffffffffffffff81111561369557613695613bcd565b6040519080825280601f01601f1916602001820160405280156136bf576020820181803683370190505b5090508181016020015b600019016f181899199a1a9b1b9c1cb0b131b232b360811b600a86061a8153600a85049450846136f8576136fd565b6136c9565b509392505050565b60008072184f03e93ff9f4daa797ed6e38ed64bf6a1f0160401b83106137445772184f03e93ff9f4daa797ed6e38ed64bf6a1f0160401b830492506040015b6d04ee2d6d415b85acef81000000008310613770576d04ee2d6d415b85acef8100000000830492506020015b662386f26fc10000831061378e57662386f26fc10000830492506010015b6305f5e10083106137a6576305f5e100830492506008015b61271083106137ba57612710830492506004015b606483106137cc576064830492506002015b600a831061059f5760010192915050565b6040518061018001604052806060815260200160608152602001606081526020016000815260200160006001600160a01b0316815260200160006001600160a01b0316815260200160006001600160a01b0316815260200160008152602001600015158152602001600015158152602001600015158152602001600081525090565b82805461386b90613ed2565b90600052602060002090601f01602090048101928261388d57600085556138d3565b82601f106138a657805160ff19168380011785556138d3565b828001600101855582156138d3579182015b828111156138d35782518255916020019190600101906138b8565b506138df9291506138e3565b5090565b5b808211156138df57600081556001016138e4565b6001600160e01b031981168114612bc857600080fd5b60006020828403121561392057600080fd5b81356132a8816138f8565b60005b8381101561394657818101518382015260200161392e565b83811115611dc25750506000910152565b6000815180845261396f81602086016020860161392b565b601f01601f19169290920160200192915050565b6020815260006132a86020830184613957565b6000602082840312156139a857600080fd5b5035919050565b80356001600160a01b03811681146139c657600080fd5b919050565b600080604083850312156139de57600080fd5b6139e7836139af565b946020939093013593505050565b60006101808251818552613a0b82860182613957565b91505060208301518482036020860152613a258282613957565b91505060408301518482036040860152613a3f8282613957565b915050606083015160608501526080830151613a6660808601826001600160a01b03169052565b5060a0830151613a8160a08601826001600160a01b03169052565b5060c0830151613a9c60c08601826001600160a01b03169052565b5060e083015160e085015261010080840151613abb8287018215159052565b505061012083810151151590850152610140808401511515908501526101609283015192909301919091525090565b6000602080830181845280855180835260408601915060408160051b870101925083870160005b82811015613b3f57603f19888603018452613b2d8583516139f5565b94509285019290850190600101613b11565b5092979650505050505050565b600080600060608486031215613b6157600080fd5b613b6a846139af565b9250613b78602085016139af565b9150604084013590509250925092565b803580151581146139c657600080fd5b600080600060608486031215613bad57600080fd5b8335925060208401359150613bc460408501613b88565b90509250925092565b634e487b7160e01b600052604160045260246000fd5b600067ffffffffffffffff80841115613bfe57613bfe613bcd565b604051601f8501601f19908116603f01168101908282118183101715613c2657613c26613bcd565b81604052809350858152868686011115613c3f57600080fd5b858560208301376000602087830101525050509392505050565b600082601f830112613c6a57600080fd5b6132a883833560208501613be3565b600080600080600060a08688031215613c9157600080fd5b853567ffffffffffffffff80821115613ca957600080fd5b613cb589838a01613c59565b96506020880135915080821115613ccb57600080fd5b613cd789838a01613c59565b95506040880135915080821115613ced57600080fd5b613cf989838a01613c59565b94506060880135915080821115613d0f57600080fd5b50613d1c88828901613c59565b95989497509295608001359392505050565b602080825282518282018190526000919060409081850190868401855b82811015613d9c57815180516001600160a01b031685528681015187860152858101518686015260608082015115159086015260809081015115159085015260a09093019290850190600101613d4b565b5091979650505050505050565b600060208284031215613dbb57600080fd5b6132a8826139af565b6020815260006132a860208301846139f5565b60008060408385031215613dea57600080fd5b50508035926020909101359150565b60008060408385031215613e0c57600080fd5b613e15836139af565b9150613e2360208401613b88565b90509250929050565b60008060008060808587031215613e4257600080fd5b613e4b856139af565b9350613e59602086016139af565b925060408501359150606085013567ffffffffffffffff811115613e7c57600080fd5b8501601f81018713613e8d57600080fd5b613e9c87823560208401613be3565b91505092959194509250565b60008060408385031215613ebb57600080fd5b613ec4836139af565b9150613e23602084016139af565b600181811c90821680613ee657607f821691505b60208210811415613f0757634e487b7160e01b600052602260045260246000fd5b50919050565b634e487b7160e01b600052601160045260246000fd5b60008219821115613f3657613f36613f0d565b500190565b6000600019821415613f4f57613f4f613f0d565b5060010190565b634e487b7160e01b600052603260045260246000fd5b6020808252602d908201527f4552433732313a2063616c6c6572206973206e6f7420746f6b656e206f776e6560408201526c1c881bdc88185c1c1c9bdd9959609a1b606082015260800190565b602080825260139082015272556e617574686f72697a656420656e7469747960681b604082015260600190565b600081600019048311821515161561400057614000613f0d565b500290565b60008161401457614014613f0d565b506000190190565b60008261403957634e487b7160e01b600052601260045260246000fd5b500490565b60008282101561405057614050613f0d565b500390565b6000835161406781846020880161392b565b83519083019061407b81836020880161392b565b01949350505050565b60208082526025908201527f4552433732313a207472616e736665722066726f6d20696e636f72726563742060408201526437bbb732b960d91b606082015260800190565b60208082526032908201527f4552433732313a207472616e7366657220746f206e6f6e20455243373231526560408201527131b2b4bb32b91034b6b83632b6b2b73a32b960711b606082015260800190565b6001600160a01b038581168252841660208201526040810183905260806060820181905260009061414e90830184613957565b9695505050505050565b60006020828403121561416a57600080fd5b81516132a8816138f856fea264697066735822122047a33b5c1b8acbbf94df98c18cdf3dad561c03f0035808be5e812aa319aecc8864736f6c634300080b0033",
  "linkReferences": {},
  "deployedLinkReferences": {}
}