{
  "_format": "hh-sol-artifact-1",
  "contractName": "Auction",
  "sourceName": "src/contracts/Auction.sol",
  "abi": [
    {
      "inputs": [
        {
          "internalType": "uint256",
          "name": "_royaltyFee",
          "type": "uint256"
        }
      ],
      "stateMutability": "nonpayable",
      "type": "constructor"
    },
    {
      "anonymous": false,
      "inputs": [
        {
          "indexed": true,
          "internalType": "address",
          "name": "owner",
          "type": "address"
        },
        {
          "indexed": true,
          "internalType": "address",
          "name": "approved",
          "type": "address"
        },
        {
          "indexed": true,
          "internalType": "uint256",
          "name": "tokenId",
          "type": "uint256"
        }
      ],
      "name": "Approval",
      "type": "event"
    },
    {
      "anonymous": false,
      "inputs": [
        {
          "indexed": true,
          "internalType": "address",
          "name": "owner",
          "type": "address"
        },
        {
          "indexed": true,
          "internalType": "address",
          "name": "operator",
          "type": "address"
        },
        {
          "indexed": false,
          "internalType": "bool",
          "name": "approved",
          "type": "bool"
        }
      ],
      "name": "ApprovalForAll",
      "type": "event"
    },
    {
      "anonymous": false,
      "inputs": [
        {
          "indexed": true,
          "internalType": "uint256",
          "name": "tokenId",
          "type": "uint256"
        },
        {
          "indexed": false,
          "internalType": "address",
          "name": "seller",
          "type": "address"
        },
        {
          "indexed": false,
          "internalType": "address",
          "name": "owner",
          "type": "address"
        },
        {
          "indexed": false,
          "internalType": "uint256",
          "name": "price",
          "type": "uint256"
        },
        {
          "indexed": false,
          "internalType": "bool",
          "name": "sold",
          "type": "bool"
        }
      ],
      "name": "AuctionItemCreated",
      "type": "event"
    },
    {
      "anonymous": false,
      "inputs": [
        {
          "indexed": true,
          "internalType": "address",
          "name": "from",
          "type": "address"
        },
        {
          "indexed": true,
          "internalType": "address",
          "name": "to",
          "type": "address"
        },
        {
          "indexed": true,
          "internalType": "uint256",
          "name": "tokenId",
          "type": "uint256"
        }
      ],
      "name": "Transfer",
      "type": "event"
    },
    {
      "inputs": [
        {
          "internalType": "address",
          "name": "to",
          "type": "address"
        },
        {
          "internalType": "uint256",
          "name": "tokenId",
          "type": "uint256"
        }
      ],
      "name": "approve",
      "outputs": [],
      "stateMutability": "nonpayable",
      "type": "function"
    },
    {
      "inputs": [
        {
          "internalType": "address",
          "name": "owner",
          "type": "address"
        }
      ],
      "name": "balanceOf",
      "outputs": [
        {
          "internalType": "uint256",
          "name": "",
          "type": "uint256"
        }
      ],
      "stateMutability": "view",
      "type": "function"
    },
    {
      "inputs": [
        {
          "internalType": "uint256",
          "name": "tokenId",
          "type": "uint256"
        }
      ],
      "name": "buyAuctionedItem",
      "outputs": [],
      "stateMutability": "payable",
      "type": "function"
    },
    {
      "inputs": [
        {
          "internalType": "uint256",
          "name": "tokenId",
          "type": "uint256"
        },
        {
          "internalType": "uint256",
          "name": "price",
          "type": "uint256"
        }
      ],
      "name": "changePrice",
      "outputs": [],
      "stateMutability": "nonpayable",
      "type": "function"
    },
    {
      "inputs": [
        {
          "internalType": "string",
          "name": "name",
          "type": "string"
        },
        {
          "internalType": "string",
          "name": "description",
          "type": "string"
        },
        {
          "internalType": "string",
          "name": "image",
          "type": "string"
        },
        {
          "internalType": "string",
          "name": "tokenURI",
          "type": "string"
        },
        {
          "internalType": "uint256",
          "name": "price",
          "type": "uint256"
        }
      ],
      "name": "createAuction",
      "outputs": [],
      "stateMutability": "payable",
      "type": "function"
    },
    {
      "inputs": [],
      "name": "getAllAuctions",
      "outputs": [
        {
          "components": [
            {
              "internalType": "string",
              "name": "name",
              "type": "string"
            },
            {
              "internalType": "string",
              "name": "description",
              "type": "string"
            },
            {
              "internalType": "string",
              "name": "image",
              "type": "string"
            },
            {
              "internalType": "uint256",
              "name": "tokenId",
              "type": "uint256"
            },
            {
              "internalType": "address",
              "name": "seller",
              "type": "address"
            },
            {
              "internalType": "address",
              "name": "owner",
              "type": "address"
            },
            {
              "internalType": "uint256",
              "name": "price",
              "type": "uint256"
            },
            {
              "internalType": "bool",
              "name": "sold",
              "type": "bool"
            },
            {
              "internalType": "bool",
              "name": "live",
              "type": "bool"
            },
            {
              "internalType": "uint256",
              "name": "duration",
              "type": "uint256"
            }
          ],
          "internalType": "struct Auction.AuctionStruct[]",
          "name": "Auctions",
          "type": "tuple[]"
        }
      ],
      "stateMutability": "view",
      "type": "function"
    },
    {
      "inputs": [
        {
          "internalType": "uint256",
          "name": "tokenId",
          "type": "uint256"
        }
      ],
      "name": "getApproved",
      "outputs": [
        {
          "internalType": "address",
          "name": "",
          "type": "address"
        }
      ],
      "stateMutability": "view",
      "type": "function"
    },
    {
      "inputs": [
        {
          "internalType": "uint256",
          "name": "id",
          "type": "uint256"
        }
      ],
      "name": "getAuction",
      "outputs": [
        {
          "components": [
            {
              "internalType": "string",
              "name": "name",
              "type": "string"
            },
            {
              "internalType": "string",
              "name": "description",
              "type": "string"
            },
            {
              "internalType": "string",
              "name": "image",
              "type": "string"
            },
            {
              "internalType": "uint256",
              "name": "tokenId",
              "type": "uint256"
            },
            {
              "internalType": "address",
              "name": "seller",
              "type": "address"
            },
            {
              "internalType": "address",
              "name": "owner",
              "type": "address"
            },
            {
              "internalType": "uint256",
              "name": "price",
              "type": "uint256"
            },
            {
              "internalType": "bool",
              "name": "sold",
              "type": "bool"
            },
            {
              "internalType": "bool",
              "name": "live",
              "type": "bool"
            },
            {
              "internalType": "uint256",
              "name": "duration",
              "type": "uint256"
            }
          ],
          "internalType": "struct Auction.AuctionStruct",
          "name": "",
          "type": "tuple"
        }
      ],
      "stateMutability": "view",
      "type": "function"
    },
    {
      "inputs": [],
      "name": "getListingPrice",
      "outputs": [
        {
          "internalType": "uint256",
          "name": "",
          "type": "uint256"
        }
      ],
      "stateMutability": "view",
      "type": "function"
    },
    {
      "inputs": [],
      "name": "getMyAuctions",
      "outputs": [
        {
          "components": [
            {
              "internalType": "string",
              "name": "name",
              "type": "string"
            },
            {
              "internalType": "string",
              "name": "description",
              "type": "string"
            },
            {
              "internalType": "string",
              "name": "image",
              "type": "string"
            },
            {
              "internalType": "uint256",
              "name": "tokenId",
              "type": "uint256"
            },
            {
              "internalType": "address",
              "name": "seller",
              "type": "address"
            },
            {
              "internalType": "address",
              "name": "owner",
              "type": "address"
            },
            {
              "internalType": "uint256",
              "name": "price",
              "type": "uint256"
            },
            {
              "internalType": "bool",
              "name": "sold",
              "type": "bool"
            },
            {
              "internalType": "bool",
              "name": "live",
              "type": "bool"
            },
            {
              "internalType": "uint256",
              "name": "duration",
              "type": "uint256"
            }
          ],
          "internalType": "struct Auction.AuctionStruct[]",
          "name": "Auctions",
          "type": "tuple[]"
        }
      ],
      "stateMutability": "view",
      "type": "function"
    },
    {
      "inputs": [],
      "name": "getOfferedAuctions",
      "outputs": [
        {
          "components": [
            {
              "internalType": "string",
              "name": "name",
              "type": "string"
            },
            {
              "internalType": "string",
              "name": "description",
              "type": "string"
            },
            {
              "internalType": "string",
              "name": "image",
              "type": "string"
            },
            {
              "internalType": "uint256",
              "name": "tokenId",
              "type": "uint256"
            },
            {
              "internalType": "address",
              "name": "seller",
              "type": "address"
            },
            {
              "internalType": "address",
              "name": "owner",
              "type": "address"
            },
            {
              "internalType": "uint256",
              "name": "price",
              "type": "uint256"
            },
            {
              "internalType": "bool",
              "name": "sold",
              "type": "bool"
            },
            {
              "internalType": "bool",
              "name": "live",
              "type": "bool"
            },
            {
              "internalType": "uint256",
              "name": "duration",
              "type": "uint256"
            }
          ],
          "internalType": "struct Auction.AuctionStruct[]",
          "name": "Auctions",
          "type": "tuple[]"
        }
      ],
      "stateMutability": "view",
      "type": "function"
    },
    {
      "inputs": [],
      "name": "getSoldAuction",
      "outputs": [
        {
          "components": [
            {
              "internalType": "string",
              "name": "name",
              "type": "string"
            },
            {
              "internalType": "string",
              "name": "description",
              "type": "string"
            },
            {
              "internalType": "string",
              "name": "image",
              "type": "string"
            },
            {
              "internalType": "uint256",
              "name": "tokenId",
              "type": "uint256"
            },
            {
              "internalType": "address",
              "name": "seller",
              "type": "address"
            },
            {
              "internalType": "address",
              "name": "owner",
              "type": "address"
            },
            {
              "internalType": "uint256",
              "name": "price",
              "type": "uint256"
            },
            {
              "internalType": "bool",
              "name": "sold",
              "type": "bool"
            },
            {
              "internalType": "bool",
              "name": "live",
              "type": "bool"
            },
            {
              "internalType": "uint256",
              "name": "duration",
              "type": "uint256"
            }
          ],
          "internalType": "struct Auction.AuctionStruct[]",
          "name": "Auctions",
          "type": "tuple[]"
        }
      ],
      "stateMutability": "view",
      "type": "function"
    },
    {
      "inputs": [],
      "name": "getUnsoldAuction",
      "outputs": [
        {
          "components": [
            {
              "internalType": "string",
              "name": "name",
              "type": "string"
            },
            {
              "internalType": "string",
              "name": "description",
              "type": "string"
            },
            {
              "internalType": "string",
              "name": "image",
              "type": "string"
            },
            {
              "internalType": "uint256",
              "name": "tokenId",
              "type": "uint256"
            },
            {
              "internalType": "address",
              "name": "seller",
              "type": "address"
            },
            {
              "internalType": "address",
              "name": "owner",
              "type": "address"
            },
            {
              "internalType": "uint256",
              "name": "price",
              "type": "uint256"
            },
            {
              "internalType": "bool",
              "name": "sold",
              "type": "bool"
            },
            {
              "internalType": "bool",
              "name": "live",
              "type": "bool"
            },
            {
              "internalType": "uint256",
              "name": "duration",
              "type": "uint256"
            }
          ],
          "internalType": "struct Auction.AuctionStruct[]",
          "name": "Auctions",
          "type": "tuple[]"
        }
      ],
      "stateMutability": "view",
      "type": "function"
    },
    {
      "inputs": [
        {
          "internalType": "address",
          "name": "owner",
          "type": "address"
        },
        {
          "internalType": "address",
          "name": "operator",
          "type": "address"
        }
      ],
      "name": "isApprovedForAll",
      "outputs": [
        {
          "internalType": "bool",
          "name": "",
          "type": "bool"
        }
      ],
      "stateMutability": "view",
      "type": "function"
    },
    {
      "inputs": [],
      "name": "name",
      "outputs": [
        {
          "internalType": "string",
          "name": "",
          "type": "string"
        }
      ],
      "stateMutability": "view",
      "type": "function"
    },
    {
      "inputs": [
        {
          "internalType": "uint256",
          "name": "tokenId",
          "type": "uint256"
        },
        {
          "internalType": "uint256",
          "name": "period",
          "type": "uint256"
        }
      ],
      "name": "offerAuction",
      "outputs": [],
      "stateMutability": "nonpayable",
      "type": "function"
    },
    {
      "inputs": [
        {
          "internalType": "uint256",
          "name": "tokenId",
          "type": "uint256"
        }
      ],
      "name": "ownerOf",
      "outputs": [
        {
          "internalType": "address",
          "name": "",
          "type": "address"
        }
      ],
      "stateMutability": "view",
      "type": "function"
    },
    {
      "inputs": [
        {
          "internalType": "address",
          "name": "from",
          "type": "address"
        },
        {
          "internalType": "address",
          "name": "to",
          "type": "address"
        },
        {
          "internalType": "uint256",
          "name": "tokenId",
          "type": "uint256"
        }
      ],
      "name": "safeTransferFrom",
      "outputs": [],
      "stateMutability": "nonpayable",
      "type": "function"
    },
    {
      "inputs": [
        {
          "internalType": "address",
          "name": "from",
          "type": "address"
        },
        {
          "internalType": "address",
          "name": "to",
          "type": "address"
        },
        {
          "internalType": "uint256",
          "name": "tokenId",
          "type": "uint256"
        },
        {
          "internalType": "bytes",
          "name": "data",
          "type": "bytes"
        }
      ],
      "name": "safeTransferFrom",
      "outputs": [],
      "stateMutability": "nonpayable",
      "type": "function"
    },
    {
      "inputs": [
        {
          "internalType": "address",
          "name": "operator",
          "type": "address"
        },
        {
          "internalType": "bool",
          "name": "approved",
          "type": "bool"
        }
      ],
      "name": "setApprovalForAll",
      "outputs": [],
      "stateMutability": "nonpayable",
      "type": "function"
    },
    {
      "inputs": [
        {
          "internalType": "uint256",
          "name": "_price",
          "type": "uint256"
        }
      ],
      "name": "setListingPrice",
      "outputs": [],
      "stateMutability": "nonpayable",
      "type": "function"
    },
    {
      "inputs": [
        {
          "internalType": "bytes4",
          "name": "interfaceId",
          "type": "bytes4"
        }
      ],
      "name": "supportsInterface",
      "outputs": [
        {
          "internalType": "bool",
          "name": "",
          "type": "bool"
        }
      ],
      "stateMutability": "view",
      "type": "function"
    },
    {
      "inputs": [],
      "name": "symbol",
      "outputs": [
        {
          "internalType": "string",
          "name": "",
          "type": "string"
        }
      ],
      "stateMutability": "view",
      "type": "function"
    },
    {
      "inputs": [
        {
          "internalType": "uint256",
          "name": "tokenId",
          "type": "uint256"
        }
      ],
      "name": "tokenURI",
      "outputs": [
        {
          "internalType": "string",
          "name": "",
          "type": "string"
        }
      ],
      "stateMutability": "view",
      "type": "function"
    },
    {
      "inputs": [
        {
          "internalType": "address",
          "name": "from",
          "type": "address"
        },
        {
          "internalType": "address",
          "name": "to",
          "type": "address"
        },
        {
          "internalType": "uint256",
          "name": "tokenId",
          "type": "uint256"
        }
      ],
      "name": "transferFrom",
      "outputs": [],
      "stateMutability": "nonpayable",
      "type": "function"
    }
  ],
  "bytecode": "0x608060405266470de4df820000600b553480156200001c57600080fd5b5060405162003858380380620038588339810160408190526200003f9162000170565b604080518082018252600f81526e44616c746f6e696320546f6b656e7360881b60208083019182528351808501909452600384526211105560ea1b9084015281519192916200009191600091620000ca565b508051620000a7906001906020840190620000ca565b5050600160075550600a80546001600160a01b03191633179055600c55620001c7565b828054620000d8906200018a565b90600052602060002090601f016020900481019282620000fc576000855562000147565b82601f106200011757805160ff191683800117855562000147565b8280016001018555821562000147579182015b82811115620001475782518255916020019190600101906200012a565b506200015592915062000159565b5090565b5b808211156200015557600081556001016200015a565b6000602082840312156200018357600080fd5b5051919050565b600181811c908216806200019f57607f821691505b60208210811415620001c157634e487b7160e01b600052602260045260246000fd5b50919050565b61368180620001d76000396000f3fe6080604052600436106101665760003560e01c8063763482e8116100d1578063b3de019c1161008a578063c87b56dd11610064578063c87b56dd14610411578063cbd2bdfd14610431578063e985e9c514610446578063f5a06acf1461048f57600080fd5b8063b3de019c146103bc578063b88d4fde146103dc578063bf65a333146103fc57600080fd5b8063763482e81461031057806378bd7935146103255780637c726b691461035257806395d89b41146103725780639e78efd614610387578063a22cb4651461039c57600080fd5b806323b872dd1161012357806323b872dd1461025d57806333748dcb1461027d57806342842e0e1461029057806347aa13f3146102b05780636352211e146102d057806370a08231146102f057600080fd5b806301ffc9a71461016b57806306fdde03146101a0578063081812fc146101c2578063095ea7b3146101fa57806312e855851461021c5780631d8df68f1461023b575b600080fd5b34801561017757600080fd5b5061018b610186366004612ebc565b6104a2565b60405190151581526020015b60405180910390f35b3480156101ac57600080fd5b506101b56104f4565b6040516101979190612f31565b3480156101ce57600080fd5b506101e26101dd366004612f44565b610586565b6040516001600160a01b039091168152602001610197565b34801561020657600080fd5b5061021a610215366004612f79565b6105ad565b005b34801561022857600080fd5b50600b545b604051908152602001610197565b34801561024757600080fd5b506102506106c8565b604051610197919061306e565b34801561026957600080fd5b5061021a6102783660046130d0565b6109d8565b61021a61028b3660046131b8565b610a09565b34801561029c57600080fd5b5061021a6102ab3660046130d0565b610cee565b3480156102bc57600080fd5b5061021a6102cb36600461326d565b610d09565b3480156102dc57600080fd5b506101e26102eb366004612f44565b610ea0565b3480156102fc57600080fd5b5061022d61030b36600461328f565b610f00565b34801561031c57600080fd5b50610250610f86565b34801561033157600080fd5b50610345610340366004612f44565b61128c565b60405161019791906132aa565b34801561035e57600080fd5b5061021a61036d366004612f44565b611525565b34801561037e57600080fd5b506101b5611554565b34801561039357600080fd5b50610250611563565b3480156103a857600080fd5b5061021a6103b73660046132bd565b61187a565b3480156103c857600080fd5b5061021a6103d736600461326d565b611889565b3480156103e857600080fd5b5061021a6103f73660046132f9565b6119fb565b34801561040857600080fd5b50610250611a33565b34801561041d57600080fd5b506101b561042c366004612f44565b611d54565b34801561043d57600080fd5b50610250611e65565b34801561045257600080fd5b5061018b610461366004613375565b6001600160a01b03918216600090815260056020908152604080832093909416825291909152205460ff1690565b61021a61049d366004612f44565b612143565b60006001600160e01b031982166380ac58cd60e01b14806104d357506001600160e01b03198216635b5e139f60e01b145b806104ee57506301ffc9a760e01b6001600160e01b03198316145b92915050565b606060008054610503906133a8565b80601f016020809104026020016040519081016040528092919081815260200182805461052f906133a8565b801561057c5780601f106105515761010080835404028352916020019161057c565b820191906000526020600020905b81548152906001019060200180831161055f57829003601f168201915b5050505050905090565b600061059182612350565b506000908152600460205260409020546001600160a01b031690565b60006105b882610ea0565b9050806001600160a01b0316836001600160a01b0316141561062b5760405162461bcd60e51b815260206004820152602160248201527f4552433732313a20617070726f76616c20746f2063757272656e74206f776e656044820152603960f91b60648201526084015b60405180910390fd5b336001600160a01b038216148061064757506106478133610461565b6106b95760405162461bcd60e51b815260206004820152603d60248201527f4552433732313a20617070726f76652063616c6c6572206973206e6f7420746f60448201527f6b656e206f776e6572206f7220617070726f76656420666f7220616c6c0000006064820152608401610622565b6106c383836123af565b505050565b606060006106d560095490565b90508067ffffffffffffffff8111156106f0576106f061310c565b60405190808252806020026020018201604052801561072957816020015b610716612da4565b81526020019060019003908161070e5790505b50915060005b6008548110156109d357600d60006107488360016133f9565b815260208101919091526040016000206007015460ff16156109c157600d60006107738360016133f9565b81526020019081526020016000206040518061014001604052908160008201805461079d906133a8565b80601f01602080910402602001604051908101604052809291908181526020018280546107c9906133a8565b80156108165780601f106107eb57610100808354040283529160200191610816565b820191906000526020600020905b8154815290600101906020018083116107f957829003601f168201915b5050505050815260200160018201805461082f906133a8565b80601f016020809104026020016040519081016040528092919081815260200182805461085b906133a8565b80156108a85780601f1061087d576101008083540402835291602001916108a8565b820191906000526020600020905b81548152906001019060200180831161088b57829003601f168201915b505050505081526020016002820180546108c1906133a8565b80601f01602080910402602001604051908101604052809291908181526020018280546108ed906133a8565b801561093a5780601f1061090f5761010080835404028352916020019161093a565b820191906000526020600020905b81548152906001019060200180831161091d57829003601f168201915b50505091835250506003820154602082015260048201546001600160a01b039081166040830152600583015416606082015260068201546080820152600782015460ff808216151560a084015261010090910416151560c082015260089091015460e09091015283518490839081106109b5576109b5613411565b60200260200101819052505b806109cb81613427565b91505061072f565b505090565b6109e2338261241d565b6109fe5760405162461bcd60e51b815260040161062290613442565b6106c383838361249b565b610a1161260c565b60008111610a745760405162461bcd60e51b815260206004820152602a60248201527f53616c6573207072696365206d7573742062652067726561746572207468616e60448201526910181032ba3432b9399760b11b6064820152608401610622565b600b54341015610ad55760405162461bcd60e51b815260206004820152602660248201527f5072696365206d75737420626520757020746f20746865206c697374696e6720604482015265383934b1b29760d11b6064820152608401610622565b610ade82612666565b610b215760405162461bcd60e51b815260206004820152601460248201527321b7bab632103737ba1036b4b73a103a37b5b2b760611b6044820152606401610622565b6000610b2c60085490565b9050610b36612da4565b606081018290528681526020808201879052604080830187905260c08301859052336080840181905260a08401526000848152600d835220825180518493610b82928492910190612e0d565b506020828101518051610b9b9260018501920190612e0d565b5060408201518051610bb7916002840191602090910190612e0d565b506060820151600382015560808201516004820180546001600160a01b039283166001600160a01b03199182161790915560a084015160058401805491909316911617905560c0820151600682015560e08201516007820180546101008086015115150261ff00199315159390931661ffff1990911617919091179055610120909101516008909101556000828152600e60209081526040808320805460ff1916600117905533835260109091528120805491610c7383613427565b9091555050600a54600b54610c91916001600160a01b0316906126a0565b604080513381526000602082018190528183018690526060820152905183917fa693a8f68fe4df789541ddd1b84d32ccaea90adddcc88406b4bbbf6466328d3c919081900360800190a25050610ce76001600755565b5050505050565b6106c3838383604051806020016040528060008152506119fb565b6000828152600d60205260409020600501546001600160a01b03163314610d425760405162461bcd60e51b81526004016106229061348f565b6000828152600d6020526040902060070154610100900460ff1615610da95760405162461bcd60e51b815260206004820152601a60248201527f4974656d206973206c697665206f6e20746865206d61726b65740000000000006044820152606401610622565b60008111610df95760405162461bcd60e51b815260206004820152601e60248201527f44617973206d7573742062652067726561746572207468616e207a65726f00006044820152606401610622565b6000828152600d60205260409020600701805461ffff1916610100179055610e2181426134bc565b6000838152600d6020526040902060080155610e3e30600161187a565b6040516323b872dd60e01b8152336004820152306024820181905260448201849052906323b872dd90606401600060405180830381600087803b158015610e8457600080fd5b505af1158015610e98573d6000803e3d6000fd5b505050505050565b6000818152600260205260408120546001600160a01b0316806104ee5760405162461bcd60e51b8152602060048201526018602482015277115490cdcc8c4e881a5b9d985b1a59081d1bdad95b88125160421b6044820152606401610622565b60006001600160a01b038216610f6a5760405162461bcd60e51b815260206004820152602960248201527f4552433732313a2061646472657373207a65726f206973206e6f7420612076616044820152683634b21037bbb732b960b91b6064820152608401610622565b506001600160a01b031660009081526003602052604090205490565b60606000610f9360085490565b90508067ffffffffffffffff811115610fae57610fae61310c565b604051908082528060200260200182016040528015610fe757816020015b610fd4612da4565b815260200190600190039081610fcc5790505b50915060005b818110156109d35742600d60006110058460016133f9565b815260200190815260200160002060080154111561127a57600d600061102c8360016133f9565b815260200190815260200160002060405180610140016040529081600082018054611056906133a8565b80601f0160208091040260200160405190810160405280929190818152602001828054611082906133a8565b80156110cf5780601f106110a4576101008083540402835291602001916110cf565b820191906000526020600020905b8154815290600101906020018083116110b257829003601f168201915b505050505081526020016001820180546110e8906133a8565b80601f0160208091040260200160405190810160405280929190818152602001828054611114906133a8565b80156111615780601f1061113657610100808354040283529160200191611161565b820191906000526020600020905b81548152906001019060200180831161114457829003601f168201915b5050505050815260200160028201805461117a906133a8565b80601f01602080910402602001604051908101604052809291908181526020018280546111a6906133a8565b80156111f35780601f106111c8576101008083540402835291602001916111f3565b820191906000526020600020905b8154815290600101906020018083116111d657829003601f168201915b50505091835250506003820154602082015260048201546001600160a01b039081166040830152600583015416606082015260068201546080820152600782015460ff808216151560a084015261010090910416151560c082015260089091015460e090910152835184908390811061126e5761126e613411565b60200260200101819052505b8061128481613427565b915050610fed565b611294612da4565b6000828152600e602052604090205460ff166112f25760405162461bcd60e51b815260206004820152601860248201527f41756374696f6e6564204974656d206e6f7420666f756e6400000000000000006044820152606401610622565b6000828152600d6020526040908190208151610140810190925280548290829061131b906133a8565b80601f0160208091040260200160405190810160405280929190818152602001828054611347906133a8565b80156113945780601f1061136957610100808354040283529160200191611394565b820191906000526020600020905b81548152906001019060200180831161137757829003601f168201915b505050505081526020016001820180546113ad906133a8565b80601f01602080910402602001604051908101604052809291908181526020018280546113d9906133a8565b80156114265780601f106113fb57610100808354040283529160200191611426565b820191906000526020600020905b81548152906001019060200180831161140957829003601f168201915b5050505050815260200160028201805461143f906133a8565b80601f016020809104026020016040519081016040528092919081815260200182805461146b906133a8565b80156114b85780601f1061148d576101008083540402835291602001916114b8565b820191906000526020600020905b81548152906001019060200180831161149b57829003601f168201915b50505091835250506003820154602082015260048201546001600160a01b039081166040830152600583015416606082015260068201546080820152600782015460ff808216151560a084015261010090910416151560c082015260089091015460e09091015292915050565b600a546001600160a01b0316331461154f5760405162461bcd60e51b81526004016106229061348f565b600b55565b606060018054610503906133a8565b6060600061157060095490565b60085461157d91906134db565b90508067ffffffffffffffff8111156115985761159861310c565b6040519080825280602002602001820160405280156115d157816020015b6115be612da4565b8152602001906001900390816115b65790505b50915060005b6008548110156109d357600d60006115f08360016133f9565b815260208101919091526040016000206007015460ff1661186857600d600061161a8360016133f9565b815260200190815260200160002060405180610140016040529081600082018054611644906133a8565b80601f0160208091040260200160405190810160405280929190818152602001828054611670906133a8565b80156116bd5780601f10611692576101008083540402835291602001916116bd565b820191906000526020600020905b8154815290600101906020018083116116a057829003601f168201915b505050505081526020016001820180546116d6906133a8565b80601f0160208091040260200160405190810160405280929190818152602001828054611702906133a8565b801561174f5780601f106117245761010080835404028352916020019161174f565b820191906000526020600020905b81548152906001019060200180831161173257829003601f168201915b50505050508152602001600282018054611768906133a8565b80601f0160208091040260200160405190810160405280929190818152602001828054611794906133a8565b80156117e15780601f106117b6576101008083540402835291602001916117e1565b820191906000526020600020905b8154815290600101906020018083116117c457829003601f168201915b50505091835250506003820154602082015260048201546001600160a01b039081166040830152600583015416606082015260068201546080820152600782015460ff808216151560a084015261010090910416151560c082015260089091015460e090910152835184908390811061185c5761185c613411565b60200260200101819052505b8061187281613427565b9150506115d7565b611885338383612700565b5050565b6000828152600d60205260409020600401546001600160a01b031633146118c25760405162461bcd60e51b81526004016106229061348f565b6000828152600d602052604090206007015460ff161561192f5760405162461bcd60e51b815260206004820152602260248201527f4974656d20616c7265616479206f666665726564206f6e20746865206d61726b604482015261195d60f21b6064820152608401610622565b6000828152600d6020526040902060070154610100900460ff16156119965760405162461bcd60e51b815260206004820152601a60248201527f4974656d206973206c697665206f6e20746865206d61726b65740000000000006044820152606401610622565b600081116119e65760405162461bcd60e51b815260206004820152601f60248201527f5072696365206d7573742062652067726561746572207468616e207a65726f006044820152606401610622565b6000918252600d602052604090912060060155565b611a05338361241d565b611a215760405162461bcd60e51b815260040161062290613442565b611a2d848484846127cf565b50505050565b60606000611a4060085490565b3360009081526010602052604090205490915067ffffffffffffffff811115611a6b57611a6b61310c565b604051908082528060200260200182016040528015611aa457816020015b611a91612da4565b815260200190600190039081611a895790505b50915060005b818110156109d35733600d6000611ac28460016133f9565b81526020810191909152604001600020600401546001600160a01b03161415611d4257600d6000611af48360016133f9565b815260200190815260200160002060405180610140016040529081600082018054611b1e906133a8565b80601f0160208091040260200160405190810160405280929190818152602001828054611b4a906133a8565b8015611b975780601f10611b6c57610100808354040283529160200191611b97565b820191906000526020600020905b815481529060010190602001808311611b7a57829003601f168201915b50505050508152602001600182018054611bb0906133a8565b80601f0160208091040260200160405190810160405280929190818152602001828054611bdc906133a8565b8015611c295780601f10611bfe57610100808354040283529160200191611c29565b820191906000526020600020905b815481529060010190602001808311611c0c57829003601f168201915b50505050508152602001600282018054611c42906133a8565b80601f0160208091040260200160405190810160405280929190818152602001828054611c6e906133a8565b8015611cbb5780601f10611c9057610100808354040283529160200191611cbb565b820191906000526020600020905b815481529060010190602001808311611c9e57829003601f168201915b50505091835250506003820154602082015260048201546001600160a01b039081166040830152600583015416606082015260068201546080820152600782015460ff808216151560a084015261010090910416151560c082015260089091015460e0909101528351849083908110611d3657611d36613411565b60200260200101819052505b80611d4c81613427565b915050611aaa565b6060611d5f82612350565b60008281526006602052604081208054611d78906133a8565b80601f0160208091040260200160405190810160405280929190818152602001828054611da4906133a8565b8015611df15780601f10611dc657610100808354040283529160200191611df1565b820191906000526020600020905b815481529060010190602001808311611dd457829003601f168201915b505050505090506000611e0f60408051602081019091526000815290565b9050805160001415611e22575092915050565b815115611e54578082604051602001611e3c9291906134f2565b60405160208183030381529060405292505050919050565b611e5d84612802565b949350505050565b60606000611e7260085490565b90508067ffffffffffffffff811115611e8d57611e8d61310c565b604051908082528060200260200182016040528015611ec657816020015b611eb3612da4565b815260200190600190039081611eab5790505b50915060005b818110156109d357600d6000611ee38360016133f9565b815260200190815260200160002060405180610140016040529081600082018054611f0d906133a8565b80601f0160208091040260200160405190810160405280929190818152602001828054611f39906133a8565b8015611f865780601f10611f5b57610100808354040283529160200191611f86565b820191906000526020600020905b815481529060010190602001808311611f6957829003601f168201915b50505050508152602001600182018054611f9f906133a8565b80601f0160208091040260200160405190810160405280929190818152602001828054611fcb906133a8565b80156120185780601f10611fed57610100808354040283529160200191612018565b820191906000526020600020905b815481529060010190602001808311611ffb57829003601f168201915b50505050508152602001600282018054612031906133a8565b80601f016020809104026020016040519081016040528092919081815260200182805461205d906133a8565b80156120aa5780601f1061207f576101008083540402835291602001916120aa565b820191906000526020600020905b81548152906001019060200180831161208d57829003601f168201915b50505091835250506003820154602082015260048201546001600160a01b039081166040830152600583015416606082015260068201546080820152600782015460ff808216151560a084015261010090910416151560c082015260089091015460e090910152835184908390811061212557612125613411565b6020026020010181905250808061213b90613427565b915050611ecc565b61214b61260c565b6000818152600d60205260409020600601543410156121a25760405162461bcd60e51b8152602060048201526013602482015272125b9cdd59999a58da595b9d08105b5bdd5b9d606a1b6044820152606401610622565b6000818152600d602052604090206008015442106121fa5760405162461bcd60e51b815260206004820152601560248201527441756374696f6e206e6f7420617661696c61626c6560581b6044820152606401610622565b6000818152600d6020908152604080832060048101546005820180546001600160a01b031916339081179091556007909201805461ffff191660011790559084526010909252822080546001600160a01b039092169261225983613427565b90915550506001600160a01b038116600090815260106020526040812080549161228283613521565b9190505550612295600980546001019055565b60006064600c54346122a791906134bc565b6122b19190613538565b90506122c6826122c183346134db565b6126a0565b6122d082826126a0565b6000838152600d6020526040908190206003015490516323b872dd60e01b8152306004820181905233602483015260448201929092526323b872dd90606401600060405180830381600087803b15801561232957600080fd5b505af115801561233d573d6000803e3d6000fd5b50505050505061234d6001600755565b50565b6000818152600260205260409020546001600160a01b031661234d5760405162461bcd60e51b8152602060048201526018602482015277115490cdcc8c4e881a5b9d985b1a59081d1bdad95b88125160421b6044820152606401610622565b600081815260046020526040902080546001600160a01b0319166001600160a01b03841690811790915581906123e482610ea0565b6001600160a01b03167f8c5be1e5ebec7d5bd14f71427d1e84f3dd0314c0f7b2291e5b200ac8c7c3b92560405160405180910390a45050565b60008061242983610ea0565b9050806001600160a01b0316846001600160a01b0316148061247057506001600160a01b0380821660009081526005602090815260408083209388168352929052205460ff165b80611e5d5750836001600160a01b031661248984610586565b6001600160a01b031614949350505050565b826001600160a01b03166124ae82610ea0565b6001600160a01b0316146124d45760405162461bcd60e51b81526004016106229061355a565b6001600160a01b0382166125365760405162461bcd60e51b8152602060048201526024808201527f4552433732313a207472616e7366657220746f20746865207a65726f206164646044820152637265737360e01b6064820152608401610622565b6125438383836001612876565b826001600160a01b031661255682610ea0565b6001600160a01b03161461257c5760405162461bcd60e51b81526004016106229061355a565b600081815260046020908152604080832080546001600160a01b03199081169091556001600160a01b0387811680865260038552838620805460001901905590871680865283862080546001019055868652600290945282852080549092168417909155905184937fddf252ad1be2c89b69c2b068fc378daa952ba7f163c4a11628f55a4df523b3ef91a4505050565b6002600754141561265f5760405162461bcd60e51b815260206004820152601f60248201527f5265656e7472616e637947756172643a207265656e7472616e742063616c6c006044820152606401610622565b6002600755565b6000612676600880546001019055565b600061268160085490565b905061268d33826128fe565b6126978184612a97565b50600192915050565b6000826001600160a01b03168260405160006040518083038185875af1925050503d80600081146126ed576040519150601f19603f3d011682016040523d82523d6000602084013e6126f2565b606091505b50509050806106c357600080fd5b816001600160a01b0316836001600160a01b031614156127625760405162461bcd60e51b815260206004820152601960248201527f4552433732313a20617070726f766520746f2063616c6c6572000000000000006044820152606401610622565b6001600160a01b03838116600081815260056020908152604080832094871680845294825291829020805460ff191686151590811790915591519182527f17307eab39ab6107e8899845ad3d59bd9653f200f220920489ca2b5937696c31910160405180910390a3505050565b6127da84848461249b565b6127e684848484612b31565b611a2d5760405162461bcd60e51b81526004016106229061359f565b606061280d82612350565b600061282460408051602081019091526000815290565b90506000815111612844576040518060200160405280600081525061286f565b8061284e84612c2f565b60405160200161285f9291906134f2565b6040516020818303038152906040525b9392505050565b6001811115611a2d576001600160a01b038416156128bc576001600160a01b038416600090815260036020526040812080548392906128b69084906134db565b90915550505b6001600160a01b03831615611a2d576001600160a01b038316600090815260036020526040812080548392906128f39084906133f9565b909155505050505050565b6001600160a01b0382166129545760405162461bcd60e51b815260206004820181905260248201527f4552433732313a206d696e7420746f20746865207a65726f20616464726573736044820152606401610622565b6000818152600260205260409020546001600160a01b0316156129b95760405162461bcd60e51b815260206004820152601c60248201527f4552433732313a20746f6b656e20616c7265616479206d696e746564000000006044820152606401610622565b6129c7600083836001612876565b6000818152600260205260409020546001600160a01b031615612a2c5760405162461bcd60e51b815260206004820152601c60248201527f4552433732313a20746f6b656e20616c7265616479206d696e746564000000006044820152606401610622565b6001600160a01b038216600081815260036020908152604080832080546001019055848352600290915280822080546001600160a01b0319168417905551839291907fddf252ad1be2c89b69c2b068fc378daa952ba7f163c4a11628f55a4df523b3ef908290a45050565b6000828152600260205260409020546001600160a01b0316612b125760405162461bcd60e51b815260206004820152602e60248201527f45524337323155524953746f726167653a2055524920736574206f66206e6f6e60448201526d32bc34b9ba32b73a103a37b5b2b760911b6064820152608401610622565b600082815260066020908152604090912082516106c392840190612e0d565b60006001600160a01b0384163b15612c2457604051630a85bd0160e11b81526001600160a01b0385169063150b7a0290612b759033908990889088906004016135f1565b6020604051808303816000875af1925050508015612bb0575060408051601f3d908101601f19168201909252612bad9181019061362e565b60015b612c0a573d808015612bde576040519150601f19603f3d011682016040523d82523d6000602084013e612be3565b606091505b508051612c025760405162461bcd60e51b81526004016106229061359f565b805181602001fd5b6001600160e01b031916630a85bd0160e11b149050611e5d565b506001949350505050565b60606000612c3c83612ccc565b600101905060008167ffffffffffffffff811115612c5c57612c5c61310c565b6040519080825280601f01601f191660200182016040528015612c86576020820181803683370190505b5090508181016020015b600019016f181899199a1a9b1b9c1cb0b131b232b360811b600a86061a8153600a8504945084612cbf57612cc4565b612c90565b509392505050565b60008072184f03e93ff9f4daa797ed6e38ed64bf6a1f0160401b8310612d0b5772184f03e93ff9f4daa797ed6e38ed64bf6a1f0160401b830492506040015b6d04ee2d6d415b85acef81000000008310612d37576d04ee2d6d415b85acef8100000000830492506020015b662386f26fc100008310612d5557662386f26fc10000830492506010015b6305f5e1008310612d6d576305f5e100830492506008015b6127108310612d8157612710830492506004015b60648310612d93576064830492506002015b600a83106104ee5760010192915050565b6040518061014001604052806060815260200160608152602001606081526020016000815260200160006001600160a01b0316815260200160006001600160a01b0316815260200160008152602001600015158152602001600015158152602001600081525090565b828054612e19906133a8565b90600052602060002090601f016020900481019282612e3b5760008555612e81565b82601f10612e5457805160ff1916838001178555612e81565b82800160010185558215612e81579182015b82811115612e81578251825591602001919060010190612e66565b50612e8d929150612e91565b5090565b5b80821115612e8d5760008155600101612e92565b6001600160e01b03198116811461234d57600080fd5b600060208284031215612ece57600080fd5b813561286f81612ea6565b60005b83811015612ef4578181015183820152602001612edc565b83811115611a2d5750506000910152565b60008151808452612f1d816020860160208601612ed9565b601f01601f19169290920160200192915050565b60208152600061286f6020830184612f05565b600060208284031215612f5657600080fd5b5035919050565b80356001600160a01b0381168114612f7457600080fd5b919050565b60008060408385031215612f8c57600080fd5b612f9583612f5d565b946020939093013593505050565b60006101408251818552612fb982860182612f05565b91505060208301518482036020860152612fd38282612f05565b91505060408301518482036040860152612fed8282612f05565b91505060608301516060850152608083015161301460808601826001600160a01b03169052565b5060a083015161302f60a08601826001600160a01b03169052565b5060c083015160c085015260e083015161304d60e086018215159052565b50610100838101511515908501526101209283015192909301919091525090565b6000602080830181845280855180835260408601915060408160051b870101925083870160005b828110156130c357603f198886030184526130b1858351612fa3565b94509285019290850190600101613095565b5092979650505050505050565b6000806000606084860312156130e557600080fd5b6130ee84612f5d565b92506130fc60208501612f5d565b9150604084013590509250925092565b634e487b7160e01b600052604160045260246000fd5b600067ffffffffffffffff8084111561313d5761313d61310c565b604051601f8501601f19908116603f011681019082821181831017156131655761316561310c565b8160405280935085815286868601111561317e57600080fd5b858560208301376000602087830101525050509392505050565b600082601f8301126131a957600080fd5b61286f83833560208501613122565b600080600080600060a086880312156131d057600080fd5b853567ffffffffffffffff808211156131e857600080fd5b6131f489838a01613198565b9650602088013591508082111561320a57600080fd5b61321689838a01613198565b9550604088013591508082111561322c57600080fd5b61323889838a01613198565b9450606088013591508082111561324e57600080fd5b5061325b88828901613198565b95989497509295608001359392505050565b6000806040838503121561328057600080fd5b50508035926020909101359150565b6000602082840312156132a157600080fd5b61286f82612f5d565b60208152600061286f6020830184612fa3565b600080604083850312156132d057600080fd5b6132d983612f5d565b9150602083013580151581146132ee57600080fd5b809150509250929050565b6000806000806080858703121561330f57600080fd5b61331885612f5d565b935061332660208601612f5d565b925060408501359150606085013567ffffffffffffffff81111561334957600080fd5b8501601f8101871361335a57600080fd5b61336987823560208401613122565b91505092959194509250565b6000806040838503121561338857600080fd5b61339183612f5d565b915061339f60208401612f5d565b90509250929050565b600181811c908216806133bc57607f821691505b602082108114156133dd57634e487b7160e01b600052602260045260246000fd5b50919050565b634e487b7160e01b600052601160045260246000fd5b6000821982111561340c5761340c6133e3565b500190565b634e487b7160e01b600052603260045260246000fd5b600060001982141561343b5761343b6133e3565b5060010190565b6020808252602d908201527f4552433732313a2063616c6c6572206973206e6f7420746f6b656e206f776e6560408201526c1c881bdc88185c1c1c9bdd9959609a1b606082015260800190565b602080825260139082015272556e617574686f72697a656420656e7469747960681b604082015260600190565b60008160001904831182151516156134d6576134d66133e3565b500290565b6000828210156134ed576134ed6133e3565b500390565b60008351613504818460208801612ed9565b835190830190613518818360208801612ed9565b01949350505050565b600081613530576135306133e3565b506000190190565b60008261355557634e487b7160e01b600052601260045260246000fd5b500490565b60208082526025908201527f4552433732313a207472616e736665722066726f6d20696e636f72726563742060408201526437bbb732b960d91b606082015260800190565b60208082526032908201527f4552433732313a207472616e7366657220746f206e6f6e20455243373231526560408201527131b2b4bb32b91034b6b83632b6b2b73a32b960711b606082015260800190565b6001600160a01b038581168252841660208201526040810183905260806060820181905260009061362490830184612f05565b9695505050505050565b60006020828403121561364057600080fd5b815161286f81612ea656fea2646970667358221220c9b517b9f7bf31c8f16c7163caee0845ae1b6e3f0ccbbe39cfa2a4152dd4102864736f6c634300080b0033",
  "linkReferences": {},
  "deployedLinkReferences": {}
}