{
  "_format": "hh-sol-artifact-1",
  "contractName": "NFT",
  "sourceName": "src/contracts/NFT.sol",
  "abi": [
    {
      "inputs": [
        {
          "internalType": "address",
          "name": "marketplaceAddress",
          "type": "address"
        }
      ],
      "stateMutability": "nonpayable",
      "type": "constructor"
    },
    {
      "anonymous": false,
      "inputs": [
        {
          "indexed": true,
          "internalType": "address",
          "name": "owner",
          "type": "address"
        },
        {
          "indexed": true,
          "internalType": "address",
          "name": "approved",
          "type": "address"
        },
        {
          "indexed": true,
          "internalType": "uint256",
          "name": "tokenId",
          "type": "uint256"
        }
      ],
      "name": "Approval",
      "type": "event"
    },
    {
      "anonymous": false,
      "inputs": [
        {
          "indexed": true,
          "internalType": "address",
          "name": "owner",
          "type": "address"
        },
        {
          "indexed": true,
          "internalType": "address",
          "name": "operator",
          "type": "address"
        },
        {
          "indexed": false,
          "internalType": "bool",
          "name": "approved",
          "type": "bool"
        }
      ],
      "name": "ApprovalForAll",
      "type": "event"
    },
    {
      "anonymous": false,
      "inputs": [
        {
          "indexed": true,
          "internalType": "address",
          "name": "from",
          "type": "address"
        },
        {
          "indexed": true,
          "internalType": "address",
          "name": "to",
          "type": "address"
        },
        {
          "indexed": true,
          "internalType": "uint256",
          "name": "tokenId",
          "type": "uint256"
        }
      ],
      "name": "Transfer",
      "type": "event"
    },
    {
      "inputs": [
        {
          "internalType": "address",
          "name": "to",
          "type": "address"
        },
        {
          "internalType": "uint256",
          "name": "tokenId",
          "type": "uint256"
        }
      ],
      "name": "approve",
      "outputs": [],
      "stateMutability": "nonpayable",
      "type": "function"
    },
    {
      "inputs": [
        {
          "internalType": "address",
          "name": "owner",
          "type": "address"
        }
      ],
      "name": "balanceOf",
      "outputs": [
        {
          "internalType": "uint256",
          "name": "",
          "type": "uint256"
        }
      ],
      "stateMutability": "view",
      "type": "function"
    },
    {
      "inputs": [
        {
          "internalType": "uint256",
          "name": "tokenId",
          "type": "uint256"
        }
      ],
      "name": "getApproved",
      "outputs": [
        {
          "internalType": "address",
          "name": "",
          "type": "address"
        }
      ],
      "stateMutability": "view",
      "type": "function"
    },
    {
      "inputs": [
        {
          "internalType": "address",
          "name": "owner",
          "type": "address"
        },
        {
          "internalType": "address",
          "name": "operator",
          "type": "address"
        }
      ],
      "name": "isApprovedForAll",
      "outputs": [
        {
          "internalType": "bool",
          "name": "",
          "type": "bool"
        }
      ],
      "stateMutability": "view",
      "type": "function"
    },
    {
      "inputs": [
        {
          "internalType": "string",
          "name": "tokenURI",
          "type": "string"
        }
      ],
      "name": "mintToken",
      "outputs": [
        {
          "internalType": "uint256",
          "name": "",
          "type": "uint256"
        }
      ],
      "stateMutability": "nonpayable",
      "type": "function"
    },
    {
      "inputs": [],
      "name": "name",
      "outputs": [
        {
          "internalType": "string",
          "name": "",
          "type": "string"
        }
      ],
      "stateMutability": "view",
      "type": "function"
    },
    {
      "inputs": [
        {
          "internalType": "uint256",
          "name": "tokenId",
          "type": "uint256"
        }
      ],
      "name": "ownerOf",
      "outputs": [
        {
          "internalType": "address",
          "name": "",
          "type": "address"
        }
      ],
      "stateMutability": "view",
      "type": "function"
    },
    {
      "inputs": [
        {
          "internalType": "address",
          "name": "from",
          "type": "address"
        },
        {
          "internalType": "address",
          "name": "to",
          "type": "address"
        },
        {
          "internalType": "uint256",
          "name": "tokenId",
          "type": "uint256"
        }
      ],
      "name": "safeTransferFrom",
      "outputs": [],
      "stateMutability": "nonpayable",
      "type": "function"
    },
    {
      "inputs": [
        {
          "internalType": "address",
          "name": "from",
          "type": "address"
        },
        {
          "internalType": "address",
          "name": "to",
          "type": "address"
        },
        {
          "internalType": "uint256",
          "name": "tokenId",
          "type": "uint256"
        },
        {
          "internalType": "bytes",
          "name": "data",
          "type": "bytes"
        }
      ],
      "name": "safeTransferFrom",
      "outputs": [],
      "stateMutability": "nonpayable",
      "type": "function"
    },
    {
      "inputs": [
        {
          "internalType": "address",
          "name": "operator",
          "type": "address"
        },
        {
          "internalType": "bool",
          "name": "approved",
          "type": "bool"
        }
      ],
      "name": "setApprovalForAll",
      "outputs": [],
      "stateMutability": "nonpayable",
      "type": "function"
    },
    {
      "inputs": [
        {
          "internalType": "bytes4",
          "name": "interfaceId",
          "type": "bytes4"
        }
      ],
      "name": "supportsInterface",
      "outputs": [
        {
          "internalType": "bool",
          "name": "",
          "type": "bool"
        }
      ],
      "stateMutability": "view",
      "type": "function"
    },
    {
      "inputs": [],
      "name": "symbol",
      "outputs": [
        {
          "internalType": "string",
          "name": "",
          "type": "string"
        }
      ],
      "stateMutability": "view",
      "type": "function"
    },
    {
      "inputs": [
        {
          "internalType": "uint256",
          "name": "tokenId",
          "type": "uint256"
        }
      ],
      "name": "tokenURI",
      "outputs": [
        {
          "internalType": "string",
          "name": "",
          "type": "string"
        }
      ],
      "stateMutability": "view",
      "type": "function"
    },
    {
      "inputs": [
        {
          "internalType": "address",
          "name": "from",
          "type": "address"
        },
        {
          "internalType": "address",
          "name": "to",
          "type": "address"
        },
        {
          "internalType": "uint256",
          "name": "tokenId",
          "type": "uint256"
        }
      ],
      "name": "transferFrom",
      "outputs": [],
      "stateMutability": "nonpayable",
      "type": "function"
    }
  ],
  "bytecode": "0x60806040523480156200001157600080fd5b506040516200188a3803806200188a83398101604081905262000034916200017b565b604080518082018252601381527f506172746e6572766572736520546f6b656e73000000000000000000000000006020808301918252835180850190945260048452631413959560e21b9084015281519192916200009591600091620000d5565b508051620000ab906001906020840190620000d5565b5050600880546001600160a01b0319166001600160a01b03939093169290921790915550620001ea565b828054620000e390620001ad565b90600052602060002090601f01602090048101928262000107576000855562000152565b82601f106200012257805160ff191683800117855562000152565b8280016001018555821562000152579182015b828111156200015257825182559160200191906001019062000135565b506200016092915062000164565b5090565b5b8082111562000160576000815560010162000165565b6000602082840312156200018e57600080fd5b81516001600160a01b0381168114620001a657600080fd5b9392505050565b600181811c90821680620001c257607f821691505b60208210811415620001e457634e487b7160e01b600052602260045260246000fd5b50919050565b61169080620001fa6000396000f3fe608060405234801561001057600080fd5b50600436106100ea5760003560e01c80636352211e1161008c578063a22cb46511610066578063a22cb465146101e1578063b88d4fde146101f4578063c87b56dd14610207578063e985e9c51461021a57600080fd5b80636352211e146101b357806370a08231146101c657806395d89b41146101d957600080fd5b8063095ea7b3116100c8578063095ea7b31461015757806323b872dd1461016c57806333eba49a1461017f57806342842e0e146101a057600080fd5b806301ffc9a7146100ef57806306fdde0314610117578063081812fc1461012c575b600080fd5b6101026100fd36600461116f565b610256565b60405190151581526020015b60405180910390f35b61011f6102a8565b60405161010e91906111e4565b61013f61013a3660046111f7565b61033a565b6040516001600160a01b03909116815260200161010e565b61016a61016536600461122c565b610361565b005b61016a61017a366004611256565b61047c565b61019261018d36600461131e565b6104ad565b60405190815260200161010e565b61016a6101ae366004611256565b6104f5565b61013f6101c13660046111f7565b610510565b6101926101d4366004611367565b610570565b61011f6105f6565b61016a6101ef366004611382565b610605565b61016a6102023660046113be565b610614565b61011f6102153660046111f7565b61064c565b61010261022836600461143a565b6001600160a01b03918216600090815260056020908152604080832093909416825291909152205460ff1690565b60006001600160e01b031982166380ac58cd60e01b148061028757506001600160e01b03198216635b5e139f60e01b145b806102a257506301ffc9a760e01b6001600160e01b03198316145b92915050565b6060600080546102b79061146d565b80601f01602080910402602001604051908101604052809291908181526020018280546102e39061146d565b80156103305780601f1061030557610100808354040283529160200191610330565b820191906000526020600020905b81548152906001019060200180831161031357829003601f168201915b5050505050905090565b60006103458261075d565b506000908152600460205260409020546001600160a01b031690565b600061036c82610510565b9050806001600160a01b0316836001600160a01b031614156103df5760405162461bcd60e51b815260206004820152602160248201527f4552433732313a20617070726f76616c20746f2063757272656e74206f776e656044820152603960f91b60648201526084015b60405180910390fd5b336001600160a01b03821614806103fb57506103fb8133610228565b61046d5760405162461bcd60e51b815260206004820152603d60248201527f4552433732313a20617070726f76652063616c6c6572206973206e6f7420746f60448201527f6b656e206f776e6572206f7220617070726f76656420666f7220616c6c00000060648201526084016103d6565b61047783836107bf565b505050565b610486338261082d565b6104a25760405162461bcd60e51b81526004016103d6906114a8565b6104778383836108ab565b60006104bd600780546001019055565b60006104c860075490565b90506104d43382610a1c565b6104de8184610bb5565b6008546102a2906001600160a01b03166001610605565b61047783838360405180602001604052806000815250610614565b6000818152600260205260408120546001600160a01b0316806102a25760405162461bcd60e51b8152602060048201526018602482015277115490cdcc8c4e881a5b9d985b1a59081d1bdad95b88125160421b60448201526064016103d6565b60006001600160a01b0382166105da5760405162461bcd60e51b815260206004820152602960248201527f4552433732313a2061646472657373207a65726f206973206e6f7420612076616044820152683634b21037bbb732b960b91b60648201526084016103d6565b506001600160a01b031660009081526003602052604090205490565b6060600180546102b79061146d565b610610338383610c4f565b5050565b61061e338361082d565b61063a5760405162461bcd60e51b81526004016103d6906114a8565b61064684848484610d1e565b50505050565b60606106578261075d565b600082815260066020526040812080546106709061146d565b80601f016020809104026020016040519081016040528092919081815260200182805461069c9061146d565b80156106e95780601f106106be576101008083540402835291602001916106e9565b820191906000526020600020905b8154815290600101906020018083116106cc57829003601f168201915b50505050509050600061070760408051602081019091526000815290565b905080516000141561071a575092915050565b81511561074c5780826040516020016107349291906114f5565b60405160208183030381529060405292505050919050565b61075584610d51565b949350505050565b6000818152600260205260409020546001600160a01b03166107bc5760405162461bcd60e51b8152602060048201526018602482015277115490cdcc8c4e881a5b9d985b1a59081d1bdad95b88125160421b60448201526064016103d6565b50565b600081815260046020526040902080546001600160a01b0319166001600160a01b03841690811790915581906107f482610510565b6001600160a01b03167f8c5be1e5ebec7d5bd14f71427d1e84f3dd0314c0f7b2291e5b200ac8c7c3b92560405160405180910390a45050565b60008061083983610510565b9050806001600160a01b0316846001600160a01b0316148061088057506001600160a01b0380821660009081526005602090815260408083209388168352929052205460ff165b806107555750836001600160a01b03166108998461033a565b6001600160a01b031614949350505050565b826001600160a01b03166108be82610510565b6001600160a01b0316146108e45760405162461bcd60e51b81526004016103d690611524565b6001600160a01b0382166109465760405162461bcd60e51b8152602060048201526024808201527f4552433732313a207472616e7366657220746f20746865207a65726f206164646044820152637265737360e01b60648201526084016103d6565b6109538383836001610dc5565b826001600160a01b031661096682610510565b6001600160a01b03161461098c5760405162461bcd60e51b81526004016103d690611524565b600081815260046020908152604080832080546001600160a01b03199081169091556001600160a01b0387811680865260038552838620805460001901905590871680865283862080546001019055868652600290945282852080549092168417909155905184937fddf252ad1be2c89b69c2b068fc378daa952ba7f163c4a11628f55a4df523b3ef91a4505050565b6001600160a01b038216610a725760405162461bcd60e51b815260206004820181905260248201527f4552433732313a206d696e7420746f20746865207a65726f206164647265737360448201526064016103d6565b6000818152600260205260409020546001600160a01b031615610ad75760405162461bcd60e51b815260206004820152601c60248201527f4552433732313a20746f6b656e20616c7265616479206d696e7465640000000060448201526064016103d6565b610ae5600083836001610dc5565b6000818152600260205260409020546001600160a01b031615610b4a5760405162461bcd60e51b815260206004820152601c60248201527f4552433732313a20746f6b656e20616c7265616479206d696e7465640000000060448201526064016103d6565b6001600160a01b038216600081815260036020908152604080832080546001019055848352600290915280822080546001600160a01b0319168417905551839291907fddf252ad1be2c89b69c2b068fc378daa952ba7f163c4a11628f55a4df523b3ef908290a45050565b6000828152600260205260409020546001600160a01b0316610c305760405162461bcd60e51b815260206004820152602e60248201527f45524337323155524953746f726167653a2055524920736574206f66206e6f6e60448201526d32bc34b9ba32b73a103a37b5b2b760911b60648201526084016103d6565b60008281526006602090815260409091208251610477928401906110c0565b816001600160a01b0316836001600160a01b03161415610cb15760405162461bcd60e51b815260206004820152601960248201527f4552433732313a20617070726f766520746f2063616c6c65720000000000000060448201526064016103d6565b6001600160a01b03838116600081815260056020908152604080832094871680845294825291829020805460ff191686151590811790915591519182527f17307eab39ab6107e8899845ad3d59bd9653f200f220920489ca2b5937696c31910160405180910390a3505050565b610d298484846108ab565b610d3584848484610e4d565b6106465760405162461bcd60e51b81526004016103d690611569565b6060610d5c8261075d565b6000610d7360408051602081019091526000815290565b90506000815111610d935760405180602001604052806000815250610dbe565b80610d9d84610f4b565b604051602001610dae9291906114f5565b6040516020818303038152906040525b9392505050565b6001811115610646576001600160a01b03841615610e0b576001600160a01b03841660009081526003602052604081208054839290610e059084906115d1565b90915550505b6001600160a01b03831615610646576001600160a01b03831660009081526003602052604081208054839290610e429084906115e8565b909155505050505050565b60006001600160a01b0384163b15610f4057604051630a85bd0160e11b81526001600160a01b0385169063150b7a0290610e91903390899088908890600401611600565b6020604051808303816000875af1925050508015610ecc575060408051601f3d908101601f19168201909252610ec99181019061163d565b60015b610f26573d808015610efa576040519150601f19603f3d011682016040523d82523d6000602084013e610eff565b606091505b508051610f1e5760405162461bcd60e51b81526004016103d690611569565b805181602001fd5b6001600160e01b031916630a85bd0160e11b149050610755565b506001949350505050565b60606000610f5883610fe8565b600101905060008167ffffffffffffffff811115610f7857610f78611292565b6040519080825280601f01601f191660200182016040528015610fa2576020820181803683370190505b5090508181016020015b600019016f181899199a1a9b1b9c1cb0b131b232b360811b600a86061a8153600a8504945084610fdb57610fe0565b610fac565b509392505050565b60008072184f03e93ff9f4daa797ed6e38ed64bf6a1f0160401b83106110275772184f03e93ff9f4daa797ed6e38ed64bf6a1f0160401b830492506040015b6d04ee2d6d415b85acef81000000008310611053576d04ee2d6d415b85acef8100000000830492506020015b662386f26fc10000831061107157662386f26fc10000830492506010015b6305f5e1008310611089576305f5e100830492506008015b612710831061109d57612710830492506004015b606483106110af576064830492506002015b600a83106102a25760010192915050565b8280546110cc9061146d565b90600052602060002090601f0160209004810192826110ee5760008555611134565b82601f1061110757805160ff1916838001178555611134565b82800160010185558215611134579182015b82811115611134578251825591602001919060010190611119565b50611140929150611144565b5090565b5b808211156111405760008155600101611145565b6001600160e01b0319811681146107bc57600080fd5b60006020828403121561118157600080fd5b8135610dbe81611159565b60005b838110156111a757818101518382015260200161118f565b838111156106465750506000910152565b600081518084526111d081602086016020860161118c565b601f01601f19169290920160200192915050565b602081526000610dbe60208301846111b8565b60006020828403121561120957600080fd5b5035919050565b80356001600160a01b038116811461122757600080fd5b919050565b6000806040838503121561123f57600080fd5b61124883611210565b946020939093013593505050565b60008060006060848603121561126b57600080fd5b61127484611210565b925061128260208501611210565b9150604084013590509250925092565b634e487b7160e01b600052604160045260246000fd5b600067ffffffffffffffff808411156112c3576112c3611292565b604051601f8501601f19908116603f011681019082821181831017156112eb576112eb611292565b8160405280935085815286868601111561130457600080fd5b858560208301376000602087830101525050509392505050565b60006020828403121561133057600080fd5b813567ffffffffffffffff81111561134757600080fd5b8201601f8101841361135857600080fd5b610755848235602084016112a8565b60006020828403121561137957600080fd5b610dbe82611210565b6000806040838503121561139557600080fd5b61139e83611210565b9150602083013580151581146113b357600080fd5b809150509250929050565b600080600080608085870312156113d457600080fd5b6113dd85611210565b93506113eb60208601611210565b925060408501359150606085013567ffffffffffffffff81111561140e57600080fd5b8501601f8101871361141f57600080fd5b61142e878235602084016112a8565b91505092959194509250565b6000806040838503121561144d57600080fd5b61145683611210565b915061146460208401611210565b90509250929050565b600181811c9082168061148157607f821691505b602082108114156114a257634e487b7160e01b600052602260045260246000fd5b50919050565b6020808252602d908201527f4552433732313a2063616c6c6572206973206e6f7420746f6b656e206f776e6560408201526c1c881bdc88185c1c1c9bdd9959609a1b606082015260800190565b6000835161150781846020880161118c565b83519083019061151b81836020880161118c565b01949350505050565b60208082526025908201527f4552433732313a207472616e736665722066726f6d20696e636f72726563742060408201526437bbb732b960d91b606082015260800190565b60208082526032908201527f4552433732313a207472616e7366657220746f206e6f6e20455243373231526560408201527131b2b4bb32b91034b6b83632b6b2b73a32b960711b606082015260800190565b634e487b7160e01b600052601160045260246000fd5b6000828210156115e3576115e36115bb565b500390565b600082198211156115fb576115fb6115bb565b500190565b6001600160a01b0385811682528416602082015260408101839052608060608201819052600090611633908301846111b8565b9695505050505050565b60006020828403121561164f57600080fd5b8151610dbe8161115956fea26469706673582212202eb9e10164679e540413d912d0df7adc897c5e604f8360f7c52b7e9cf55b967064736f6c634300080b0033",
  "linkReferences": {},
  "deployedLinkReferences": {}
}